{
	"contracts/FreshTrack.sol": {
		"FoodSupplyChain": {
			"abi": [
				{
					"anonymous": false,
					"inputs": [
						{
							"indexed": false,
							"internalType": "uint256",
							"name": "productId",
							"type": "uint256"
						},
						{
							"indexed": false,
							"internalType": "string",
							"name": "productDescription",
							"type": "string"
						},
						{
							"indexed": false,
							"internalType": "string",
							"name": "producerName",
							"type": "string"
						},
						{
							"indexed": false,
							"internalType": "address",
							"name": "producerAddress",
							"type": "address"
						},
						{
							"indexed": false,
							"internalType": "uint256",
							"name": "harvestDate",
							"type": "uint256"
						}
					],
					"name": "ProductHarvested",
					"type": "event"
				},
				{
					"anonymous": false,
					"inputs": [
						{
							"indexed": false,
							"internalType": "uint256",
							"name": "productId",
							"type": "uint256"
						},
						{
							"indexed": false,
							"internalType": "address",
							"name": "buyerAddress",
							"type": "address"
						}
					],
					"name": "ProductSold",
					"type": "event"
				},
				{
					"anonymous": false,
					"inputs": [
						{
							"indexed": false,
							"internalType": "uint256",
							"name": "productId",
							"type": "uint256"
						},
						{
							"indexed": false,
							"internalType": "string",
							"name": "fromStage",
							"type": "string"
						},
						{
							"indexed": false,
							"internalType": "string",
							"name": "toStage",
							"type": "string"
						},
						{
							"indexed": false,
							"internalType": "address",
							"name": "fromAddress",
							"type": "address"
						},
						{
							"indexed": false,
							"internalType": "address",
							"name": "toAddress",
							"type": "address"
						},
						{
							"indexed": false,
							"internalType": "uint256",
							"name": "transferDate",
							"type": "uint256"
						}
					],
					"name": "ProductTransferred",
					"type": "event"
				},
				{
					"inputs": [
						{
							"internalType": "string",
							"name": "_productDescription",
							"type": "string"
						},
						{
							"internalType": "string",
							"name": "_producerName",
							"type": "string"
						},
						{
							"internalType": "address",
							"name": "_producerAddress",
							"type": "address"
						},
						{
							"internalType": "uint256",
							"name": "_harvestDate",
							"type": "uint256"
						}
					],
					"name": "harvestProduct",
					"outputs": [],
					"stateMutability": "nonpayable",
					"type": "function"
				},
				{
					"inputs": [],
					"name": "productCount",
					"outputs": [
						{
							"internalType": "uint256",
							"name": "",
							"type": "uint256"
						}
					],
					"stateMutability": "view",
					"type": "function"
				},
				{
					"inputs": [
						{
							"internalType": "uint256",
							"name": "",
							"type": "uint256"
						}
					],
					"name": "products",
					"outputs": [
						{
							"internalType": "uint256",
							"name": "productId",
							"type": "uint256"
						},
						{
							"internalType": "string",
							"name": "productDescription",
							"type": "string"
						},
						{
							"internalType": "string",
							"name": "producerName",
							"type": "string"
						},
						{
							"internalType": "address",
							"name": "producerAddress",
							"type": "address"
						},
						{
							"internalType": "uint256",
							"name": "harvestDate",
							"type": "uint256"
						},
						{
							"internalType": "string",
							"name": "distributerName",
							"type": "string"
						},
						{
							"internalType": "address",
							"name": "distributerAddress",
							"type": "address"
						},
						{
							"internalType": "uint256",
							"name": "prodToDistDate",
							"type": "uint256"
						},
						{
							"internalType": "string",
							"name": "retailerName",
							"type": "string"
						},
						{
							"internalType": "address",
							"name": "retailerAddress",
							"type": "address"
						},
						{
							"internalType": "uint256",
							"name": "distToRetaDate",
							"type": "uint256"
						},
						{
							"internalType": "bool",
							"name": "isSold",
							"type": "bool"
						}
					],
					"stateMutability": "view",
					"type": "function"
				},
				{
					"inputs": [
						{
							"internalType": "uint256",
							"name": "_productId",
							"type": "uint256"
						}
					],
					"name": "sellToConsumer",
					"outputs": [],
					"stateMutability": "nonpayable",
					"type": "function"
				},
				{
					"inputs": [
						{
							"internalType": "uint256",
							"name": "_productId",
							"type": "uint256"
						},
						{
							"internalType": "string",
							"name": "_distributerName",
							"type": "string"
						},
						{
							"internalType": "address",
							"name": "_distributerAddress",
							"type": "address"
						},
						{
							"internalType": "uint256",
							"name": "_prodToDistDate",
							"type": "uint256"
						}
					],
					"name": "transferToDistributor",
					"outputs": [],
					"stateMutability": "nonpayable",
					"type": "function"
				},
				{
					"inputs": [
						{
							"internalType": "uint256",
							"name": "_productId",
							"type": "uint256"
						},
						{
							"internalType": "string",
							"name": "_retailerName",
							"type": "string"
						},
						{
							"internalType": "address",
							"name": "_retailerAddress",
							"type": "address"
						},
						{
							"internalType": "uint256",
							"name": "_distToRetaDate",
							"type": "uint256"
						}
					],
					"name": "transferToRetailer",
					"outputs": [],
					"stateMutability": "nonpayable",
					"type": "function"
				}
			],
			"devdoc": {
				"kind": "dev",
				"methods": {},
				"version": 1
			},
			"evm": {
				"assembly": "    /* \"contracts/FreshTrack.sol\":57:3476  contract FoodSupplyChain {... */\n  mstore(0x40, 0x80)\n  callvalue\n  dup1\n  iszero\n  tag_1\n  jumpi\n  0x00\n  dup1\n  revert\ntag_1:\n  pop\n  dataSize(sub_0)\n  dup1\n  dataOffset(sub_0)\n  0x00\n  codecopy\n  0x00\n  return\nstop\n\nsub_0: assembly {\n        /* \"contracts/FreshTrack.sol\":57:3476  contract FoodSupplyChain {... */\n      mstore(0x40, 0x80)\n      callvalue\n      dup1\n      iszero\n      tag_1\n      jumpi\n      0x00\n      dup1\n      revert\n    tag_1:\n      pop\n      jumpi(tag_2, lt(calldatasize, 0x04))\n      shr(0xe0, calldataload(0x00))\n      dup1\n      0x0cd3fb4f\n      eq\n      tag_3\n      jumpi\n      dup1\n      0x75476b7d\n      eq\n      tag_4\n      jumpi\n      dup1\n      0x7acc0b20\n      eq\n      tag_5\n      jumpi\n      dup1\n      0x97b00581\n      eq\n      tag_6\n      jumpi\n      dup1\n      0xc21f9b99\n      eq\n      tag_7\n      jumpi\n      dup1\n      0xe0f6ef87\n      eq\n      tag_8\n      jumpi\n    tag_2:\n      0x00\n      dup1\n      revert\n        /* \"contracts/FreshTrack.sol\":976:1599  function harvestProduct(string memory _productDescription, string memory _producerName, address _producerAddress, uint256 _harvestDate) public {... */\n    tag_3:\n      tag_9\n      0x04\n      dup1\n      calldatasize\n      sub\n      dup2\n      add\n      swap1\n      tag_10\n      swap2\n      swap1\n      tag_11\n      jump\t// in\n    tag_10:\n      tag_12\n      jump\t// in\n    tag_9:\n      stop\n        /* \"contracts/FreshTrack.sol\":1674:2362  function transferToDistributor(uint256 _productId, string memory _distributerName, address _distributerAddress, uint256 _prodToDistDate) public {... */\n    tag_4:\n      tag_13\n      0x04\n      dup1\n      calldatasize\n      sub\n      dup2\n      add\n      swap1\n      tag_14\n      swap2\n      swap1\n      tag_15\n      jump\t// in\n    tag_14:\n      tag_16\n      jump\t// in\n    tag_13:\n      stop\n        /* \"contracts/FreshTrack.sol\":497:544  mapping(uint256 => FarmProduct) public products */\n    tag_5:\n      tag_17\n      0x04\n      dup1\n      calldatasize\n      sub\n      dup2\n      add\n      swap1\n      tag_18\n      swap2\n      swap1\n      tag_19\n      jump\t// in\n    tag_18:\n      tag_20\n      jump\t// in\n    tag_17:\n      mload(0x40)\n      tag_21\n      swap13\n      swap12\n      swap11\n      swap10\n      swap9\n      swap8\n      swap7\n      swap6\n      swap5\n      swap4\n      swap3\n      swap2\n      swap1\n      tag_22\n      jump\t// in\n    tag_21:\n      mload(0x40)\n      dup1\n      swap2\n      sub\n      swap1\n      return\n        /* \"contracts/FreshTrack.sol\":2437:3101  function transferToRetailer(uint256 _productId, string memory _retailerName, address _retailerAddress, uint256 _distToRetaDate) public {... */\n    tag_6:\n      tag_23\n      0x04\n      dup1\n      calldatasize\n      sub\n      dup2\n      add\n      swap1\n      tag_24\n      swap2\n      swap1\n      tag_15\n      jump\t// in\n    tag_24:\n      tag_25\n      jump\t// in\n    tag_23:\n      stop\n        /* \"contracts/FreshTrack.sol\":3164:3474  function sellToConsumer(uint256 _productId) public {... */\n    tag_7:\n      tag_26\n      0x04\n      dup1\n      calldatasize\n      sub\n      dup2\n      add\n      swap1\n      tag_27\n      swap2\n      swap1\n      tag_19\n      jump\t// in\n    tag_27:\n      tag_28\n      jump\t// in\n    tag_26:\n      stop\n        /* \"contracts/FreshTrack.sol\":550:577  uint256 public productCount */\n    tag_8:\n      tag_29\n      tag_30\n      jump\t// in\n    tag_29:\n      mload(0x40)\n      tag_31\n      swap2\n      swap1\n      tag_32\n      jump\t// in\n    tag_31:\n      mload(0x40)\n      dup1\n      swap2\n      sub\n      swap1\n      return\n        /* \"contracts/FreshTrack.sol\":976:1599  function harvestProduct(string memory _productDescription, string memory _producerName, address _producerAddress, uint256 _harvestDate) public {... */\n    tag_12:\n        /* \"contracts/FreshTrack.sol\":1129:1141  productCount */\n      0x01\n      0x00\n        /* \"contracts/FreshTrack.sol\":1129:1143  productCount++ */\n      dup2\n      sload\n      dup1\n      swap3\n      swap2\n      swap1\n      tag_34\n      swap1\n      tag_35\n      jump\t// in\n    tag_34:\n      swap2\n      swap1\n      pop\n      sstore\n      pop\n        /* \"contracts/FreshTrack.sol\":1178:1470  FarmProduct(... */\n      mload(0x40)\n      dup1\n      0x0180\n      add\n      0x40\n      mstore\n      dup1\n        /* \"contracts/FreshTrack.sol\":1203:1215  productCount */\n      sload(0x01)\n        /* \"contracts/FreshTrack.sol\":1178:1470  FarmProduct(... */\n      dup2\n      mstore\n      0x20\n      add\n        /* \"contracts/FreshTrack.sol\":1229:1248  _productDescription */\n      dup6\n        /* \"contracts/FreshTrack.sol\":1178:1470  FarmProduct(... */\n      dup2\n      mstore\n      0x20\n      add\n        /* \"contracts/FreshTrack.sol\":1262:1275  _producerName */\n      dup5\n        /* \"contracts/FreshTrack.sol\":1178:1470  FarmProduct(... */\n      dup2\n      mstore\n      0x20\n      add\n        /* \"contracts/FreshTrack.sol\":1289:1305  _producerAddress */\n      dup4\n        /* \"contracts/FreshTrack.sol\":1178:1470  FarmProduct(... */\n      0xffffffffffffffffffffffffffffffffffffffff\n      and\n      dup2\n      mstore\n      0x20\n      add\n        /* \"contracts/FreshTrack.sol\":1319:1331  _harvestDate */\n      dup3\n        /* \"contracts/FreshTrack.sol\":1178:1470  FarmProduct(... */\n      dup2\n      mstore\n      0x20\n      add\n      mload(0x40)\n      dup1\n      0x20\n      add\n      0x40\n      mstore\n      dup1\n      0x00\n      dup2\n      mstore\n      pop\n      dup2\n      mstore\n      0x20\n      add\n        /* \"contracts/FreshTrack.sol\":1369:1370  0 */\n      0x00\n        /* \"contracts/FreshTrack.sol\":1178:1470  FarmProduct(... */\n      0xffffffffffffffffffffffffffffffffffffffff\n      and\n      dup2\n      mstore\n      0x20\n      add\n        /* \"contracts/FreshTrack.sol\":1385:1386  0 */\n      0x00\n        /* \"contracts/FreshTrack.sol\":1178:1470  FarmProduct(... */\n      dup2\n      mstore\n      0x20\n      add\n      mload(0x40)\n      dup1\n      0x20\n      add\n      0x40\n      mstore\n      dup1\n      0x00\n      dup2\n      mstore\n      pop\n      dup2\n      mstore\n      0x20\n      add\n        /* \"contracts/FreshTrack.sol\":1424:1425  0 */\n      0x00\n        /* \"contracts/FreshTrack.sol\":1178:1470  FarmProduct(... */\n      0xffffffffffffffffffffffffffffffffffffffff\n      and\n      dup2\n      mstore\n      0x20\n      add\n        /* \"contracts/FreshTrack.sol\":1440:1441  0 */\n      0x00\n        /* \"contracts/FreshTrack.sol\":1178:1470  FarmProduct(... */\n      dup2\n      mstore\n      0x20\n      add\n        /* \"contracts/FreshTrack.sol\":1455:1460  false */\n      0x00\n        /* \"contracts/FreshTrack.sol\":1178:1470  FarmProduct(... */\n      iszero\n      iszero\n      dup2\n      mstore\n      pop\n        /* \"contracts/FreshTrack.sol\":1153:1161  products */\n      0x00\n        /* \"contracts/FreshTrack.sol\":1153:1175  products[productCount] */\n      dup1\n        /* \"contracts/FreshTrack.sol\":1162:1174  productCount */\n      sload(0x01)\n        /* \"contracts/FreshTrack.sol\":1153:1175  products[productCount] */\n      dup2\n      mstore\n      0x20\n      add\n      swap1\n      dup2\n      mstore\n      0x20\n      add\n      0x00\n      keccak256\n        /* \"contracts/FreshTrack.sol\":1153:1470  products[productCount] = FarmProduct(... */\n      0x00\n      dup3\n      add\n      mload\n      dup2\n      0x00\n      add\n      sstore\n      0x20\n      dup3\n      add\n      mload\n      dup2\n      0x01\n      add\n      swap1\n      dup2\n      tag_36\n      swap2\n      swap1\n      tag_37\n      jump\t// in\n    tag_36:\n      pop\n      0x40\n      dup3\n      add\n      mload\n      dup2\n      0x02\n      add\n      swap1\n      dup2\n      tag_38\n      swap2\n      swap1\n      tag_37\n      jump\t// in\n    tag_38:\n      pop\n      0x60\n      dup3\n      add\n      mload\n      dup2\n      0x03\n      add\n      exp(0x0100, 0x00)\n      dup2\n      sload\n      dup2\n      0xffffffffffffffffffffffffffffffffffffffff\n      mul\n      not\n      and\n      swap1\n      dup4\n      0xffffffffffffffffffffffffffffffffffffffff\n      and\n      mul\n      or\n      swap1\n      sstore\n      pop\n      0x80\n      dup3\n      add\n      mload\n      dup2\n      0x04\n      add\n      sstore\n      0xa0\n      dup3\n      add\n      mload\n      dup2\n      0x05\n      add\n      swap1\n      dup2\n      tag_39\n      swap2\n      swap1\n      tag_37\n      jump\t// in\n    tag_39:\n      pop\n      0xc0\n      dup3\n      add\n      mload\n      dup2\n      0x06\n      add\n      exp(0x0100, 0x00)\n      dup2\n      sload\n      dup2\n      0xffffffffffffffffffffffffffffffffffffffff\n      mul\n      not\n      and\n      swap1\n      dup4\n      0xffffffffffffffffffffffffffffffffffffffff\n      and\n      mul\n      or\n      swap1\n      sstore\n      pop\n      0xe0\n      dup3\n      add\n      mload\n      dup2\n      0x07\n      add\n      sstore\n      0x0100\n      dup3\n      add\n      mload\n      dup2\n      0x08\n      add\n      swap1\n      dup2\n      tag_40\n      swap2\n      swap1\n      tag_37\n      jump\t// in\n    tag_40:\n      pop\n      0x0120\n      dup3\n      add\n      mload\n      dup2\n      0x09\n      add\n      exp(0x0100, 0x00)\n      dup2\n      sload\n      dup2\n      0xffffffffffffffffffffffffffffffffffffffff\n      mul\n      not\n      and\n      swap1\n      dup4\n      0xffffffffffffffffffffffffffffffffffffffff\n      and\n      mul\n      or\n      swap1\n      sstore\n      pop\n      0x0140\n      dup3\n      add\n      mload\n      dup2\n      0x0a\n      add\n      sstore\n      0x0160\n      dup3\n      add\n      mload\n      dup2\n      0x0b\n      add\n      exp(0x0100, 0x00)\n      dup2\n      sload\n      dup2\n      0xff\n      mul\n      not\n      and\n      swap1\n      dup4\n      iszero\n      iszero\n      mul\n      or\n      swap1\n      sstore\n      pop\n      swap1\n      pop\n      pop\n        /* \"contracts/FreshTrack.sol\":1494:1592  ProductHarvested(productCount, _productDescription, _producerName, _producerAddress, _harvestDate) */\n      0x182d7ef818cea22cbaca1d1945f72232645b1fed3cd3a61ff41d970329bd5cb7\n        /* \"contracts/FreshTrack.sol\":1511:1523  productCount */\n      sload(0x01)\n        /* \"contracts/FreshTrack.sol\":1525:1544  _productDescription */\n      dup6\n        /* \"contracts/FreshTrack.sol\":1546:1559  _producerName */\n      dup6\n        /* \"contracts/FreshTrack.sol\":1561:1577  _producerAddress */\n      dup6\n        /* \"contracts/FreshTrack.sol\":1579:1591  _harvestDate */\n      dup6\n        /* \"contracts/FreshTrack.sol\":1494:1592  ProductHarvested(productCount, _productDescription, _producerName, _producerAddress, _harvestDate) */\n      mload(0x40)\n      tag_41\n      swap6\n      swap5\n      swap4\n      swap3\n      swap2\n      swap1\n      tag_42\n      jump\t// in\n    tag_41:\n      mload(0x40)\n      dup1\n      swap2\n      sub\n      swap1\n      log1\n        /* \"contracts/FreshTrack.sol\":976:1599  function harvestProduct(string memory _productDescription, string memory _producerName, address _producerAddress, uint256 _harvestDate) public {... */\n      pop\n      pop\n      pop\n      pop\n      jump\t// out\n        /* \"contracts/FreshTrack.sol\":1674:2362  function transferToDistributor(uint256 _productId, string memory _distributerName, address _distributerAddress, uint256 _prodToDistDate) public {... */\n    tag_16:\n        /* \"contracts/FreshTrack.sol\":1850:1862  productCount */\n      sload(0x01)\n        /* \"contracts/FreshTrack.sol\":1836:1846  _productId */\n      dup5\n        /* \"contracts/FreshTrack.sol\":1836:1862  _productId <= productCount */\n      gt\n      iszero\n        /* \"contracts/FreshTrack.sol\":1836:1880  _productId <= productCount && _productId > 0 */\n      dup1\n      iszero\n      tag_44\n      jumpi\n      pop\n        /* \"contracts/FreshTrack.sol\":1879:1880  0 */\n      0x00\n        /* \"contracts/FreshTrack.sol\":1866:1876  _productId */\n      dup5\n        /* \"contracts/FreshTrack.sol\":1866:1880  _productId > 0 */\n      gt\n        /* \"contracts/FreshTrack.sol\":1836:1880  _productId <= productCount && _productId > 0 */\n    tag_44:\n        /* \"contracts/FreshTrack.sol\":1828:1903  require(_productId <= productCount && _productId > 0, \"Invalid product ID\") */\n      tag_45\n      jumpi\n      mload(0x40)\n      0x08c379a000000000000000000000000000000000000000000000000000000000\n      dup2\n      mstore\n      0x04\n      add\n      tag_46\n      swap1\n      tag_47\n      jump\t// in\n    tag_46:\n      mload(0x40)\n      dup1\n      swap2\n      sub\n      swap1\n      revert\n    tag_45:\n        /* \"contracts/FreshTrack.sol\":1972:1973  0 */\n      0x00\n        /* \"contracts/FreshTrack.sol\":1921:1974  products[_productId].distributerAddress == address(0) */\n      0xffffffffffffffffffffffffffffffffffffffff\n      and\n        /* \"contracts/FreshTrack.sol\":1921:1929  products */\n      0x00\n        /* \"contracts/FreshTrack.sol\":1921:1941  products[_productId] */\n      dup1\n        /* \"contracts/FreshTrack.sol\":1930:1940  _productId */\n      dup7\n        /* \"contracts/FreshTrack.sol\":1921:1941  products[_productId] */\n      dup2\n      mstore\n      0x20\n      add\n      swap1\n      dup2\n      mstore\n      0x20\n      add\n      0x00\n      keccak256\n        /* \"contracts/FreshTrack.sol\":1921:1960  products[_productId].distributerAddress */\n      0x06\n      add\n      0x00\n      swap1\n      sload\n      swap1\n      0x0100\n      exp\n      swap1\n      div\n      0xffffffffffffffffffffffffffffffffffffffff\n      and\n        /* \"contracts/FreshTrack.sol\":1921:1974  products[_productId].distributerAddress == address(0) */\n      0xffffffffffffffffffffffffffffffffffffffff\n      and\n      eq\n        /* \"contracts/FreshTrack.sol\":1913:2006  require(products[_productId].distributerAddress == address(0), \"Product already transferred\") */\n      tag_48\n      jumpi\n      mload(0x40)\n      0x08c379a000000000000000000000000000000000000000000000000000000000\n      dup2\n      mstore\n      0x04\n      add\n      tag_49\n      swap1\n      tag_50\n      jump\t// in\n    tag_49:\n      mload(0x40)\n      dup1\n      swap2\n      sub\n      swap1\n      revert\n    tag_48:\n        /* \"contracts/FreshTrack.sol\":2056:2072  _distributerName */\n      dup3\n        /* \"contracts/FreshTrack.sol\":2017:2025  products */\n      0x00\n        /* \"contracts/FreshTrack.sol\":2017:2037  products[_productId] */\n      dup1\n        /* \"contracts/FreshTrack.sol\":2026:2036  _productId */\n      dup7\n        /* \"contracts/FreshTrack.sol\":2017:2037  products[_productId] */\n      dup2\n      mstore\n      0x20\n      add\n      swap1\n      dup2\n      mstore\n      0x20\n      add\n      0x00\n      keccak256\n        /* \"contracts/FreshTrack.sol\":2017:2053  products[_productId].distributerName */\n      0x05\n      add\n        /* \"contracts/FreshTrack.sol\":2017:2072  products[_productId].distributerName = _distributerName */\n      swap1\n      dup2\n      tag_51\n      swap2\n      swap1\n      tag_37\n      jump\t// in\n    tag_51:\n      pop\n        /* \"contracts/FreshTrack.sol\":2124:2143  _distributerAddress */\n      dup2\n        /* \"contracts/FreshTrack.sol\":2082:2090  products */\n      0x00\n        /* \"contracts/FreshTrack.sol\":2082:2102  products[_productId] */\n      dup1\n        /* \"contracts/FreshTrack.sol\":2091:2101  _productId */\n      dup7\n        /* \"contracts/FreshTrack.sol\":2082:2102  products[_productId] */\n      dup2\n      mstore\n      0x20\n      add\n      swap1\n      dup2\n      mstore\n      0x20\n      add\n      0x00\n      keccak256\n        /* \"contracts/FreshTrack.sol\":2082:2121  products[_productId].distributerAddress */\n      0x06\n      add\n      0x00\n        /* \"contracts/FreshTrack.sol\":2082:2143  products[_productId].distributerAddress = _distributerAddress */\n      0x0100\n      exp\n      dup2\n      sload\n      dup2\n      0xffffffffffffffffffffffffffffffffffffffff\n      mul\n      not\n      and\n      swap1\n      dup4\n      0xffffffffffffffffffffffffffffffffffffffff\n      and\n      mul\n      or\n      swap1\n      sstore\n      pop\n        /* \"contracts/FreshTrack.sol\":2191:2206  _prodToDistDate */\n      dup1\n        /* \"contracts/FreshTrack.sol\":2153:2161  products */\n      0x00\n        /* \"contracts/FreshTrack.sol\":2153:2173  products[_productId] */\n      dup1\n        /* \"contracts/FreshTrack.sol\":2162:2172  _productId */\n      dup7\n        /* \"contracts/FreshTrack.sol\":2153:2173  products[_productId] */\n      dup2\n      mstore\n      0x20\n      add\n      swap1\n      dup2\n      mstore\n      0x20\n      add\n      0x00\n      keccak256\n        /* \"contracts/FreshTrack.sol\":2153:2188  products[_productId].prodToDistDate */\n      0x07\n      add\n        /* \"contracts/FreshTrack.sol\":2153:2206  products[_productId].prodToDistDate = _prodToDistDate */\n      dup2\n      swap1\n      sstore\n      pop\n        /* \"contracts/FreshTrack.sol\":2222:2355  ProductTransferred(_productId, \"Producer\", \"Distributor\", products[_productId].producerAddress, _distributerAddress, _prodToDistDate) */\n      0xa34850b3494add08388e7c4ea0842b9fdfa48c1b7e7bcb0288c7678e8b27ce37\n        /* \"contracts/FreshTrack.sol\":2241:2251  _productId */\n      dup5\n        /* \"contracts/FreshTrack.sol\":2280:2288  products */\n      0x00\n        /* \"contracts/FreshTrack.sol\":2280:2300  products[_productId] */\n      dup1\n        /* \"contracts/FreshTrack.sol\":2289:2299  _productId */\n      dup8\n        /* \"contracts/FreshTrack.sol\":2280:2300  products[_productId] */\n      dup2\n      mstore\n      0x20\n      add\n      swap1\n      dup2\n      mstore\n      0x20\n      add\n      0x00\n      keccak256\n        /* \"contracts/FreshTrack.sol\":2280:2316  products[_productId].producerAddress */\n      0x03\n      add\n      0x00\n      swap1\n      sload\n      swap1\n      0x0100\n      exp\n      swap1\n      div\n      0xffffffffffffffffffffffffffffffffffffffff\n      and\n        /* \"contracts/FreshTrack.sol\":2318:2337  _distributerAddress */\n      dup5\n        /* \"contracts/FreshTrack.sol\":2339:2354  _prodToDistDate */\n      dup5\n        /* \"contracts/FreshTrack.sol\":2222:2355  ProductTransferred(_productId, \"Producer\", \"Distributor\", products[_productId].producerAddress, _distributerAddress, _prodToDistDate) */\n      mload(0x40)\n      tag_52\n      swap5\n      swap4\n      swap3\n      swap2\n      swap1\n      tag_53\n      jump\t// in\n    tag_52:\n      mload(0x40)\n      dup1\n      swap2\n      sub\n      swap1\n      log1\n        /* \"contracts/FreshTrack.sol\":1674:2362  function transferToDistributor(uint256 _productId, string memory _distributerName, address _distributerAddress, uint256 _prodToDistDate) public {... */\n      pop\n      pop\n      pop\n      pop\n      jump\t// out\n        /* \"contracts/FreshTrack.sol\":497:544  mapping(uint256 => FarmProduct) public products */\n    tag_20:\n      mstore(0x20, 0x00)\n      dup1\n      0x00\n      mstore\n      keccak256(0x00, 0x40)\n      0x00\n      swap2\n      pop\n      swap1\n      pop\n      dup1\n      0x00\n      add\n      sload\n      swap1\n      dup1\n      0x01\n      add\n      dup1\n      sload\n      tag_54\n      swap1\n      tag_55\n      jump\t// in\n    tag_54:\n      dup1\n      0x1f\n      add\n      0x20\n      dup1\n      swap2\n      div\n      mul\n      0x20\n      add\n      mload(0x40)\n      swap1\n      dup2\n      add\n      0x40\n      mstore\n      dup1\n      swap3\n      swap2\n      swap1\n      dup2\n      dup2\n      mstore\n      0x20\n      add\n      dup3\n      dup1\n      sload\n      tag_56\n      swap1\n      tag_55\n      jump\t// in\n    tag_56:\n      dup1\n      iszero\n      tag_57\n      jumpi\n      dup1\n      0x1f\n      lt\n      tag_58\n      jumpi\n      0x0100\n      dup1\n      dup4\n      sload\n      div\n      mul\n      dup4\n      mstore\n      swap2\n      0x20\n      add\n      swap2\n      jump(tag_57)\n    tag_58:\n      dup3\n      add\n      swap2\n      swap1\n      0x00\n      mstore\n      keccak256(0x00, 0x20)\n      swap1\n    tag_59:\n      dup2\n      sload\n      dup2\n      mstore\n      swap1\n      0x01\n      add\n      swap1\n      0x20\n      add\n      dup1\n      dup4\n      gt\n      tag_59\n      jumpi\n      dup3\n      swap1\n      sub\n      0x1f\n      and\n      dup3\n      add\n      swap2\n    tag_57:\n      pop\n      pop\n      pop\n      pop\n      pop\n      swap1\n      dup1\n      0x02\n      add\n      dup1\n      sload\n      tag_60\n      swap1\n      tag_55\n      jump\t// in\n    tag_60:\n      dup1\n      0x1f\n      add\n      0x20\n      dup1\n      swap2\n      div\n      mul\n      0x20\n      add\n      mload(0x40)\n      swap1\n      dup2\n      add\n      0x40\n      mstore\n      dup1\n      swap3\n      swap2\n      swap1\n      dup2\n      dup2\n      mstore\n      0x20\n      add\n      dup3\n      dup1\n      sload\n      tag_61\n      swap1\n      tag_55\n      jump\t// in\n    tag_61:\n      dup1\n      iszero\n      tag_62\n      jumpi\n      dup1\n      0x1f\n      lt\n      tag_63\n      jumpi\n      0x0100\n      dup1\n      dup4\n      sload\n      div\n      mul\n      dup4\n      mstore\n      swap2\n      0x20\n      add\n      swap2\n      jump(tag_62)\n    tag_63:\n      dup3\n      add\n      swap2\n      swap1\n      0x00\n      mstore\n      keccak256(0x00, 0x20)\n      swap1\n    tag_64:\n      dup2\n      sload\n      dup2\n      mstore\n      swap1\n      0x01\n      add\n      swap1\n      0x20\n      add\n      dup1\n      dup4\n      gt\n      tag_64\n      jumpi\n      dup3\n      swap1\n      sub\n      0x1f\n      and\n      dup3\n      add\n      swap2\n    tag_62:\n      pop\n      pop\n      pop\n      pop\n      pop\n      swap1\n      dup1\n      0x03\n      add\n      0x00\n      swap1\n      sload\n      swap1\n      0x0100\n      exp\n      swap1\n      div\n      0xffffffffffffffffffffffffffffffffffffffff\n      and\n      swap1\n      dup1\n      0x04\n      add\n      sload\n      swap1\n      dup1\n      0x05\n      add\n      dup1\n      sload\n      tag_65\n      swap1\n      tag_55\n      jump\t// in\n    tag_65:\n      dup1\n      0x1f\n      add\n      0x20\n      dup1\n      swap2\n      div\n      mul\n      0x20\n      add\n      mload(0x40)\n      swap1\n      dup2\n      add\n      0x40\n      mstore\n      dup1\n      swap3\n      swap2\n      swap1\n      dup2\n      dup2\n      mstore\n      0x20\n      add\n      dup3\n      dup1\n      sload\n      tag_66\n      swap1\n      tag_55\n      jump\t// in\n    tag_66:\n      dup1\n      iszero\n      tag_67\n      jumpi\n      dup1\n      0x1f\n      lt\n      tag_68\n      jumpi\n      0x0100\n      dup1\n      dup4\n      sload\n      div\n      mul\n      dup4\n      mstore\n      swap2\n      0x20\n      add\n      swap2\n      jump(tag_67)\n    tag_68:\n      dup3\n      add\n      swap2\n      swap1\n      0x00\n      mstore\n      keccak256(0x00, 0x20)\n      swap1\n    tag_69:\n      dup2\n      sload\n      dup2\n      mstore\n      swap1\n      0x01\n      add\n      swap1\n      0x20\n      add\n      dup1\n      dup4\n      gt\n      tag_69\n      jumpi\n      dup3\n      swap1\n      sub\n      0x1f\n      and\n      dup3\n      add\n      swap2\n    tag_67:\n      pop\n      pop\n      pop\n      pop\n      pop\n      swap1\n      dup1\n      0x06\n      add\n      0x00\n      swap1\n      sload\n      swap1\n      0x0100\n      exp\n      swap1\n      div\n      0xffffffffffffffffffffffffffffffffffffffff\n      and\n      swap1\n      dup1\n      0x07\n      add\n      sload\n      swap1\n      dup1\n      0x08\n      add\n      dup1\n      sload\n      tag_70\n      swap1\n      tag_55\n      jump\t// in\n    tag_70:\n      dup1\n      0x1f\n      add\n      0x20\n      dup1\n      swap2\n      div\n      mul\n      0x20\n      add\n      mload(0x40)\n      swap1\n      dup2\n      add\n      0x40\n      mstore\n      dup1\n      swap3\n      swap2\n      swap1\n      dup2\n      dup2\n      mstore\n      0x20\n      add\n      dup3\n      dup1\n      sload\n      tag_71\n      swap1\n      tag_55\n      jump\t// in\n    tag_71:\n      dup1\n      iszero\n      tag_72\n      jumpi\n      dup1\n      0x1f\n      lt\n      tag_73\n      jumpi\n      0x0100\n      dup1\n      dup4\n      sload\n      div\n      mul\n      dup4\n      mstore\n      swap2\n      0x20\n      add\n      swap2\n      jump(tag_72)\n    tag_73:\n      dup3\n      add\n      swap2\n      swap1\n      0x00\n      mstore\n      keccak256(0x00, 0x20)\n      swap1\n    tag_74:\n      dup2\n      sload\n      dup2\n      mstore\n      swap1\n      0x01\n      add\n      swap1\n      0x20\n      add\n      dup1\n      dup4\n      gt\n      tag_74\n      jumpi\n      dup3\n      swap1\n      sub\n      0x1f\n      and\n      dup3\n      add\n      swap2\n    tag_72:\n      pop\n      pop\n      pop\n      pop\n      pop\n      swap1\n      dup1\n      0x09\n      add\n      0x00\n      swap1\n      sload\n      swap1\n      0x0100\n      exp\n      swap1\n      div\n      0xffffffffffffffffffffffffffffffffffffffff\n      and\n      swap1\n      dup1\n      0x0a\n      add\n      sload\n      swap1\n      dup1\n      0x0b\n      add\n      0x00\n      swap1\n      sload\n      swap1\n      0x0100\n      exp\n      swap1\n      div\n      0xff\n      and\n      swap1\n      pop\n      dup13\n      jump\t// out\n        /* \"contracts/FreshTrack.sol\":2437:3101  function transferToRetailer(uint256 _productId, string memory _retailerName, address _retailerAddress, uint256 _distToRetaDate) public {... */\n    tag_25:\n        /* \"contracts/FreshTrack.sol\":2604:2616  productCount */\n      sload(0x01)\n        /* \"contracts/FreshTrack.sol\":2590:2600  _productId */\n      dup5\n        /* \"contracts/FreshTrack.sol\":2590:2616  _productId <= productCount */\n      gt\n      iszero\n        /* \"contracts/FreshTrack.sol\":2590:2634  _productId <= productCount && _productId > 0 */\n      dup1\n      iszero\n      tag_76\n      jumpi\n      pop\n        /* \"contracts/FreshTrack.sol\":2633:2634  0 */\n      0x00\n        /* \"contracts/FreshTrack.sol\":2620:2630  _productId */\n      dup5\n        /* \"contracts/FreshTrack.sol\":2620:2634  _productId > 0 */\n      gt\n        /* \"contracts/FreshTrack.sol\":2590:2634  _productId <= productCount && _productId > 0 */\n    tag_76:\n        /* \"contracts/FreshTrack.sol\":2582:2657  require(_productId <= productCount && _productId > 0, \"Invalid product ID\") */\n      tag_77\n      jumpi\n      mload(0x40)\n      0x08c379a000000000000000000000000000000000000000000000000000000000\n      dup2\n      mstore\n      0x04\n      add\n      tag_78\n      swap1\n      tag_47\n      jump\t// in\n    tag_78:\n      mload(0x40)\n      dup1\n      swap2\n      sub\n      swap1\n      revert\n    tag_77:\n        /* \"contracts/FreshTrack.sol\":2723:2724  0 */\n      0x00\n        /* \"contracts/FreshTrack.sol\":2675:2725  products[_productId].retailerAddress == address(0) */\n      0xffffffffffffffffffffffffffffffffffffffff\n      and\n        /* \"contracts/FreshTrack.sol\":2675:2683  products */\n      0x00\n        /* \"contracts/FreshTrack.sol\":2675:2695  products[_productId] */\n      dup1\n        /* \"contracts/FreshTrack.sol\":2684:2694  _productId */\n      dup7\n        /* \"contracts/FreshTrack.sol\":2675:2695  products[_productId] */\n      dup2\n      mstore\n      0x20\n      add\n      swap1\n      dup2\n      mstore\n      0x20\n      add\n      0x00\n      keccak256\n        /* \"contracts/FreshTrack.sol\":2675:2711  products[_productId].retailerAddress */\n      0x09\n      add\n      0x00\n      swap1\n      sload\n      swap1\n      0x0100\n      exp\n      swap1\n      div\n      0xffffffffffffffffffffffffffffffffffffffff\n      and\n        /* \"contracts/FreshTrack.sol\":2675:2725  products[_productId].retailerAddress == address(0) */\n      0xffffffffffffffffffffffffffffffffffffffff\n      and\n      eq\n        /* \"contracts/FreshTrack.sol\":2667:2757  require(products[_productId].retailerAddress == address(0), \"Product already transferred\") */\n      tag_79\n      jumpi\n      mload(0x40)\n      0x08c379a000000000000000000000000000000000000000000000000000000000\n      dup2\n      mstore\n      0x04\n      add\n      tag_80\n      swap1\n      tag_50\n      jump\t// in\n    tag_80:\n      mload(0x40)\n      dup1\n      swap2\n      sub\n      swap1\n      revert\n    tag_79:\n        /* \"contracts/FreshTrack.sol\":2804:2817  _retailerName */\n      dup3\n        /* \"contracts/FreshTrack.sol\":2768:2776  products */\n      0x00\n        /* \"contracts/FreshTrack.sol\":2768:2788  products[_productId] */\n      dup1\n        /* \"contracts/FreshTrack.sol\":2777:2787  _productId */\n      dup7\n        /* \"contracts/FreshTrack.sol\":2768:2788  products[_productId] */\n      dup2\n      mstore\n      0x20\n      add\n      swap1\n      dup2\n      mstore\n      0x20\n      add\n      0x00\n      keccak256\n        /* \"contracts/FreshTrack.sol\":2768:2801  products[_productId].retailerName */\n      0x08\n      add\n        /* \"contracts/FreshTrack.sol\":2768:2817  products[_productId].retailerName = _retailerName */\n      swap1\n      dup2\n      tag_81\n      swap2\n      swap1\n      tag_37\n      jump\t// in\n    tag_81:\n      pop\n        /* \"contracts/FreshTrack.sol\":2866:2882  _retailerAddress */\n      dup2\n        /* \"contracts/FreshTrack.sol\":2827:2835  products */\n      0x00\n        /* \"contracts/FreshTrack.sol\":2827:2847  products[_productId] */\n      dup1\n        /* \"contracts/FreshTrack.sol\":2836:2846  _productId */\n      dup7\n        /* \"contracts/FreshTrack.sol\":2827:2847  products[_productId] */\n      dup2\n      mstore\n      0x20\n      add\n      swap1\n      dup2\n      mstore\n      0x20\n      add\n      0x00\n      keccak256\n        /* \"contracts/FreshTrack.sol\":2827:2863  products[_productId].retailerAddress */\n      0x09\n      add\n      0x00\n        /* \"contracts/FreshTrack.sol\":2827:2882  products[_productId].retailerAddress = _retailerAddress */\n      0x0100\n      exp\n      dup2\n      sload\n      dup2\n      0xffffffffffffffffffffffffffffffffffffffff\n      mul\n      not\n      and\n      swap1\n      dup4\n      0xffffffffffffffffffffffffffffffffffffffff\n      and\n      mul\n      or\n      swap1\n      sstore\n      pop\n        /* \"contracts/FreshTrack.sol\":2930:2945  _distToRetaDate */\n      dup1\n        /* \"contracts/FreshTrack.sol\":2892:2900  products */\n      0x00\n        /* \"contracts/FreshTrack.sol\":2892:2912  products[_productId] */\n      dup1\n        /* \"contracts/FreshTrack.sol\":2901:2911  _productId */\n      dup7\n        /* \"contracts/FreshTrack.sol\":2892:2912  products[_productId] */\n      dup2\n      mstore\n      0x20\n      add\n      swap1\n      dup2\n      mstore\n      0x20\n      add\n      0x00\n      keccak256\n        /* \"contracts/FreshTrack.sol\":2892:2927  products[_productId].distToRetaDate */\n      0x0a\n      add\n        /* \"contracts/FreshTrack.sol\":2892:2945  products[_productId].distToRetaDate = _distToRetaDate */\n      dup2\n      swap1\n      sstore\n      pop\n        /* \"contracts/FreshTrack.sol\":2961:3094  ProductTransferred(_productId, \"Distributor\", \"Retailer\", products[_productId].distributerAddress, _retailerAddress, _distToRetaDate) */\n      0xa34850b3494add08388e7c4ea0842b9fdfa48c1b7e7bcb0288c7678e8b27ce37\n        /* \"contracts/FreshTrack.sol\":2980:2990  _productId */\n      dup5\n        /* \"contracts/FreshTrack.sol\":3019:3027  products */\n      0x00\n        /* \"contracts/FreshTrack.sol\":3019:3039  products[_productId] */\n      dup1\n        /* \"contracts/FreshTrack.sol\":3028:3038  _productId */\n      dup8\n        /* \"contracts/FreshTrack.sol\":3019:3039  products[_productId] */\n      dup2\n      mstore\n      0x20\n      add\n      swap1\n      dup2\n      mstore\n      0x20\n      add\n      0x00\n      keccak256\n        /* \"contracts/FreshTrack.sol\":3019:3058  products[_productId].distributerAddress */\n      0x06\n      add\n      0x00\n      swap1\n      sload\n      swap1\n      0x0100\n      exp\n      swap1\n      div\n      0xffffffffffffffffffffffffffffffffffffffff\n      and\n        /* \"contracts/FreshTrack.sol\":3060:3076  _retailerAddress */\n      dup5\n        /* \"contracts/FreshTrack.sol\":3078:3093  _distToRetaDate */\n      dup5\n        /* \"contracts/FreshTrack.sol\":2961:3094  ProductTransferred(_productId, \"Distributor\", \"Retailer\", products[_productId].distributerAddress, _retailerAddress, _distToRetaDate) */\n      mload(0x40)\n      tag_82\n      swap5\n      swap4\n      swap3\n      swap2\n      swap1\n      tag_83\n      jump\t// in\n    tag_82:\n      mload(0x40)\n      dup1\n      swap2\n      sub\n      swap1\n      log1\n        /* \"contracts/FreshTrack.sol\":2437:3101  function transferToRetailer(uint256 _productId, string memory _retailerName, address _retailerAddress, uint256 _distToRetaDate) public {... */\n      pop\n      pop\n      pop\n      pop\n      jump\t// out\n        /* \"contracts/FreshTrack.sol\":3164:3474  function sellToConsumer(uint256 _productId) public {... */\n    tag_28:\n        /* \"contracts/FreshTrack.sol\":3247:3259  productCount */\n      sload(0x01)\n        /* \"contracts/FreshTrack.sol\":3233:3243  _productId */\n      dup2\n        /* \"contracts/FreshTrack.sol\":3233:3259  _productId <= productCount */\n      gt\n      iszero\n        /* \"contracts/FreshTrack.sol\":3233:3277  _productId <= productCount && _productId > 0 */\n      dup1\n      iszero\n      tag_85\n      jumpi\n      pop\n        /* \"contracts/FreshTrack.sol\":3276:3277  0 */\n      0x00\n        /* \"contracts/FreshTrack.sol\":3263:3273  _productId */\n      dup2\n        /* \"contracts/FreshTrack.sol\":3263:3277  _productId > 0 */\n      gt\n        /* \"contracts/FreshTrack.sol\":3233:3277  _productId <= productCount && _productId > 0 */\n    tag_85:\n        /* \"contracts/FreshTrack.sol\":3225:3300  require(_productId <= productCount && _productId > 0, \"Invalid product ID\") */\n      tag_86\n      jumpi\n      mload(0x40)\n      0x08c379a000000000000000000000000000000000000000000000000000000000\n      dup2\n      mstore\n      0x04\n      add\n      tag_87\n      swap1\n      tag_47\n      jump\t// in\n    tag_87:\n      mload(0x40)\n      dup1\n      swap2\n      sub\n      swap1\n      revert\n    tag_86:\n        /* \"contracts/FreshTrack.sol\":3319:3327  products */\n      0x00\n        /* \"contracts/FreshTrack.sol\":3319:3339  products[_productId] */\n      dup1\n        /* \"contracts/FreshTrack.sol\":3328:3338  _productId */\n      dup3\n        /* \"contracts/FreshTrack.sol\":3319:3339  products[_productId] */\n      dup2\n      mstore\n      0x20\n      add\n      swap1\n      dup2\n      mstore\n      0x20\n      add\n      0x00\n      keccak256\n        /* \"contracts/FreshTrack.sol\":3319:3346  products[_productId].isSold */\n      0x0b\n      add\n      0x00\n      swap1\n      sload\n      swap1\n      0x0100\n      exp\n      swap1\n      div\n      0xff\n      and\n        /* \"contracts/FreshTrack.sol\":3318:3346  !products[_productId].isSold */\n      iszero\n        /* \"contracts/FreshTrack.sol\":3310:3371  require(!products[_productId].isSold, \"Product already sold\") */\n      tag_88\n      jumpi\n      mload(0x40)\n      0x08c379a000000000000000000000000000000000000000000000000000000000\n      dup2\n      mstore\n      0x04\n      add\n      tag_89\n      swap1\n      tag_90\n      jump\t// in\n    tag_89:\n      mload(0x40)\n      dup1\n      swap2\n      sub\n      swap1\n      revert\n    tag_88:\n        /* \"contracts/FreshTrack.sol\":3412:3416  true */\n      0x01\n        /* \"contracts/FreshTrack.sol\":3382:3390  products */\n      0x00\n        /* \"contracts/FreshTrack.sol\":3382:3402  products[_productId] */\n      dup1\n        /* \"contracts/FreshTrack.sol\":3391:3401  _productId */\n      dup4\n        /* \"contracts/FreshTrack.sol\":3382:3402  products[_productId] */\n      dup2\n      mstore\n      0x20\n      add\n      swap1\n      dup2\n      mstore\n      0x20\n      add\n      0x00\n      keccak256\n        /* \"contracts/FreshTrack.sol\":3382:3409  products[_productId].isSold */\n      0x0b\n      add\n      0x00\n        /* \"contracts/FreshTrack.sol\":3382:3416  products[_productId].isSold = true */\n      0x0100\n      exp\n      dup2\n      sload\n      dup2\n      0xff\n      mul\n      not\n      and\n      swap1\n      dup4\n      iszero\n      iszero\n      mul\n      or\n      swap1\n      sstore\n      pop\n        /* \"contracts/FreshTrack.sol\":3432:3467  ProductSold(_productId, msg.sender) */\n      0xbdb79f0b777669cf4d01754a6d6b461bdd8d0f18b57c036e7d4bf3a567f33784\n        /* \"contracts/FreshTrack.sol\":3444:3454  _productId */\n      dup2\n        /* \"contracts/FreshTrack.sol\":3456:3466  msg.sender */\n      caller\n        /* \"contracts/FreshTrack.sol\":3432:3467  ProductSold(_productId, msg.sender) */\n      mload(0x40)\n      tag_91\n      swap3\n      swap2\n      swap1\n      tag_92\n      jump\t// in\n    tag_91:\n      mload(0x40)\n      dup1\n      swap2\n      sub\n      swap1\n      log1\n        /* \"contracts/FreshTrack.sol\":3164:3474  function sellToConsumer(uint256 _productId) public {... */\n      pop\n      jump\t// out\n        /* \"contracts/FreshTrack.sol\":550:577  uint256 public productCount */\n    tag_30:\n      sload(0x01)\n      dup2\n      jump\t// out\n        /* \"#utility.yul\":7:82   */\n    tag_93:\n        /* \"#utility.yul\":40:46   */\n      0x00\n        /* \"#utility.yul\":73:75   */\n      0x40\n        /* \"#utility.yul\":67:76   */\n      mload\n        /* \"#utility.yul\":57:76   */\n      swap1\n      pop\n        /* \"#utility.yul\":7:82   */\n      swap1\n      jump\t// out\n        /* \"#utility.yul\":88:205   */\n    tag_94:\n        /* \"#utility.yul\":197:198   */\n      0x00\n        /* \"#utility.yul\":194:195   */\n      dup1\n        /* \"#utility.yul\":187:199   */\n      revert\n        /* \"#utility.yul\":211:328   */\n    tag_95:\n        /* \"#utility.yul\":320:321   */\n      0x00\n        /* \"#utility.yul\":317:318   */\n      dup1\n        /* \"#utility.yul\":310:322   */\n      revert\n        /* \"#utility.yul\":334:451   */\n    tag_96:\n        /* \"#utility.yul\":443:444   */\n      0x00\n        /* \"#utility.yul\":440:441   */\n      dup1\n        /* \"#utility.yul\":433:445   */\n      revert\n        /* \"#utility.yul\":457:574   */\n    tag_97:\n        /* \"#utility.yul\":566:567   */\n      0x00\n        /* \"#utility.yul\":563:564   */\n      dup1\n        /* \"#utility.yul\":556:568   */\n      revert\n        /* \"#utility.yul\":580:682   */\n    tag_98:\n        /* \"#utility.yul\":621:627   */\n      0x00\n        /* \"#utility.yul\":672:674   */\n      0x1f\n        /* \"#utility.yul\":668:675   */\n      not\n        /* \"#utility.yul\":663:665   */\n      0x1f\n        /* \"#utility.yul\":656:661   */\n      dup4\n        /* \"#utility.yul\":652:666   */\n      add\n        /* \"#utility.yul\":648:676   */\n      and\n        /* \"#utility.yul\":638:676   */\n      swap1\n      pop\n        /* \"#utility.yul\":580:682   */\n      swap2\n      swap1\n      pop\n      jump\t// out\n        /* \"#utility.yul\":688:868   */\n    tag_99:\n        /* \"#utility.yul\":736:813   */\n      0x4e487b7100000000000000000000000000000000000000000000000000000000\n        /* \"#utility.yul\":733:734   */\n      0x00\n        /* \"#utility.yul\":726:814   */\n      mstore\n        /* \"#utility.yul\":833:837   */\n      0x41\n        /* \"#utility.yul\":830:831   */\n      0x04\n        /* \"#utility.yul\":823:838   */\n      mstore\n        /* \"#utility.yul\":857:861   */\n      0x24\n        /* \"#utility.yul\":854:855   */\n      0x00\n        /* \"#utility.yul\":847:862   */\n      revert\n        /* \"#utility.yul\":874:1155   */\n    tag_100:\n        /* \"#utility.yul\":957:984   */\n      tag_159\n        /* \"#utility.yul\":979:983   */\n      dup3\n        /* \"#utility.yul\":957:984   */\n      tag_98\n      jump\t// in\n    tag_159:\n        /* \"#utility.yul\":949:955   */\n      dup2\n        /* \"#utility.yul\":945:985   */\n      add\n        /* \"#utility.yul\":1087:1093   */\n      dup2\n        /* \"#utility.yul\":1075:1085   */\n      dup2\n        /* \"#utility.yul\":1072:1094   */\n      lt\n        /* \"#utility.yul\":1051:1069   */\n      0xffffffffffffffff\n        /* \"#utility.yul\":1039:1049   */\n      dup3\n        /* \"#utility.yul\":1036:1070   */\n      gt\n        /* \"#utility.yul\":1033:1095   */\n      or\n        /* \"#utility.yul\":1030:1118   */\n      iszero\n      tag_160\n      jumpi\n        /* \"#utility.yul\":1098:1116   */\n      tag_161\n      tag_99\n      jump\t// in\n    tag_161:\n        /* \"#utility.yul\":1030:1118   */\n    tag_160:\n        /* \"#utility.yul\":1138:1148   */\n      dup1\n        /* \"#utility.yul\":1134:1136   */\n      0x40\n        /* \"#utility.yul\":1127:1149   */\n      mstore\n        /* \"#utility.yul\":917:1155   */\n      pop\n        /* \"#utility.yul\":874:1155   */\n      pop\n      pop\n      jump\t// out\n        /* \"#utility.yul\":1161:1290   */\n    tag_101:\n        /* \"#utility.yul\":1195:1201   */\n      0x00\n        /* \"#utility.yul\":1222:1242   */\n      tag_163\n      tag_93\n      jump\t// in\n    tag_163:\n        /* \"#utility.yul\":1212:1242   */\n      swap1\n      pop\n        /* \"#utility.yul\":1251:1284   */\n      tag_164\n        /* \"#utility.yul\":1279:1283   */\n      dup3\n        /* \"#utility.yul\":1271:1277   */\n      dup3\n        /* \"#utility.yul\":1251:1284   */\n      tag_100\n      jump\t// in\n    tag_164:\n        /* \"#utility.yul\":1161:1290   */\n      swap2\n      swap1\n      pop\n      jump\t// out\n        /* \"#utility.yul\":1296:1604   */\n    tag_102:\n        /* \"#utility.yul\":1358:1362   */\n      0x00\n        /* \"#utility.yul\":1448:1466   */\n      0xffffffffffffffff\n        /* \"#utility.yul\":1440:1446   */\n      dup3\n        /* \"#utility.yul\":1437:1467   */\n      gt\n        /* \"#utility.yul\":1434:1490   */\n      iszero\n      tag_166\n      jumpi\n        /* \"#utility.yul\":1470:1488   */\n      tag_167\n      tag_99\n      jump\t// in\n    tag_167:\n        /* \"#utility.yul\":1434:1490   */\n    tag_166:\n        /* \"#utility.yul\":1508:1537   */\n      tag_168\n        /* \"#utility.yul\":1530:1536   */\n      dup3\n        /* \"#utility.yul\":1508:1537   */\n      tag_98\n      jump\t// in\n    tag_168:\n        /* \"#utility.yul\":1500:1537   */\n      swap1\n      pop\n        /* \"#utility.yul\":1592:1596   */\n      0x20\n        /* \"#utility.yul\":1586:1590   */\n      dup2\n        /* \"#utility.yul\":1582:1597   */\n      add\n        /* \"#utility.yul\":1574:1597   */\n      swap1\n      pop\n        /* \"#utility.yul\":1296:1604   */\n      swap2\n      swap1\n      pop\n      jump\t// out\n        /* \"#utility.yul\":1610:1758   */\n    tag_103:\n        /* \"#utility.yul\":1708:1714   */\n      dup3\n        /* \"#utility.yul\":1703:1706   */\n      dup2\n        /* \"#utility.yul\":1698:1701   */\n      dup4\n        /* \"#utility.yul\":1685:1715   */\n      calldatacopy\n        /* \"#utility.yul\":1749:1750   */\n      0x00\n        /* \"#utility.yul\":1740:1746   */\n      dup4\n        /* \"#utility.yul\":1735:1738   */\n      dup4\n        /* \"#utility.yul\":1731:1747   */\n      add\n        /* \"#utility.yul\":1724:1751   */\n      mstore\n        /* \"#utility.yul\":1610:1758   */\n      pop\n      pop\n      pop\n      jump\t// out\n        /* \"#utility.yul\":1764:2189   */\n    tag_104:\n        /* \"#utility.yul\":1842:1847   */\n      0x00\n        /* \"#utility.yul\":1867:1933   */\n      tag_171\n        /* \"#utility.yul\":1883:1932   */\n      tag_172\n        /* \"#utility.yul\":1925:1931   */\n      dup5\n        /* \"#utility.yul\":1883:1932   */\n      tag_102\n      jump\t// in\n    tag_172:\n        /* \"#utility.yul\":1867:1933   */\n      tag_101\n      jump\t// in\n    tag_171:\n        /* \"#utility.yul\":1858:1933   */\n      swap1\n      pop\n        /* \"#utility.yul\":1956:1962   */\n      dup3\n        /* \"#utility.yul\":1949:1954   */\n      dup2\n        /* \"#utility.yul\":1942:1963   */\n      mstore\n        /* \"#utility.yul\":1994:1998   */\n      0x20\n        /* \"#utility.yul\":1987:1992   */\n      dup2\n        /* \"#utility.yul\":1983:1999   */\n      add\n        /* \"#utility.yul\":2032:2035   */\n      dup5\n        /* \"#utility.yul\":2023:2029   */\n      dup5\n        /* \"#utility.yul\":2018:2021   */\n      dup5\n        /* \"#utility.yul\":2014:2030   */\n      add\n        /* \"#utility.yul\":2011:2036   */\n      gt\n        /* \"#utility.yul\":2008:2120   */\n      iszero\n      tag_173\n      jumpi\n        /* \"#utility.yul\":2039:2118   */\n      tag_174\n      tag_97\n      jump\t// in\n    tag_174:\n        /* \"#utility.yul\":2008:2120   */\n    tag_173:\n        /* \"#utility.yul\":2129:2183   */\n      tag_175\n        /* \"#utility.yul\":2176:2182   */\n      dup5\n        /* \"#utility.yul\":2171:2174   */\n      dup3\n        /* \"#utility.yul\":2166:2169   */\n      dup6\n        /* \"#utility.yul\":2129:2183   */\n      tag_103\n      jump\t// in\n    tag_175:\n        /* \"#utility.yul\":1848:2189   */\n      pop\n        /* \"#utility.yul\":1764:2189   */\n      swap4\n      swap3\n      pop\n      pop\n      pop\n      jump\t// out\n        /* \"#utility.yul\":2209:2549   */\n    tag_105:\n        /* \"#utility.yul\":2265:2270   */\n      0x00\n        /* \"#utility.yul\":2314:2317   */\n      dup3\n        /* \"#utility.yul\":2307:2311   */\n      0x1f\n        /* \"#utility.yul\":2299:2305   */\n      dup4\n        /* \"#utility.yul\":2295:2312   */\n      add\n        /* \"#utility.yul\":2291:2318   */\n      slt\n        /* \"#utility.yul\":2281:2403   */\n      tag_177\n      jumpi\n        /* \"#utility.yul\":2322:2401   */\n      tag_178\n      tag_96\n      jump\t// in\n    tag_178:\n        /* \"#utility.yul\":2281:2403   */\n    tag_177:\n        /* \"#utility.yul\":2439:2445   */\n      dup2\n        /* \"#utility.yul\":2426:2446   */\n      calldataload\n        /* \"#utility.yul\":2464:2543   */\n      tag_179\n        /* \"#utility.yul\":2539:2542   */\n      dup5\n        /* \"#utility.yul\":2531:2537   */\n      dup3\n        /* \"#utility.yul\":2524:2528   */\n      0x20\n        /* \"#utility.yul\":2516:2522   */\n      dup7\n        /* \"#utility.yul\":2512:2529   */\n      add\n        /* \"#utility.yul\":2464:2543   */\n      tag_104\n      jump\t// in\n    tag_179:\n        /* \"#utility.yul\":2455:2543   */\n      swap2\n      pop\n        /* \"#utility.yul\":2271:2549   */\n      pop\n        /* \"#utility.yul\":2209:2549   */\n      swap3\n      swap2\n      pop\n      pop\n      jump\t// out\n        /* \"#utility.yul\":2555:2681   */\n    tag_106:\n        /* \"#utility.yul\":2592:2599   */\n      0x00\n        /* \"#utility.yul\":2632:2674   */\n      0xffffffffffffffffffffffffffffffffffffffff\n        /* \"#utility.yul\":2625:2630   */\n      dup3\n        /* \"#utility.yul\":2621:2675   */\n      and\n        /* \"#utility.yul\":2610:2675   */\n      swap1\n      pop\n        /* \"#utility.yul\":2555:2681   */\n      swap2\n      swap1\n      pop\n      jump\t// out\n        /* \"#utility.yul\":2687:2783   */\n    tag_107:\n        /* \"#utility.yul\":2724:2731   */\n      0x00\n        /* \"#utility.yul\":2753:2777   */\n      tag_182\n        /* \"#utility.yul\":2771:2776   */\n      dup3\n        /* \"#utility.yul\":2753:2777   */\n      tag_106\n      jump\t// in\n    tag_182:\n        /* \"#utility.yul\":2742:2777   */\n      swap1\n      pop\n        /* \"#utility.yul\":2687:2783   */\n      swap2\n      swap1\n      pop\n      jump\t// out\n        /* \"#utility.yul\":2789:2911   */\n    tag_108:\n        /* \"#utility.yul\":2862:2886   */\n      tag_184\n        /* \"#utility.yul\":2880:2885   */\n      dup2\n        /* \"#utility.yul\":2862:2886   */\n      tag_107\n      jump\t// in\n    tag_184:\n        /* \"#utility.yul\":2855:2860   */\n      dup2\n        /* \"#utility.yul\":2852:2887   */\n      eq\n        /* \"#utility.yul\":2842:2905   */\n      tag_185\n      jumpi\n        /* \"#utility.yul\":2901:2902   */\n      0x00\n        /* \"#utility.yul\":2898:2899   */\n      dup1\n        /* \"#utility.yul\":2891:2903   */\n      revert\n        /* \"#utility.yul\":2842:2905   */\n    tag_185:\n        /* \"#utility.yul\":2789:2911   */\n      pop\n      jump\t// out\n        /* \"#utility.yul\":2917:3056   */\n    tag_109:\n        /* \"#utility.yul\":2963:2968   */\n      0x00\n        /* \"#utility.yul\":3001:3007   */\n      dup2\n        /* \"#utility.yul\":2988:3008   */\n      calldataload\n        /* \"#utility.yul\":2979:3008   */\n      swap1\n      pop\n        /* \"#utility.yul\":3017:3050   */\n      tag_187\n        /* \"#utility.yul\":3044:3049   */\n      dup2\n        /* \"#utility.yul\":3017:3050   */\n      tag_108\n      jump\t// in\n    tag_187:\n        /* \"#utility.yul\":2917:3056   */\n      swap3\n      swap2\n      pop\n      pop\n      jump\t// out\n        /* \"#utility.yul\":3062:3139   */\n    tag_110:\n        /* \"#utility.yul\":3099:3106   */\n      0x00\n        /* \"#utility.yul\":3128:3133   */\n      dup2\n        /* \"#utility.yul\":3117:3133   */\n      swap1\n      pop\n        /* \"#utility.yul\":3062:3139   */\n      swap2\n      swap1\n      pop\n      jump\t// out\n        /* \"#utility.yul\":3145:3267   */\n    tag_111:\n        /* \"#utility.yul\":3218:3242   */\n      tag_190\n        /* \"#utility.yul\":3236:3241   */\n      dup2\n        /* \"#utility.yul\":3218:3242   */\n      tag_110\n      jump\t// in\n    tag_190:\n        /* \"#utility.yul\":3211:3216   */\n      dup2\n        /* \"#utility.yul\":3208:3243   */\n      eq\n        /* \"#utility.yul\":3198:3261   */\n      tag_191\n      jumpi\n        /* \"#utility.yul\":3257:3258   */\n      0x00\n        /* \"#utility.yul\":3254:3255   */\n      dup1\n        /* \"#utility.yul\":3247:3259   */\n      revert\n        /* \"#utility.yul\":3198:3261   */\n    tag_191:\n        /* \"#utility.yul\":3145:3267   */\n      pop\n      jump\t// out\n        /* \"#utility.yul\":3273:3412   */\n    tag_112:\n        /* \"#utility.yul\":3319:3324   */\n      0x00\n        /* \"#utility.yul\":3357:3363   */\n      dup2\n        /* \"#utility.yul\":3344:3364   */\n      calldataload\n        /* \"#utility.yul\":3335:3364   */\n      swap1\n      pop\n        /* \"#utility.yul\":3373:3406   */\n      tag_193\n        /* \"#utility.yul\":3400:3405   */\n      dup2\n        /* \"#utility.yul\":3373:3406   */\n      tag_111\n      jump\t// in\n    tag_193:\n        /* \"#utility.yul\":3273:3412   */\n      swap3\n      swap2\n      pop\n      pop\n      jump\t// out\n        /* \"#utility.yul\":3418:4543   */\n    tag_11:\n        /* \"#utility.yul\":3524:3530   */\n      0x00\n        /* \"#utility.yul\":3532:3538   */\n      dup1\n        /* \"#utility.yul\":3540:3546   */\n      0x00\n        /* \"#utility.yul\":3548:3554   */\n      dup1\n        /* \"#utility.yul\":3597:3600   */\n      0x80\n        /* \"#utility.yul\":3585:3594   */\n      dup6\n        /* \"#utility.yul\":3576:3583   */\n      dup8\n        /* \"#utility.yul\":3572:3595   */\n      sub\n        /* \"#utility.yul\":3568:3601   */\n      slt\n        /* \"#utility.yul\":3565:3685   */\n      iszero\n      tag_195\n      jumpi\n        /* \"#utility.yul\":3604:3683   */\n      tag_196\n      tag_94\n      jump\t// in\n    tag_196:\n        /* \"#utility.yul\":3565:3685   */\n    tag_195:\n        /* \"#utility.yul\":3752:3753   */\n      0x00\n        /* \"#utility.yul\":3741:3750   */\n      dup6\n        /* \"#utility.yul\":3737:3754   */\n      add\n        /* \"#utility.yul\":3724:3755   */\n      calldataload\n        /* \"#utility.yul\":3782:3800   */\n      0xffffffffffffffff\n        /* \"#utility.yul\":3774:3780   */\n      dup2\n        /* \"#utility.yul\":3771:3801   */\n      gt\n        /* \"#utility.yul\":3768:3885   */\n      iszero\n      tag_197\n      jumpi\n        /* \"#utility.yul\":3804:3883   */\n      tag_198\n      tag_95\n      jump\t// in\n    tag_198:\n        /* \"#utility.yul\":3768:3885   */\n    tag_197:\n        /* \"#utility.yul\":3909:3972   */\n      tag_199\n        /* \"#utility.yul\":3964:3971   */\n      dup8\n        /* \"#utility.yul\":3955:3961   */\n      dup3\n        /* \"#utility.yul\":3944:3953   */\n      dup9\n        /* \"#utility.yul\":3940:3962   */\n      add\n        /* \"#utility.yul\":3909:3972   */\n      tag_105\n      jump\t// in\n    tag_199:\n        /* \"#utility.yul\":3899:3972   */\n      swap5\n      pop\n        /* \"#utility.yul\":3695:3982   */\n      pop\n        /* \"#utility.yul\":4049:4051   */\n      0x20\n        /* \"#utility.yul\":4038:4047   */\n      dup6\n        /* \"#utility.yul\":4034:4052   */\n      add\n        /* \"#utility.yul\":4021:4053   */\n      calldataload\n        /* \"#utility.yul\":4080:4098   */\n      0xffffffffffffffff\n        /* \"#utility.yul\":4072:4078   */\n      dup2\n        /* \"#utility.yul\":4069:4099   */\n      gt\n        /* \"#utility.yul\":4066:4183   */\n      iszero\n      tag_200\n      jumpi\n        /* \"#utility.yul\":4102:4181   */\n      tag_201\n      tag_95\n      jump\t// in\n    tag_201:\n        /* \"#utility.yul\":4066:4183   */\n    tag_200:\n        /* \"#utility.yul\":4207:4270   */\n      tag_202\n        /* \"#utility.yul\":4262:4269   */\n      dup8\n        /* \"#utility.yul\":4253:4259   */\n      dup3\n        /* \"#utility.yul\":4242:4251   */\n      dup9\n        /* \"#utility.yul\":4238:4260   */\n      add\n        /* \"#utility.yul\":4207:4270   */\n      tag_105\n      jump\t// in\n    tag_202:\n        /* \"#utility.yul\":4197:4270   */\n      swap4\n      pop\n        /* \"#utility.yul\":3992:4280   */\n      pop\n        /* \"#utility.yul\":4319:4321   */\n      0x40\n        /* \"#utility.yul\":4345:4398   */\n      tag_203\n        /* \"#utility.yul\":4390:4397   */\n      dup8\n        /* \"#utility.yul\":4381:4387   */\n      dup3\n        /* \"#utility.yul\":4370:4379   */\n      dup9\n        /* \"#utility.yul\":4366:4388   */\n      add\n        /* \"#utility.yul\":4345:4398   */\n      tag_109\n      jump\t// in\n    tag_203:\n        /* \"#utility.yul\":4335:4398   */\n      swap3\n      pop\n        /* \"#utility.yul\":4290:4408   */\n      pop\n        /* \"#utility.yul\":4447:4449   */\n      0x60\n        /* \"#utility.yul\":4473:4526   */\n      tag_204\n        /* \"#utility.yul\":4518:4525   */\n      dup8\n        /* \"#utility.yul\":4509:4515   */\n      dup3\n        /* \"#utility.yul\":4498:4507   */\n      dup9\n        /* \"#utility.yul\":4494:4516   */\n      add\n        /* \"#utility.yul\":4473:4526   */\n      tag_112\n      jump\t// in\n    tag_204:\n        /* \"#utility.yul\":4463:4526   */\n      swap2\n      pop\n        /* \"#utility.yul\":4418:4536   */\n      pop\n        /* \"#utility.yul\":3418:4543   */\n      swap3\n      swap6\n      swap2\n      swap5\n      pop\n      swap3\n      pop\n      jump\t// out\n        /* \"#utility.yul\":4549:5494   */\n    tag_15:\n        /* \"#utility.yul\":4645:4651   */\n      0x00\n        /* \"#utility.yul\":4653:4659   */\n      dup1\n        /* \"#utility.yul\":4661:4667   */\n      0x00\n        /* \"#utility.yul\":4669:4675   */\n      dup1\n        /* \"#utility.yul\":4718:4721   */\n      0x80\n        /* \"#utility.yul\":4706:4715   */\n      dup6\n        /* \"#utility.yul\":4697:4704   */\n      dup8\n        /* \"#utility.yul\":4693:4716   */\n      sub\n        /* \"#utility.yul\":4689:4722   */\n      slt\n        /* \"#utility.yul\":4686:4806   */\n      iszero\n      tag_206\n      jumpi\n        /* \"#utility.yul\":4725:4804   */\n      tag_207\n      tag_94\n      jump\t// in\n    tag_207:\n        /* \"#utility.yul\":4686:4806   */\n    tag_206:\n        /* \"#utility.yul\":4845:4846   */\n      0x00\n        /* \"#utility.yul\":4870:4923   */\n      tag_208\n        /* \"#utility.yul\":4915:4922   */\n      dup8\n        /* \"#utility.yul\":4906:4912   */\n      dup3\n        /* \"#utility.yul\":4895:4904   */\n      dup9\n        /* \"#utility.yul\":4891:4913   */\n      add\n        /* \"#utility.yul\":4870:4923   */\n      tag_112\n      jump\t// in\n    tag_208:\n        /* \"#utility.yul\":4860:4923   */\n      swap5\n      pop\n        /* \"#utility.yul\":4816:4933   */\n      pop\n        /* \"#utility.yul\":5000:5002   */\n      0x20\n        /* \"#utility.yul\":4989:4998   */\n      dup6\n        /* \"#utility.yul\":4985:5003   */\n      add\n        /* \"#utility.yul\":4972:5004   */\n      calldataload\n        /* \"#utility.yul\":5031:5049   */\n      0xffffffffffffffff\n        /* \"#utility.yul\":5023:5029   */\n      dup2\n        /* \"#utility.yul\":5020:5050   */\n      gt\n        /* \"#utility.yul\":5017:5134   */\n      iszero\n      tag_209\n      jumpi\n        /* \"#utility.yul\":5053:5132   */\n      tag_210\n      tag_95\n      jump\t// in\n    tag_210:\n        /* \"#utility.yul\":5017:5134   */\n    tag_209:\n        /* \"#utility.yul\":5158:5221   */\n      tag_211\n        /* \"#utility.yul\":5213:5220   */\n      dup8\n        /* \"#utility.yul\":5204:5210   */\n      dup3\n        /* \"#utility.yul\":5193:5202   */\n      dup9\n        /* \"#utility.yul\":5189:5211   */\n      add\n        /* \"#utility.yul\":5158:5221   */\n      tag_105\n      jump\t// in\n    tag_211:\n        /* \"#utility.yul\":5148:5221   */\n      swap4\n      pop\n        /* \"#utility.yul\":4943:5231   */\n      pop\n        /* \"#utility.yul\":5270:5272   */\n      0x40\n        /* \"#utility.yul\":5296:5349   */\n      tag_212\n        /* \"#utility.yul\":5341:5348   */\n      dup8\n        /* \"#utility.yul\":5332:5338   */\n      dup3\n        /* \"#utility.yul\":5321:5330   */\n      dup9\n        /* \"#utility.yul\":5317:5339   */\n      add\n        /* \"#utility.yul\":5296:5349   */\n      tag_109\n      jump\t// in\n    tag_212:\n        /* \"#utility.yul\":5286:5349   */\n      swap3\n      pop\n        /* \"#utility.yul\":5241:5359   */\n      pop\n        /* \"#utility.yul\":5398:5400   */\n      0x60\n        /* \"#utility.yul\":5424:5477   */\n      tag_213\n        /* \"#utility.yul\":5469:5476   */\n      dup8\n        /* \"#utility.yul\":5460:5466   */\n      dup3\n        /* \"#utility.yul\":5449:5458   */\n      dup9\n        /* \"#utility.yul\":5445:5467   */\n      add\n        /* \"#utility.yul\":5424:5477   */\n      tag_112\n      jump\t// in\n    tag_213:\n        /* \"#utility.yul\":5414:5477   */\n      swap2\n      pop\n        /* \"#utility.yul\":5369:5487   */\n      pop\n        /* \"#utility.yul\":4549:5494   */\n      swap3\n      swap6\n      swap2\n      swap5\n      pop\n      swap3\n      pop\n      jump\t// out\n        /* \"#utility.yul\":5500:5829   */\n    tag_19:\n        /* \"#utility.yul\":5559:5565   */\n      0x00\n        /* \"#utility.yul\":5608:5610   */\n      0x20\n        /* \"#utility.yul\":5596:5605   */\n      dup3\n        /* \"#utility.yul\":5587:5594   */\n      dup5\n        /* \"#utility.yul\":5583:5606   */\n      sub\n        /* \"#utility.yul\":5579:5611   */\n      slt\n        /* \"#utility.yul\":5576:5695   */\n      iszero\n      tag_215\n      jumpi\n        /* \"#utility.yul\":5614:5693   */\n      tag_216\n      tag_94\n      jump\t// in\n    tag_216:\n        /* \"#utility.yul\":5576:5695   */\n    tag_215:\n        /* \"#utility.yul\":5734:5735   */\n      0x00\n        /* \"#utility.yul\":5759:5812   */\n      tag_217\n        /* \"#utility.yul\":5804:5811   */\n      dup5\n        /* \"#utility.yul\":5795:5801   */\n      dup3\n        /* \"#utility.yul\":5784:5793   */\n      dup6\n        /* \"#utility.yul\":5780:5802   */\n      add\n        /* \"#utility.yul\":5759:5812   */\n      tag_112\n      jump\t// in\n    tag_217:\n        /* \"#utility.yul\":5749:5812   */\n      swap2\n      pop\n        /* \"#utility.yul\":5705:5822   */\n      pop\n        /* \"#utility.yul\":5500:5829   */\n      swap3\n      swap2\n      pop\n      pop\n      jump\t// out\n        /* \"#utility.yul\":5835:5953   */\n    tag_113:\n        /* \"#utility.yul\":5922:5946   */\n      tag_219\n        /* \"#utility.yul\":5940:5945   */\n      dup2\n        /* \"#utility.yul\":5922:5946   */\n      tag_110\n      jump\t// in\n    tag_219:\n        /* \"#utility.yul\":5917:5920   */\n      dup3\n        /* \"#utility.yul\":5910:5947   */\n      mstore\n        /* \"#utility.yul\":5835:5953   */\n      pop\n      pop\n      jump\t// out\n        /* \"#utility.yul\":5959:6058   */\n    tag_114:\n        /* \"#utility.yul\":6011:6017   */\n      0x00\n        /* \"#utility.yul\":6045:6050   */\n      dup2\n        /* \"#utility.yul\":6039:6051   */\n      mload\n        /* \"#utility.yul\":6029:6051   */\n      swap1\n      pop\n        /* \"#utility.yul\":5959:6058   */\n      swap2\n      swap1\n      pop\n      jump\t// out\n        /* \"#utility.yul\":6064:6233   */\n    tag_115:\n        /* \"#utility.yul\":6148:6159   */\n      0x00\n        /* \"#utility.yul\":6182:6188   */\n      dup3\n        /* \"#utility.yul\":6177:6180   */\n      dup3\n        /* \"#utility.yul\":6170:6189   */\n      mstore\n        /* \"#utility.yul\":6222:6226   */\n      0x20\n        /* \"#utility.yul\":6217:6220   */\n      dup3\n        /* \"#utility.yul\":6213:6227   */\n      add\n        /* \"#utility.yul\":6198:6227   */\n      swap1\n      pop\n        /* \"#utility.yul\":6064:6233   */\n      swap3\n      swap2\n      pop\n      pop\n      jump\t// out\n        /* \"#utility.yul\":6239:6378   */\n    tag_116:\n        /* \"#utility.yul\":6328:6334   */\n      dup3\n        /* \"#utility.yul\":6323:6326   */\n      dup2\n        /* \"#utility.yul\":6318:6321   */\n      dup4\n        /* \"#utility.yul\":6312:6335   */\n      mcopy\n        /* \"#utility.yul\":6369:6370   */\n      0x00\n        /* \"#utility.yul\":6360:6366   */\n      dup4\n        /* \"#utility.yul\":6355:6358   */\n      dup4\n        /* \"#utility.yul\":6351:6367   */\n      add\n        /* \"#utility.yul\":6344:6371   */\n      mstore\n        /* \"#utility.yul\":6239:6378   */\n      pop\n      pop\n      pop\n      jump\t// out\n        /* \"#utility.yul\":6384:6761   */\n    tag_117:\n        /* \"#utility.yul\":6472:6475   */\n      0x00\n        /* \"#utility.yul\":6500:6539   */\n      tag_224\n        /* \"#utility.yul\":6533:6538   */\n      dup3\n        /* \"#utility.yul\":6500:6539   */\n      tag_114\n      jump\t// in\n    tag_224:\n        /* \"#utility.yul\":6555:6626   */\n      tag_225\n        /* \"#utility.yul\":6619:6625   */\n      dup2\n        /* \"#utility.yul\":6614:6617   */\n      dup6\n        /* \"#utility.yul\":6555:6626   */\n      tag_115\n      jump\t// in\n    tag_225:\n        /* \"#utility.yul\":6548:6626   */\n      swap4\n      pop\n        /* \"#utility.yul\":6635:6700   */\n      tag_226\n        /* \"#utility.yul\":6693:6699   */\n      dup2\n        /* \"#utility.yul\":6688:6691   */\n      dup6\n        /* \"#utility.yul\":6681:6685   */\n      0x20\n        /* \"#utility.yul\":6674:6679   */\n      dup7\n        /* \"#utility.yul\":6670:6686   */\n      add\n        /* \"#utility.yul\":6635:6700   */\n      tag_116\n      jump\t// in\n    tag_226:\n        /* \"#utility.yul\":6725:6754   */\n      tag_227\n        /* \"#utility.yul\":6747:6753   */\n      dup2\n        /* \"#utility.yul\":6725:6754   */\n      tag_98\n      jump\t// in\n    tag_227:\n        /* \"#utility.yul\":6720:6723   */\n      dup5\n        /* \"#utility.yul\":6716:6755   */\n      add\n        /* \"#utility.yul\":6709:6755   */\n      swap2\n      pop\n        /* \"#utility.yul\":6476:6761   */\n      pop\n        /* \"#utility.yul\":6384:6761   */\n      swap3\n      swap2\n      pop\n      pop\n      jump\t// out\n        /* \"#utility.yul\":6767:6885   */\n    tag_118:\n        /* \"#utility.yul\":6854:6878   */\n      tag_229\n        /* \"#utility.yul\":6872:6877   */\n      dup2\n        /* \"#utility.yul\":6854:6878   */\n      tag_107\n      jump\t// in\n    tag_229:\n        /* \"#utility.yul\":6849:6852   */\n      dup3\n        /* \"#utility.yul\":6842:6879   */\n      mstore\n        /* \"#utility.yul\":6767:6885   */\n      pop\n      pop\n      jump\t// out\n        /* \"#utility.yul\":6891:6981   */\n    tag_119:\n        /* \"#utility.yul\":6925:6932   */\n      0x00\n        /* \"#utility.yul\":6968:6973   */\n      dup2\n        /* \"#utility.yul\":6961:6974   */\n      iszero\n        /* \"#utility.yul\":6954:6975   */\n      iszero\n        /* \"#utility.yul\":6943:6975   */\n      swap1\n      pop\n        /* \"#utility.yul\":6891:6981   */\n      swap2\n      swap1\n      pop\n      jump\t// out\n        /* \"#utility.yul\":6987:7096   */\n    tag_120:\n        /* \"#utility.yul\":7068:7089   */\n      tag_232\n        /* \"#utility.yul\":7083:7088   */\n      dup2\n        /* \"#utility.yul\":7068:7089   */\n      tag_119\n      jump\t// in\n    tag_232:\n        /* \"#utility.yul\":7063:7066   */\n      dup3\n        /* \"#utility.yul\":7056:7090   */\n      mstore\n        /* \"#utility.yul\":6987:7096   */\n      pop\n      pop\n      jump\t// out\n        /* \"#utility.yul\":7102:8899   */\n    tag_22:\n        /* \"#utility.yul\":7579:7583   */\n      0x00\n        /* \"#utility.yul\":7617:7620   */\n      0x0180\n        /* \"#utility.yul\":7606:7615   */\n      dup3\n        /* \"#utility.yul\":7602:7621   */\n      add\n        /* \"#utility.yul\":7594:7621   */\n      swap1\n      pop\n        /* \"#utility.yul\":7631:7702   */\n      tag_234\n        /* \"#utility.yul\":7699:7700   */\n      0x00\n        /* \"#utility.yul\":7688:7697   */\n      dup4\n        /* \"#utility.yul\":7684:7701   */\n      add\n        /* \"#utility.yul\":7675:7681   */\n      dup16\n        /* \"#utility.yul\":7631:7702   */\n      tag_113\n      jump\t// in\n    tag_234:\n        /* \"#utility.yul\":7749:7758   */\n      dup2\n        /* \"#utility.yul\":7743:7747   */\n      dup2\n        /* \"#utility.yul\":7739:7759   */\n      sub\n        /* \"#utility.yul\":7734:7736   */\n      0x20\n        /* \"#utility.yul\":7723:7732   */\n      dup4\n        /* \"#utility.yul\":7719:7737   */\n      add\n        /* \"#utility.yul\":7712:7760   */\n      mstore\n        /* \"#utility.yul\":7777:7855   */\n      tag_235\n        /* \"#utility.yul\":7850:7854   */\n      dup2\n        /* \"#utility.yul\":7841:7847   */\n      dup15\n        /* \"#utility.yul\":7777:7855   */\n      tag_117\n      jump\t// in\n    tag_235:\n        /* \"#utility.yul\":7769:7855   */\n      swap1\n      pop\n        /* \"#utility.yul\":7902:7911   */\n      dup2\n        /* \"#utility.yul\":7896:7900   */\n      dup2\n        /* \"#utility.yul\":7892:7912   */\n      sub\n        /* \"#utility.yul\":7887:7889   */\n      0x40\n        /* \"#utility.yul\":7876:7885   */\n      dup4\n        /* \"#utility.yul\":7872:7890   */\n      add\n        /* \"#utility.yul\":7865:7913   */\n      mstore\n        /* \"#utility.yul\":7930:8008   */\n      tag_236\n        /* \"#utility.yul\":8003:8007   */\n      dup2\n        /* \"#utility.yul\":7994:8000   */\n      dup14\n        /* \"#utility.yul\":7930:8008   */\n      tag_117\n      jump\t// in\n    tag_236:\n        /* \"#utility.yul\":7922:8008   */\n      swap1\n      pop\n        /* \"#utility.yul\":8018:8090   */\n      tag_237\n        /* \"#utility.yul\":8086:8088   */\n      0x60\n        /* \"#utility.yul\":8075:8084   */\n      dup4\n        /* \"#utility.yul\":8071:8089   */\n      add\n        /* \"#utility.yul\":8062:8068   */\n      dup13\n        /* \"#utility.yul\":8018:8090   */\n      tag_118\n      jump\t// in\n    tag_237:\n        /* \"#utility.yul\":8100:8173   */\n      tag_238\n        /* \"#utility.yul\":8168:8171   */\n      0x80\n        /* \"#utility.yul\":8157:8166   */\n      dup4\n        /* \"#utility.yul\":8153:8172   */\n      add\n        /* \"#utility.yul\":8144:8150   */\n      dup12\n        /* \"#utility.yul\":8100:8173   */\n      tag_113\n      jump\t// in\n    tag_238:\n        /* \"#utility.yul\":8221:8230   */\n      dup2\n        /* \"#utility.yul\":8215:8219   */\n      dup2\n        /* \"#utility.yul\":8211:8231   */\n      sub\n        /* \"#utility.yul\":8205:8208   */\n      0xa0\n        /* \"#utility.yul\":8194:8203   */\n      dup4\n        /* \"#utility.yul\":8190:8209   */\n      add\n        /* \"#utility.yul\":8183:8232   */\n      mstore\n        /* \"#utility.yul\":8249:8327   */\n      tag_239\n        /* \"#utility.yul\":8322:8326   */\n      dup2\n        /* \"#utility.yul\":8313:8319   */\n      dup11\n        /* \"#utility.yul\":8249:8327   */\n      tag_117\n      jump\t// in\n    tag_239:\n        /* \"#utility.yul\":8241:8327   */\n      swap1\n      pop\n        /* \"#utility.yul\":8337:8410   */\n      tag_240\n        /* \"#utility.yul\":8405:8408   */\n      0xc0\n        /* \"#utility.yul\":8394:8403   */\n      dup4\n        /* \"#utility.yul\":8390:8409   */\n      add\n        /* \"#utility.yul\":8381:8387   */\n      dup10\n        /* \"#utility.yul\":8337:8410   */\n      tag_118\n      jump\t// in\n    tag_240:\n        /* \"#utility.yul\":8420:8493   */\n      tag_241\n        /* \"#utility.yul\":8488:8491   */\n      0xe0\n        /* \"#utility.yul\":8477:8486   */\n      dup4\n        /* \"#utility.yul\":8473:8492   */\n      add\n        /* \"#utility.yul\":8464:8470   */\n      dup9\n        /* \"#utility.yul\":8420:8493   */\n      tag_113\n      jump\t// in\n    tag_241:\n        /* \"#utility.yul\":8541:8550   */\n      dup2\n        /* \"#utility.yul\":8535:8539   */\n      dup2\n        /* \"#utility.yul\":8531:8551   */\n      sub\n        /* \"#utility.yul\":8525:8528   */\n      0x0100\n        /* \"#utility.yul\":8514:8523   */\n      dup4\n        /* \"#utility.yul\":8510:8529   */\n      add\n        /* \"#utility.yul\":8503:8552   */\n      mstore\n        /* \"#utility.yul\":8569:8647   */\n      tag_242\n        /* \"#utility.yul\":8642:8646   */\n      dup2\n        /* \"#utility.yul\":8633:8639   */\n      dup8\n        /* \"#utility.yul\":8569:8647   */\n      tag_117\n      jump\t// in\n    tag_242:\n        /* \"#utility.yul\":8561:8647   */\n      swap1\n      pop\n        /* \"#utility.yul\":8657:8730   */\n      tag_243\n        /* \"#utility.yul\":8725:8728   */\n      0x0120\n        /* \"#utility.yul\":8714:8723   */\n      dup4\n        /* \"#utility.yul\":8710:8729   */\n      add\n        /* \"#utility.yul\":8701:8707   */\n      dup7\n        /* \"#utility.yul\":8657:8730   */\n      tag_118\n      jump\t// in\n    tag_243:\n        /* \"#utility.yul\":8740:8814   */\n      tag_244\n        /* \"#utility.yul\":8809:8812   */\n      0x0140\n        /* \"#utility.yul\":8798:8807   */\n      dup4\n        /* \"#utility.yul\":8794:8813   */\n      add\n        /* \"#utility.yul\":8784:8791   */\n      dup6\n        /* \"#utility.yul\":8740:8814   */\n      tag_113\n      jump\t// in\n    tag_244:\n        /* \"#utility.yul\":8824:8892   */\n      tag_245\n        /* \"#utility.yul\":8887:8890   */\n      0x0160\n        /* \"#utility.yul\":8876:8885   */\n      dup4\n        /* \"#utility.yul\":8872:8891   */\n      add\n        /* \"#utility.yul\":8862:8869   */\n      dup5\n        /* \"#utility.yul\":8824:8892   */\n      tag_120\n      jump\t// in\n    tag_245:\n        /* \"#utility.yul\":7102:8899   */\n      swap14\n      swap13\n      pop\n      pop\n      pop\n      pop\n      pop\n      pop\n      pop\n      pop\n      pop\n      pop\n      pop\n      pop\n      pop\n      jump\t// out\n        /* \"#utility.yul\":8905:9127   */\n    tag_32:\n        /* \"#utility.yul\":8998:9002   */\n      0x00\n        /* \"#utility.yul\":9036:9038   */\n      0x20\n        /* \"#utility.yul\":9025:9034   */\n      dup3\n        /* \"#utility.yul\":9021:9039   */\n      add\n        /* \"#utility.yul\":9013:9039   */\n      swap1\n      pop\n        /* \"#utility.yul\":9049:9120   */\n      tag_247\n        /* \"#utility.yul\":9117:9118   */\n      0x00\n        /* \"#utility.yul\":9106:9115   */\n      dup4\n        /* \"#utility.yul\":9102:9119   */\n      add\n        /* \"#utility.yul\":9093:9099   */\n      dup5\n        /* \"#utility.yul\":9049:9120   */\n      tag_113\n      jump\t// in\n    tag_247:\n        /* \"#utility.yul\":8905:9127   */\n      swap3\n      swap2\n      pop\n      pop\n      jump\t// out\n        /* \"#utility.yul\":9133:9313   */\n    tag_121:\n        /* \"#utility.yul\":9181:9258   */\n      0x4e487b7100000000000000000000000000000000000000000000000000000000\n        /* \"#utility.yul\":9178:9179   */\n      0x00\n        /* \"#utility.yul\":9171:9259   */\n      mstore\n        /* \"#utility.yul\":9278:9282   */\n      0x11\n        /* \"#utility.yul\":9275:9276   */\n      0x04\n        /* \"#utility.yul\":9268:9283   */\n      mstore\n        /* \"#utility.yul\":9302:9306   */\n      0x24\n        /* \"#utility.yul\":9299:9300   */\n      0x00\n        /* \"#utility.yul\":9292:9307   */\n      revert\n        /* \"#utility.yul\":9319:9552   */\n    tag_35:\n        /* \"#utility.yul\":9358:9361   */\n      0x00\n        /* \"#utility.yul\":9381:9405   */\n      tag_250\n        /* \"#utility.yul\":9399:9404   */\n      dup3\n        /* \"#utility.yul\":9381:9405   */\n      tag_110\n      jump\t// in\n    tag_250:\n        /* \"#utility.yul\":9372:9405   */\n      swap2\n      pop\n        /* \"#utility.yul\":9427:9493   */\n      0xffffffffffffffffffffffffffffffffffffffffffffffffffffffffffffffff\n        /* \"#utility.yul\":9420:9425   */\n      dup3\n        /* \"#utility.yul\":9417:9494   */\n      sub\n        /* \"#utility.yul\":9414:9517   */\n      tag_251\n      jumpi\n        /* \"#utility.yul\":9497:9515   */\n      tag_252\n      tag_121\n      jump\t// in\n    tag_252:\n        /* \"#utility.yul\":9414:9517   */\n    tag_251:\n        /* \"#utility.yul\":9544:9545   */\n      0x01\n        /* \"#utility.yul\":9537:9542   */\n      dup3\n        /* \"#utility.yul\":9533:9546   */\n      add\n        /* \"#utility.yul\":9526:9546   */\n      swap1\n      pop\n        /* \"#utility.yul\":9319:9552   */\n      swap2\n      swap1\n      pop\n      jump\t// out\n        /* \"#utility.yul\":9558:9738   */\n    tag_122:\n        /* \"#utility.yul\":9606:9683   */\n      0x4e487b7100000000000000000000000000000000000000000000000000000000\n        /* \"#utility.yul\":9603:9604   */\n      0x00\n        /* \"#utility.yul\":9596:9684   */\n      mstore\n        /* \"#utility.yul\":9703:9707   */\n      0x22\n        /* \"#utility.yul\":9700:9701   */\n      0x04\n        /* \"#utility.yul\":9693:9708   */\n      mstore\n        /* \"#utility.yul\":9727:9731   */\n      0x24\n        /* \"#utility.yul\":9724:9725   */\n      0x00\n        /* \"#utility.yul\":9717:9732   */\n      revert\n        /* \"#utility.yul\":9744:10064   */\n    tag_55:\n        /* \"#utility.yul\":9788:9794   */\n      0x00\n        /* \"#utility.yul\":9825:9826   */\n      0x02\n        /* \"#utility.yul\":9819:9823   */\n      dup3\n        /* \"#utility.yul\":9815:9827   */\n      div\n        /* \"#utility.yul\":9805:9827   */\n      swap1\n      pop\n        /* \"#utility.yul\":9872:9873   */\n      0x01\n        /* \"#utility.yul\":9866:9870   */\n      dup3\n        /* \"#utility.yul\":9862:9874   */\n      and\n        /* \"#utility.yul\":9893:9911   */\n      dup1\n        /* \"#utility.yul\":9883:9964   */\n      tag_255\n      jumpi\n        /* \"#utility.yul\":9949:9953   */\n      0x7f\n        /* \"#utility.yul\":9941:9947   */\n      dup3\n        /* \"#utility.yul\":9937:9954   */\n      and\n        /* \"#utility.yul\":9927:9954   */\n      swap2\n      pop\n        /* \"#utility.yul\":9883:9964   */\n    tag_255:\n        /* \"#utility.yul\":10011:10013   */\n      0x20\n        /* \"#utility.yul\":10003:10009   */\n      dup3\n        /* \"#utility.yul\":10000:10014   */\n      lt\n        /* \"#utility.yul\":9980:9998   */\n      dup2\n        /* \"#utility.yul\":9977:10015   */\n      sub\n        /* \"#utility.yul\":9974:10058   */\n      tag_256\n      jumpi\n        /* \"#utility.yul\":10030:10048   */\n      tag_257\n      tag_122\n      jump\t// in\n    tag_257:\n        /* \"#utility.yul\":9974:10058   */\n    tag_256:\n        /* \"#utility.yul\":9795:10064   */\n      pop\n        /* \"#utility.yul\":9744:10064   */\n      swap2\n      swap1\n      pop\n      jump\t// out\n        /* \"#utility.yul\":10070:10211   */\n    tag_123:\n        /* \"#utility.yul\":10119:10123   */\n      0x00\n        /* \"#utility.yul\":10142:10145   */\n      dup2\n        /* \"#utility.yul\":10134:10145   */\n      swap1\n      pop\n        /* \"#utility.yul\":10165:10168   */\n      dup2\n        /* \"#utility.yul\":10162:10163   */\n      0x00\n        /* \"#utility.yul\":10155:10169   */\n      mstore\n        /* \"#utility.yul\":10199:10203   */\n      0x20\n        /* \"#utility.yul\":10196:10197   */\n      0x00\n        /* \"#utility.yul\":10186:10204   */\n      keccak256\n        /* \"#utility.yul\":10178:10204   */\n      swap1\n      pop\n        /* \"#utility.yul\":10070:10211   */\n      swap2\n      swap1\n      pop\n      jump\t// out\n        /* \"#utility.yul\":10217:10310   */\n    tag_124:\n        /* \"#utility.yul\":10254:10260   */\n      0x00\n        /* \"#utility.yul\":10301:10303   */\n      0x20\n        /* \"#utility.yul\":10296:10298   */\n      0x1f\n        /* \"#utility.yul\":10289:10294   */\n      dup4\n        /* \"#utility.yul\":10285:10299   */\n      add\n        /* \"#utility.yul\":10281:10304   */\n      div\n        /* \"#utility.yul\":10271:10304   */\n      swap1\n      pop\n        /* \"#utility.yul\":10217:10310   */\n      swap2\n      swap1\n      pop\n      jump\t// out\n        /* \"#utility.yul\":10316:10423   */\n    tag_125:\n        /* \"#utility.yul\":10360:10368   */\n      0x00\n        /* \"#utility.yul\":10410:10415   */\n      dup3\n        /* \"#utility.yul\":10404:10408   */\n      dup3\n        /* \"#utility.yul\":10400:10416   */\n      shl\n        /* \"#utility.yul\":10379:10416   */\n      swap1\n      pop\n        /* \"#utility.yul\":10316:10423   */\n      swap3\n      swap2\n      pop\n      pop\n      jump\t// out\n        /* \"#utility.yul\":10429:10822   */\n    tag_126:\n        /* \"#utility.yul\":10498:10504   */\n      0x00\n        /* \"#utility.yul\":10548:10549   */\n      0x08\n        /* \"#utility.yul\":10536:10546   */\n      dup4\n        /* \"#utility.yul\":10532:10550   */\n      mul\n        /* \"#utility.yul\":10571:10668   */\n      tag_262\n        /* \"#utility.yul\":10601:10667   */\n      0xffffffffffffffffffffffffffffffffffffffffffffffffffffffffffffffff\n        /* \"#utility.yul\":10590:10599   */\n      dup3\n        /* \"#utility.yul\":10571:10668   */\n      tag_125\n      jump\t// in\n    tag_262:\n        /* \"#utility.yul\":10689:10728   */\n      tag_263\n        /* \"#utility.yul\":10719:10727   */\n      dup7\n        /* \"#utility.yul\":10708:10717   */\n      dup4\n        /* \"#utility.yul\":10689:10728   */\n      tag_125\n      jump\t// in\n    tag_263:\n        /* \"#utility.yul\":10677:10728   */\n      swap6\n      pop\n        /* \"#utility.yul\":10761:10765   */\n      dup1\n        /* \"#utility.yul\":10757:10766   */\n      not\n        /* \"#utility.yul\":10750:10755   */\n      dup5\n        /* \"#utility.yul\":10746:10767   */\n      and\n        /* \"#utility.yul\":10737:10767   */\n      swap4\n      pop\n        /* \"#utility.yul\":10810:10814   */\n      dup1\n        /* \"#utility.yul\":10800:10808   */\n      dup7\n        /* \"#utility.yul\":10796:10815   */\n      and\n        /* \"#utility.yul\":10789:10794   */\n      dup5\n        /* \"#utility.yul\":10786:10816   */\n      or\n        /* \"#utility.yul\":10776:10816   */\n      swap3\n      pop\n        /* \"#utility.yul\":10505:10822   */\n      pop\n      pop\n        /* \"#utility.yul\":10429:10822   */\n      swap4\n      swap3\n      pop\n      pop\n      pop\n      jump\t// out\n        /* \"#utility.yul\":10828:10888   */\n    tag_127:\n        /* \"#utility.yul\":10856:10859   */\n      0x00\n        /* \"#utility.yul\":10877:10882   */\n      dup2\n        /* \"#utility.yul\":10870:10882   */\n      swap1\n      pop\n        /* \"#utility.yul\":10828:10888   */\n      swap2\n      swap1\n      pop\n      jump\t// out\n        /* \"#utility.yul\":10894:11036   */\n    tag_128:\n        /* \"#utility.yul\":10944:10953   */\n      0x00\n        /* \"#utility.yul\":10977:11030   */\n      tag_266\n        /* \"#utility.yul\":10995:11029   */\n      tag_267\n        /* \"#utility.yul\":11004:11028   */\n      tag_268\n        /* \"#utility.yul\":11022:11027   */\n      dup5\n        /* \"#utility.yul\":11004:11028   */\n      tag_110\n      jump\t// in\n    tag_268:\n        /* \"#utility.yul\":10995:11029   */\n      tag_127\n      jump\t// in\n    tag_267:\n        /* \"#utility.yul\":10977:11030   */\n      tag_110\n      jump\t// in\n    tag_266:\n        /* \"#utility.yul\":10964:11030   */\n      swap1\n      pop\n        /* \"#utility.yul\":10894:11036   */\n      swap2\n      swap1\n      pop\n      jump\t// out\n        /* \"#utility.yul\":11042:11117   */\n    tag_129:\n        /* \"#utility.yul\":11085:11088   */\n      0x00\n        /* \"#utility.yul\":11106:11111   */\n      dup2\n        /* \"#utility.yul\":11099:11111   */\n      swap1\n      pop\n        /* \"#utility.yul\":11042:11117   */\n      swap2\n      swap1\n      pop\n      jump\t// out\n        /* \"#utility.yul\":11123:11392   */\n    tag_130:\n        /* \"#utility.yul\":11233:11272   */\n      tag_271\n        /* \"#utility.yul\":11264:11271   */\n      dup4\n        /* \"#utility.yul\":11233:11272   */\n      tag_128\n      jump\t// in\n    tag_271:\n        /* \"#utility.yul\":11294:11385   */\n      tag_272\n        /* \"#utility.yul\":11343:11384   */\n      tag_273\n        /* \"#utility.yul\":11367:11383   */\n      dup3\n        /* \"#utility.yul\":11343:11384   */\n      tag_129\n      jump\t// in\n    tag_273:\n        /* \"#utility.yul\":11335:11341   */\n      dup5\n        /* \"#utility.yul\":11328:11332   */\n      dup5\n        /* \"#utility.yul\":11322:11333   */\n      sload\n        /* \"#utility.yul\":11294:11385   */\n      tag_126\n      jump\t// in\n    tag_272:\n        /* \"#utility.yul\":11288:11292   */\n      dup3\n        /* \"#utility.yul\":11281:11386   */\n      sstore\n        /* \"#utility.yul\":11199:11392   */\n      pop\n        /* \"#utility.yul\":11123:11392   */\n      pop\n      pop\n      pop\n      jump\t// out\n        /* \"#utility.yul\":11398:11471   */\n    tag_131:\n        /* \"#utility.yul\":11443:11446   */\n      0x00\n        /* \"#utility.yul\":11398:11471   */\n      swap1\n      jump\t// out\n        /* \"#utility.yul\":11477:11666   */\n    tag_132:\n        /* \"#utility.yul\":11554:11586   */\n      tag_276\n      tag_131\n      jump\t// in\n    tag_276:\n        /* \"#utility.yul\":11595:11660   */\n      tag_277\n        /* \"#utility.yul\":11653:11659   */\n      dup2\n        /* \"#utility.yul\":11645:11651   */\n      dup5\n        /* \"#utility.yul\":11639:11643   */\n      dup5\n        /* \"#utility.yul\":11595:11660   */\n      tag_130\n      jump\t// in\n    tag_277:\n        /* \"#utility.yul\":11530:11666   */\n      pop\n        /* \"#utility.yul\":11477:11666   */\n      pop\n      pop\n      jump\t// out\n        /* \"#utility.yul\":11672:11858   */\n    tag_133:\n        /* \"#utility.yul\":11732:11852   */\n    tag_279:\n        /* \"#utility.yul\":11749:11752   */\n      dup2\n        /* \"#utility.yul\":11742:11747   */\n      dup2\n        /* \"#utility.yul\":11739:11753   */\n      lt\n        /* \"#utility.yul\":11732:11852   */\n      iszero\n      tag_281\n      jumpi\n        /* \"#utility.yul\":11803:11842   */\n      tag_282\n        /* \"#utility.yul\":11840:11841   */\n      0x00\n        /* \"#utility.yul\":11833:11838   */\n      dup3\n        /* \"#utility.yul\":11803:11842   */\n      tag_132\n      jump\t// in\n    tag_282:\n        /* \"#utility.yul\":11776:11777   */\n      0x01\n        /* \"#utility.yul\":11769:11774   */\n      dup2\n        /* \"#utility.yul\":11765:11778   */\n      add\n        /* \"#utility.yul\":11756:11778   */\n      swap1\n      pop\n        /* \"#utility.yul\":11732:11852   */\n      jump(tag_279)\n    tag_281:\n        /* \"#utility.yul\":11672:11858   */\n      pop\n      pop\n      jump\t// out\n        /* \"#utility.yul\":11864:12407   */\n    tag_134:\n        /* \"#utility.yul\":11965:11967   */\n      0x1f\n        /* \"#utility.yul\":11960:11963   */\n      dup3\n        /* \"#utility.yul\":11957:11968   */\n      gt\n        /* \"#utility.yul\":11954:12400   */\n      iszero\n      tag_284\n      jumpi\n        /* \"#utility.yul\":11999:12037   */\n      tag_285\n        /* \"#utility.yul\":12031:12036   */\n      dup2\n        /* \"#utility.yul\":11999:12037   */\n      tag_123\n      jump\t// in\n    tag_285:\n        /* \"#utility.yul\":12083:12112   */\n      tag_286\n        /* \"#utility.yul\":12101:12111   */\n      dup5\n        /* \"#utility.yul\":12083:12112   */\n      tag_124\n      jump\t// in\n    tag_286:\n        /* \"#utility.yul\":12073:12081   */\n      dup2\n        /* \"#utility.yul\":12069:12113   */\n      add\n        /* \"#utility.yul\":12266:12268   */\n      0x20\n        /* \"#utility.yul\":12254:12264   */\n      dup6\n        /* \"#utility.yul\":12251:12269   */\n      lt\n        /* \"#utility.yul\":12248:12297   */\n      iszero\n      tag_287\n      jumpi\n        /* \"#utility.yul\":12287:12295   */\n      dup2\n        /* \"#utility.yul\":12272:12295   */\n      swap1\n      pop\n        /* \"#utility.yul\":12248:12297   */\n    tag_287:\n        /* \"#utility.yul\":12310:12390   */\n      tag_288\n        /* \"#utility.yul\":12366:12388   */\n      tag_289\n        /* \"#utility.yul\":12384:12387   */\n      dup6\n        /* \"#utility.yul\":12366:12388   */\n      tag_124\n      jump\t// in\n    tag_289:\n        /* \"#utility.yul\":12356:12364   */\n      dup4\n        /* \"#utility.yul\":12352:12389   */\n      add\n        /* \"#utility.yul\":12339:12350   */\n      dup3\n        /* \"#utility.yul\":12310:12390   */\n      tag_133\n      jump\t// in\n    tag_288:\n        /* \"#utility.yul\":11969:12400   */\n      pop\n      pop\n        /* \"#utility.yul\":11954:12400   */\n    tag_284:\n        /* \"#utility.yul\":11864:12407   */\n      pop\n      pop\n      pop\n      jump\t// out\n        /* \"#utility.yul\":12413:12530   */\n    tag_135:\n        /* \"#utility.yul\":12467:12475   */\n      0x00\n        /* \"#utility.yul\":12517:12522   */\n      dup3\n        /* \"#utility.yul\":12511:12515   */\n      dup3\n        /* \"#utility.yul\":12507:12523   */\n      shr\n        /* \"#utility.yul\":12486:12523   */\n      swap1\n      pop\n        /* \"#utility.yul\":12413:12530   */\n      swap3\n      swap2\n      pop\n      pop\n      jump\t// out\n        /* \"#utility.yul\":12536:12705   */\n    tag_136:\n        /* \"#utility.yul\":12580:12586   */\n      0x00\n        /* \"#utility.yul\":12613:12664   */\n      tag_292\n        /* \"#utility.yul\":12661:12662   */\n      0x00\n        /* \"#utility.yul\":12657:12663   */\n      not\n        /* \"#utility.yul\":12649:12654   */\n      dup5\n        /* \"#utility.yul\":12646:12647   */\n      0x08\n        /* \"#utility.yul\":12642:12655   */\n      mul\n        /* \"#utility.yul\":12613:12664   */\n      tag_135\n      jump\t// in\n    tag_292:\n        /* \"#utility.yul\":12609:12665   */\n      not\n        /* \"#utility.yul\":12694:12698   */\n      dup1\n        /* \"#utility.yul\":12688:12692   */\n      dup4\n        /* \"#utility.yul\":12684:12699   */\n      and\n        /* \"#utility.yul\":12674:12699   */\n      swap2\n      pop\n        /* \"#utility.yul\":12587:12705   */\n      pop\n        /* \"#utility.yul\":12536:12705   */\n      swap3\n      swap2\n      pop\n      pop\n      jump\t// out\n        /* \"#utility.yul\":12710:13005   */\n    tag_137:\n        /* \"#utility.yul\":12786:12790   */\n      0x00\n        /* \"#utility.yul\":12932:12961   */\n      tag_294\n        /* \"#utility.yul\":12957:12960   */\n      dup4\n        /* \"#utility.yul\":12951:12955   */\n      dup4\n        /* \"#utility.yul\":12932:12961   */\n      tag_136\n      jump\t// in\n    tag_294:\n        /* \"#utility.yul\":12924:12961   */\n      swap2\n      pop\n        /* \"#utility.yul\":12994:12997   */\n      dup3\n        /* \"#utility.yul\":12991:12992   */\n      0x02\n        /* \"#utility.yul\":12987:12998   */\n      mul\n        /* \"#utility.yul\":12981:12985   */\n      dup3\n        /* \"#utility.yul\":12978:12999   */\n      or\n        /* \"#utility.yul\":12970:12999   */\n      swap1\n      pop\n        /* \"#utility.yul\":12710:13005   */\n      swap3\n      swap2\n      pop\n      pop\n      jump\t// out\n        /* \"#utility.yul\":13010:14405   */\n    tag_37:\n        /* \"#utility.yul\":13127:13164   */\n      tag_296\n        /* \"#utility.yul\":13160:13163   */\n      dup3\n        /* \"#utility.yul\":13127:13164   */\n      tag_114\n      jump\t// in\n    tag_296:\n        /* \"#utility.yul\":13229:13247   */\n      0xffffffffffffffff\n        /* \"#utility.yul\":13221:13227   */\n      dup2\n        /* \"#utility.yul\":13218:13248   */\n      gt\n        /* \"#utility.yul\":13215:13271   */\n      iszero\n      tag_297\n      jumpi\n        /* \"#utility.yul\":13251:13269   */\n      tag_298\n      tag_99\n      jump\t// in\n    tag_298:\n        /* \"#utility.yul\":13215:13271   */\n    tag_297:\n        /* \"#utility.yul\":13295:13333   */\n      tag_299\n        /* \"#utility.yul\":13327:13331   */\n      dup3\n        /* \"#utility.yul\":13321:13332   */\n      sload\n        /* \"#utility.yul\":13295:13333   */\n      tag_55\n      jump\t// in\n    tag_299:\n        /* \"#utility.yul\":13380:13447   */\n      tag_300\n        /* \"#utility.yul\":13440:13446   */\n      dup3\n        /* \"#utility.yul\":13432:13438   */\n      dup3\n        /* \"#utility.yul\":13426:13430   */\n      dup6\n        /* \"#utility.yul\":13380:13447   */\n      tag_134\n      jump\t// in\n    tag_300:\n        /* \"#utility.yul\":13474:13475   */\n      0x00\n        /* \"#utility.yul\":13498:13502   */\n      0x20\n        /* \"#utility.yul\":13485:13502   */\n      swap1\n      pop\n        /* \"#utility.yul\":13530:13532   */\n      0x1f\n        /* \"#utility.yul\":13522:13528   */\n      dup4\n        /* \"#utility.yul\":13519:13533   */\n      gt\n        /* \"#utility.yul\":13547:13548   */\n      0x01\n        /* \"#utility.yul\":13542:14160   */\n      dup2\n      eq\n      tag_302\n      jumpi\n        /* \"#utility.yul\":14204:14205   */\n      0x00\n        /* \"#utility.yul\":14221:14227   */\n      dup5\n        /* \"#utility.yul\":14218:14295   */\n      iszero\n      tag_303\n      jumpi\n        /* \"#utility.yul\":14270:14279   */\n      dup3\n        /* \"#utility.yul\":14265:14268   */\n      dup8\n        /* \"#utility.yul\":14261:14280   */\n      add\n        /* \"#utility.yul\":14255:14281   */\n      mload\n        /* \"#utility.yul\":14246:14281   */\n      swap1\n      pop\n        /* \"#utility.yul\":14218:14295   */\n    tag_303:\n        /* \"#utility.yul\":14321:14388   */\n      tag_304\n        /* \"#utility.yul\":14381:14387   */\n      dup6\n        /* \"#utility.yul\":14374:14379   */\n      dup3\n        /* \"#utility.yul\":14321:14388   */\n      tag_137\n      jump\t// in\n    tag_304:\n        /* \"#utility.yul\":14315:14319   */\n      dup7\n        /* \"#utility.yul\":14308:14389   */\n      sstore\n        /* \"#utility.yul\":14177:14399   */\n      pop\n        /* \"#utility.yul\":13512:14399   */\n      jump(tag_301)\n        /* \"#utility.yul\":13542:14160   */\n    tag_302:\n        /* \"#utility.yul\":13594:13598   */\n      0x1f\n        /* \"#utility.yul\":13590:13599   */\n      not\n        /* \"#utility.yul\":13582:13588   */\n      dup5\n        /* \"#utility.yul\":13578:13600   */\n      and\n        /* \"#utility.yul\":13628:13665   */\n      tag_305\n        /* \"#utility.yul\":13660:13664   */\n      dup7\n        /* \"#utility.yul\":13628:13665   */\n      tag_123\n      jump\t// in\n    tag_305:\n        /* \"#utility.yul\":13687:13688   */\n      0x00\n        /* \"#utility.yul\":13701:13909   */\n    tag_306:\n        /* \"#utility.yul\":13715:13722   */\n      dup3\n        /* \"#utility.yul\":13712:13713   */\n      dup2\n        /* \"#utility.yul\":13709:13723   */\n      lt\n        /* \"#utility.yul\":13701:13909   */\n      iszero\n      tag_308\n      jumpi\n        /* \"#utility.yul\":13794:13803   */\n      dup5\n        /* \"#utility.yul\":13789:13792   */\n      dup10\n        /* \"#utility.yul\":13785:13804   */\n      add\n        /* \"#utility.yul\":13779:13805   */\n      mload\n        /* \"#utility.yul\":13771:13777   */\n      dup3\n        /* \"#utility.yul\":13764:13806   */\n      sstore\n        /* \"#utility.yul\":13845:13846   */\n      0x01\n        /* \"#utility.yul\":13837:13843   */\n      dup3\n        /* \"#utility.yul\":13833:13847   */\n      add\n        /* \"#utility.yul\":13823:13847   */\n      swap2\n      pop\n        /* \"#utility.yul\":13892:13894   */\n      0x20\n        /* \"#utility.yul\":13881:13890   */\n      dup6\n        /* \"#utility.yul\":13877:13895   */\n      add\n        /* \"#utility.yul\":13864:13895   */\n      swap5\n      pop\n        /* \"#utility.yul\":13738:13742   */\n      0x20\n        /* \"#utility.yul\":13735:13736   */\n      dup2\n        /* \"#utility.yul\":13731:13743   */\n      add\n        /* \"#utility.yul\":13726:13743   */\n      swap1\n      pop\n        /* \"#utility.yul\":13701:13909   */\n      jump(tag_306)\n    tag_308:\n        /* \"#utility.yul\":13937:13943   */\n      dup7\n        /* \"#utility.yul\":13928:13935   */\n      dup4\n        /* \"#utility.yul\":13925:13944   */\n      lt\n        /* \"#utility.yul\":13922:14101   */\n      iszero\n      tag_309\n      jumpi\n        /* \"#utility.yul\":13995:14004   */\n      dup5\n        /* \"#utility.yul\":13990:13993   */\n      dup10\n        /* \"#utility.yul\":13986:14005   */\n      add\n        /* \"#utility.yul\":13980:14006   */\n      mload\n        /* \"#utility.yul\":14038:14086   */\n      tag_310\n        /* \"#utility.yul\":14080:14084   */\n      0x1f\n        /* \"#utility.yul\":14072:14078   */\n      dup10\n        /* \"#utility.yul\":14068:14085   */\n      and\n        /* \"#utility.yul\":14057:14066   */\n      dup3\n        /* \"#utility.yul\":14038:14086   */\n      tag_136\n      jump\t// in\n    tag_310:\n        /* \"#utility.yul\":14030:14036   */\n      dup4\n        /* \"#utility.yul\":14023:14087   */\n      sstore\n        /* \"#utility.yul\":13945:14101   */\n      pop\n        /* \"#utility.yul\":13922:14101   */\n    tag_309:\n        /* \"#utility.yul\":14147:14148   */\n      0x01\n        /* \"#utility.yul\":14143:14144   */\n      0x02\n        /* \"#utility.yul\":14135:14141   */\n      dup9\n        /* \"#utility.yul\":14131:14145   */\n      mul\n        /* \"#utility.yul\":14127:14149   */\n      add\n        /* \"#utility.yul\":14121:14125   */\n      dup9\n        /* \"#utility.yul\":14114:14150   */\n      sstore\n        /* \"#utility.yul\":13549:14160   */\n      pop\n      pop\n      pop\n        /* \"#utility.yul\":13512:14399   */\n    tag_301:\n      pop\n        /* \"#utility.yul\":13102:14405   */\n      pop\n      pop\n      pop\n        /* \"#utility.yul\":13010:14405   */\n      pop\n      pop\n      jump\t// out\n        /* \"#utility.yul\":14411:15257   */\n    tag_42:\n        /* \"#utility.yul\":14656:14660   */\n      0x00\n        /* \"#utility.yul\":14694:14697   */\n      0xa0\n        /* \"#utility.yul\":14683:14692   */\n      dup3\n        /* \"#utility.yul\":14679:14698   */\n      add\n        /* \"#utility.yul\":14671:14698   */\n      swap1\n      pop\n        /* \"#utility.yul\":14708:14779   */\n      tag_312\n        /* \"#utility.yul\":14776:14777   */\n      0x00\n        /* \"#utility.yul\":14765:14774   */\n      dup4\n        /* \"#utility.yul\":14761:14778   */\n      add\n        /* \"#utility.yul\":14752:14758   */\n      dup9\n        /* \"#utility.yul\":14708:14779   */\n      tag_113\n      jump\t// in\n    tag_312:\n        /* \"#utility.yul\":14826:14835   */\n      dup2\n        /* \"#utility.yul\":14820:14824   */\n      dup2\n        /* \"#utility.yul\":14816:14836   */\n      sub\n        /* \"#utility.yul\":14811:14813   */\n      0x20\n        /* \"#utility.yul\":14800:14809   */\n      dup4\n        /* \"#utility.yul\":14796:14814   */\n      add\n        /* \"#utility.yul\":14789:14837   */\n      mstore\n        /* \"#utility.yul\":14854:14932   */\n      tag_313\n        /* \"#utility.yul\":14927:14931   */\n      dup2\n        /* \"#utility.yul\":14918:14924   */\n      dup8\n        /* \"#utility.yul\":14854:14932   */\n      tag_117\n      jump\t// in\n    tag_313:\n        /* \"#utility.yul\":14846:14932   */\n      swap1\n      pop\n        /* \"#utility.yul\":14979:14988   */\n      dup2\n        /* \"#utility.yul\":14973:14977   */\n      dup2\n        /* \"#utility.yul\":14969:14989   */\n      sub\n        /* \"#utility.yul\":14964:14966   */\n      0x40\n        /* \"#utility.yul\":14953:14962   */\n      dup4\n        /* \"#utility.yul\":14949:14967   */\n      add\n        /* \"#utility.yul\":14942:14990   */\n      mstore\n        /* \"#utility.yul\":15007:15085   */\n      tag_314\n        /* \"#utility.yul\":15080:15084   */\n      dup2\n        /* \"#utility.yul\":15071:15077   */\n      dup7\n        /* \"#utility.yul\":15007:15085   */\n      tag_117\n      jump\t// in\n    tag_314:\n        /* \"#utility.yul\":14999:15085   */\n      swap1\n      pop\n        /* \"#utility.yul\":15095:15167   */\n      tag_315\n        /* \"#utility.yul\":15163:15165   */\n      0x60\n        /* \"#utility.yul\":15152:15161   */\n      dup4\n        /* \"#utility.yul\":15148:15166   */\n      add\n        /* \"#utility.yul\":15139:15145   */\n      dup6\n        /* \"#utility.yul\":15095:15167   */\n      tag_118\n      jump\t// in\n    tag_315:\n        /* \"#utility.yul\":15177:15250   */\n      tag_316\n        /* \"#utility.yul\":15245:15248   */\n      0x80\n        /* \"#utility.yul\":15234:15243   */\n      dup4\n        /* \"#utility.yul\":15230:15249   */\n      add\n        /* \"#utility.yul\":15221:15227   */\n      dup5\n        /* \"#utility.yul\":15177:15250   */\n      tag_113\n      jump\t// in\n    tag_316:\n        /* \"#utility.yul\":14411:15257   */\n      swap7\n      swap6\n      pop\n      pop\n      pop\n      pop\n      pop\n      pop\n      jump\t// out\n        /* \"#utility.yul\":15263:15431   */\n    tag_138:\n        /* \"#utility.yul\":15403:15423   */\n      0x496e76616c69642070726f647563742049440000000000000000000000000000\n        /* \"#utility.yul\":15399:15400   */\n      0x00\n        /* \"#utility.yul\":15391:15397   */\n      dup3\n        /* \"#utility.yul\":15387:15401   */\n      add\n        /* \"#utility.yul\":15380:15424   */\n      mstore\n        /* \"#utility.yul\":15263:15431   */\n      pop\n      jump\t// out\n        /* \"#utility.yul\":15437:15803   */\n    tag_139:\n        /* \"#utility.yul\":15579:15582   */\n      0x00\n        /* \"#utility.yul\":15600:15667   */\n      tag_319\n        /* \"#utility.yul\":15664:15666   */\n      0x12\n        /* \"#utility.yul\":15659:15662   */\n      dup4\n        /* \"#utility.yul\":15600:15667   */\n      tag_115\n      jump\t// in\n    tag_319:\n        /* \"#utility.yul\":15593:15667   */\n      swap2\n      pop\n        /* \"#utility.yul\":15676:15769   */\n      tag_320\n        /* \"#utility.yul\":15765:15768   */\n      dup3\n        /* \"#utility.yul\":15676:15769   */\n      tag_138\n      jump\t// in\n    tag_320:\n        /* \"#utility.yul\":15794:15796   */\n      0x20\n        /* \"#utility.yul\":15789:15792   */\n      dup3\n        /* \"#utility.yul\":15785:15797   */\n      add\n        /* \"#utility.yul\":15778:15797   */\n      swap1\n      pop\n        /* \"#utility.yul\":15437:15803   */\n      swap2\n      swap1\n      pop\n      jump\t// out\n        /* \"#utility.yul\":15809:16228   */\n    tag_47:\n        /* \"#utility.yul\":15975:15979   */\n      0x00\n        /* \"#utility.yul\":16013:16015   */\n      0x20\n        /* \"#utility.yul\":16002:16011   */\n      dup3\n        /* \"#utility.yul\":15998:16016   */\n      add\n        /* \"#utility.yul\":15990:16016   */\n      swap1\n      pop\n        /* \"#utility.yul\":16062:16071   */\n      dup2\n        /* \"#utility.yul\":16056:16060   */\n      dup2\n        /* \"#utility.yul\":16052:16072   */\n      sub\n        /* \"#utility.yul\":16048:16049   */\n      0x00\n        /* \"#utility.yul\":16037:16046   */\n      dup4\n        /* \"#utility.yul\":16033:16050   */\n      add\n        /* \"#utility.yul\":16026:16073   */\n      mstore\n        /* \"#utility.yul\":16090:16221   */\n      tag_322\n        /* \"#utility.yul\":16216:16220   */\n      dup2\n        /* \"#utility.yul\":16090:16221   */\n      tag_139\n      jump\t// in\n    tag_322:\n        /* \"#utility.yul\":16082:16221   */\n      swap1\n      pop\n        /* \"#utility.yul\":15809:16228   */\n      swap2\n      swap1\n      pop\n      jump\t// out\n        /* \"#utility.yul\":16234:16411   */\n    tag_140:\n        /* \"#utility.yul\":16374:16403   */\n      0x50726f6475637420616c7265616479207472616e736665727265640000000000\n        /* \"#utility.yul\":16370:16371   */\n      0x00\n        /* \"#utility.yul\":16362:16368   */\n      dup3\n        /* \"#utility.yul\":16358:16372   */\n      add\n        /* \"#utility.yul\":16351:16404   */\n      mstore\n        /* \"#utility.yul\":16234:16411   */\n      pop\n      jump\t// out\n        /* \"#utility.yul\":16417:16783   */\n    tag_141:\n        /* \"#utility.yul\":16559:16562   */\n      0x00\n        /* \"#utility.yul\":16580:16647   */\n      tag_325\n        /* \"#utility.yul\":16644:16646   */\n      0x1b\n        /* \"#utility.yul\":16639:16642   */\n      dup4\n        /* \"#utility.yul\":16580:16647   */\n      tag_115\n      jump\t// in\n    tag_325:\n        /* \"#utility.yul\":16573:16647   */\n      swap2\n      pop\n        /* \"#utility.yul\":16656:16749   */\n      tag_326\n        /* \"#utility.yul\":16745:16748   */\n      dup3\n        /* \"#utility.yul\":16656:16749   */\n      tag_140\n      jump\t// in\n    tag_326:\n        /* \"#utility.yul\":16774:16776   */\n      0x20\n        /* \"#utility.yul\":16769:16772   */\n      dup3\n        /* \"#utility.yul\":16765:16777   */\n      add\n        /* \"#utility.yul\":16758:16777   */\n      swap1\n      pop\n        /* \"#utility.yul\":16417:16783   */\n      swap2\n      swap1\n      pop\n      jump\t// out\n        /* \"#utility.yul\":16789:17208   */\n    tag_50:\n        /* \"#utility.yul\":16955:16959   */\n      0x00\n        /* \"#utility.yul\":16993:16995   */\n      0x20\n        /* \"#utility.yul\":16982:16991   */\n      dup3\n        /* \"#utility.yul\":16978:16996   */\n      add\n        /* \"#utility.yul\":16970:16996   */\n      swap1\n      pop\n        /* \"#utility.yul\":17042:17051   */\n      dup2\n        /* \"#utility.yul\":17036:17040   */\n      dup2\n        /* \"#utility.yul\":17032:17052   */\n      sub\n        /* \"#utility.yul\":17028:17029   */\n      0x00\n        /* \"#utility.yul\":17017:17026   */\n      dup4\n        /* \"#utility.yul\":17013:17030   */\n      add\n        /* \"#utility.yul\":17006:17053   */\n      mstore\n        /* \"#utility.yul\":17070:17201   */\n      tag_328\n        /* \"#utility.yul\":17196:17200   */\n      dup2\n        /* \"#utility.yul\":17070:17201   */\n      tag_141\n      jump\t// in\n    tag_328:\n        /* \"#utility.yul\":17062:17201   */\n      swap1\n      pop\n        /* \"#utility.yul\":16789:17208   */\n      swap2\n      swap1\n      pop\n      jump\t// out\n        /* \"#utility.yul\":17214:17372   */\n    tag_142:\n        /* \"#utility.yul\":17354:17364   */\n      0x50726f6475636572000000000000000000000000000000000000000000000000\n        /* \"#utility.yul\":17350:17351   */\n      0x00\n        /* \"#utility.yul\":17342:17348   */\n      dup3\n        /* \"#utility.yul\":17338:17352   */\n      add\n        /* \"#utility.yul\":17331:17365   */\n      mstore\n        /* \"#utility.yul\":17214:17372   */\n      pop\n      jump\t// out\n        /* \"#utility.yul\":17378:17743   */\n    tag_143:\n        /* \"#utility.yul\":17520:17523   */\n      0x00\n        /* \"#utility.yul\":17541:17607   */\n      tag_331\n        /* \"#utility.yul\":17605:17606   */\n      0x08\n        /* \"#utility.yul\":17600:17603   */\n      dup4\n        /* \"#utility.yul\":17541:17607   */\n      tag_115\n      jump\t// in\n    tag_331:\n        /* \"#utility.yul\":17534:17607   */\n      swap2\n      pop\n        /* \"#utility.yul\":17616:17709   */\n      tag_332\n        /* \"#utility.yul\":17705:17708   */\n      dup3\n        /* \"#utility.yul\":17616:17709   */\n      tag_142\n      jump\t// in\n    tag_332:\n        /* \"#utility.yul\":17734:17736   */\n      0x20\n        /* \"#utility.yul\":17729:17732   */\n      dup3\n        /* \"#utility.yul\":17725:17737   */\n      add\n        /* \"#utility.yul\":17718:17737   */\n      swap1\n      pop\n        /* \"#utility.yul\":17378:17743   */\n      swap2\n      swap1\n      pop\n      jump\t// out\n        /* \"#utility.yul\":17749:17910   */\n    tag_144:\n        /* \"#utility.yul\":17889:17902   */\n      0x4469737472696275746f72000000000000000000000000000000000000000000\n        /* \"#utility.yul\":17885:17886   */\n      0x00\n        /* \"#utility.yul\":17877:17883   */\n      dup3\n        /* \"#utility.yul\":17873:17887   */\n      add\n        /* \"#utility.yul\":17866:17903   */\n      mstore\n        /* \"#utility.yul\":17749:17910   */\n      pop\n      jump\t// out\n        /* \"#utility.yul\":17916:18282   */\n    tag_145:\n        /* \"#utility.yul\":18058:18061   */\n      0x00\n        /* \"#utility.yul\":18079:18146   */\n      tag_335\n        /* \"#utility.yul\":18143:18145   */\n      0x0b\n        /* \"#utility.yul\":18138:18141   */\n      dup4\n        /* \"#utility.yul\":18079:18146   */\n      tag_115\n      jump\t// in\n    tag_335:\n        /* \"#utility.yul\":18072:18146   */\n      swap2\n      pop\n        /* \"#utility.yul\":18155:18248   */\n      tag_336\n        /* \"#utility.yul\":18244:18247   */\n      dup3\n        /* \"#utility.yul\":18155:18248   */\n      tag_144\n      jump\t// in\n    tag_336:\n        /* \"#utility.yul\":18273:18275   */\n      0x20\n        /* \"#utility.yul\":18268:18271   */\n      dup3\n        /* \"#utility.yul\":18264:18276   */\n      add\n        /* \"#utility.yul\":18257:18276   */\n      swap1\n      pop\n        /* \"#utility.yul\":17916:18282   */\n      swap2\n      swap1\n      pop\n      jump\t// out\n        /* \"#utility.yul\":18288:19457   */\n    tag_53:\n        /* \"#utility.yul\":18667:18671   */\n      0x00\n        /* \"#utility.yul\":18705:18708   */\n      0xc0\n        /* \"#utility.yul\":18694:18703   */\n      dup3\n        /* \"#utility.yul\":18690:18709   */\n      add\n        /* \"#utility.yul\":18682:18709   */\n      swap1\n      pop\n        /* \"#utility.yul\":18719:18790   */\n      tag_338\n        /* \"#utility.yul\":18787:18788   */\n      0x00\n        /* \"#utility.yul\":18776:18785   */\n      dup4\n        /* \"#utility.yul\":18772:18789   */\n      add\n        /* \"#utility.yul\":18763:18769   */\n      dup8\n        /* \"#utility.yul\":18719:18790   */\n      tag_113\n      jump\t// in\n    tag_338:\n        /* \"#utility.yul\":18837:18846   */\n      dup2\n        /* \"#utility.yul\":18831:18835   */\n      dup2\n        /* \"#utility.yul\":18827:18847   */\n      sub\n        /* \"#utility.yul\":18822:18824   */\n      0x20\n        /* \"#utility.yul\":18811:18820   */\n      dup4\n        /* \"#utility.yul\":18807:18825   */\n      add\n        /* \"#utility.yul\":18800:18848   */\n      mstore\n        /* \"#utility.yul\":18865:18996   */\n      tag_339\n        /* \"#utility.yul\":18991:18995   */\n      dup2\n        /* \"#utility.yul\":18865:18996   */\n      tag_143\n      jump\t// in\n    tag_339:\n        /* \"#utility.yul\":18857:18996   */\n      swap1\n      pop\n        /* \"#utility.yul\":19043:19052   */\n      dup2\n        /* \"#utility.yul\":19037:19041   */\n      dup2\n        /* \"#utility.yul\":19033:19053   */\n      sub\n        /* \"#utility.yul\":19028:19030   */\n      0x40\n        /* \"#utility.yul\":19017:19026   */\n      dup4\n        /* \"#utility.yul\":19013:19031   */\n      add\n        /* \"#utility.yul\":19006:19054   */\n      mstore\n        /* \"#utility.yul\":19071:19202   */\n      tag_340\n        /* \"#utility.yul\":19197:19201   */\n      dup2\n        /* \"#utility.yul\":19071:19202   */\n      tag_145\n      jump\t// in\n    tag_340:\n        /* \"#utility.yul\":19063:19202   */\n      swap1\n      pop\n        /* \"#utility.yul\":19212:19284   */\n      tag_341\n        /* \"#utility.yul\":19280:19282   */\n      0x60\n        /* \"#utility.yul\":19269:19278   */\n      dup4\n        /* \"#utility.yul\":19265:19283   */\n      add\n        /* \"#utility.yul\":19256:19262   */\n      dup7\n        /* \"#utility.yul\":19212:19284   */\n      tag_118\n      jump\t// in\n    tag_341:\n        /* \"#utility.yul\":19294:19367   */\n      tag_342\n        /* \"#utility.yul\":19362:19365   */\n      0x80\n        /* \"#utility.yul\":19351:19360   */\n      dup4\n        /* \"#utility.yul\":19347:19366   */\n      add\n        /* \"#utility.yul\":19338:19344   */\n      dup6\n        /* \"#utility.yul\":19294:19367   */\n      tag_118\n      jump\t// in\n    tag_342:\n        /* \"#utility.yul\":19377:19450   */\n      tag_343\n        /* \"#utility.yul\":19445:19448   */\n      0xa0\n        /* \"#utility.yul\":19434:19443   */\n      dup4\n        /* \"#utility.yul\":19430:19449   */\n      add\n        /* \"#utility.yul\":19421:19427   */\n      dup5\n        /* \"#utility.yul\":19377:19450   */\n      tag_113\n      jump\t// in\n    tag_343:\n        /* \"#utility.yul\":18288:19457   */\n      swap6\n      swap5\n      pop\n      pop\n      pop\n      pop\n      pop\n      jump\t// out\n        /* \"#utility.yul\":19463:19621   */\n    tag_146:\n        /* \"#utility.yul\":19603:19613   */\n      0x52657461696c6572000000000000000000000000000000000000000000000000\n        /* \"#utility.yul\":19599:19600   */\n      0x00\n        /* \"#utility.yul\":19591:19597   */\n      dup3\n        /* \"#utility.yul\":19587:19601   */\n      add\n        /* \"#utility.yul\":19580:19614   */\n      mstore\n        /* \"#utility.yul\":19463:19621   */\n      pop\n      jump\t// out\n        /* \"#utility.yul\":19627:19992   */\n    tag_147:\n        /* \"#utility.yul\":19769:19772   */\n      0x00\n        /* \"#utility.yul\":19790:19856   */\n      tag_346\n        /* \"#utility.yul\":19854:19855   */\n      0x08\n        /* \"#utility.yul\":19849:19852   */\n      dup4\n        /* \"#utility.yul\":19790:19856   */\n      tag_115\n      jump\t// in\n    tag_346:\n        /* \"#utility.yul\":19783:19856   */\n      swap2\n      pop\n        /* \"#utility.yul\":19865:19958   */\n      tag_347\n        /* \"#utility.yul\":19954:19957   */\n      dup3\n        /* \"#utility.yul\":19865:19958   */\n      tag_146\n      jump\t// in\n    tag_347:\n        /* \"#utility.yul\":19983:19985   */\n      0x20\n        /* \"#utility.yul\":19978:19981   */\n      dup3\n        /* \"#utility.yul\":19974:19986   */\n      add\n        /* \"#utility.yul\":19967:19986   */\n      swap1\n      pop\n        /* \"#utility.yul\":19627:19992   */\n      swap2\n      swap1\n      pop\n      jump\t// out\n        /* \"#utility.yul\":19998:21167   */\n    tag_83:\n        /* \"#utility.yul\":20377:20381   */\n      0x00\n        /* \"#utility.yul\":20415:20418   */\n      0xc0\n        /* \"#utility.yul\":20404:20413   */\n      dup3\n        /* \"#utility.yul\":20400:20419   */\n      add\n        /* \"#utility.yul\":20392:20419   */\n      swap1\n      pop\n        /* \"#utility.yul\":20429:20500   */\n      tag_349\n        /* \"#utility.yul\":20497:20498   */\n      0x00\n        /* \"#utility.yul\":20486:20495   */\n      dup4\n        /* \"#utility.yul\":20482:20499   */\n      add\n        /* \"#utility.yul\":20473:20479   */\n      dup8\n        /* \"#utility.yul\":20429:20500   */\n      tag_113\n      jump\t// in\n    tag_349:\n        /* \"#utility.yul\":20547:20556   */\n      dup2\n        /* \"#utility.yul\":20541:20545   */\n      dup2\n        /* \"#utility.yul\":20537:20557   */\n      sub\n        /* \"#utility.yul\":20532:20534   */\n      0x20\n        /* \"#utility.yul\":20521:20530   */\n      dup4\n        /* \"#utility.yul\":20517:20535   */\n      add\n        /* \"#utility.yul\":20510:20558   */\n      mstore\n        /* \"#utility.yul\":20575:20706   */\n      tag_350\n        /* \"#utility.yul\":20701:20705   */\n      dup2\n        /* \"#utility.yul\":20575:20706   */\n      tag_145\n      jump\t// in\n    tag_350:\n        /* \"#utility.yul\":20567:20706   */\n      swap1\n      pop\n        /* \"#utility.yul\":20753:20762   */\n      dup2\n        /* \"#utility.yul\":20747:20751   */\n      dup2\n        /* \"#utility.yul\":20743:20763   */\n      sub\n        /* \"#utility.yul\":20738:20740   */\n      0x40\n        /* \"#utility.yul\":20727:20736   */\n      dup4\n        /* \"#utility.yul\":20723:20741   */\n      add\n        /* \"#utility.yul\":20716:20764   */\n      mstore\n        /* \"#utility.yul\":20781:20912   */\n      tag_351\n        /* \"#utility.yul\":20907:20911   */\n      dup2\n        /* \"#utility.yul\":20781:20912   */\n      tag_147\n      jump\t// in\n    tag_351:\n        /* \"#utility.yul\":20773:20912   */\n      swap1\n      pop\n        /* \"#utility.yul\":20922:20994   */\n      tag_352\n        /* \"#utility.yul\":20990:20992   */\n      0x60\n        /* \"#utility.yul\":20979:20988   */\n      dup4\n        /* \"#utility.yul\":20975:20993   */\n      add\n        /* \"#utility.yul\":20966:20972   */\n      dup7\n        /* \"#utility.yul\":20922:20994   */\n      tag_118\n      jump\t// in\n    tag_352:\n        /* \"#utility.yul\":21004:21077   */\n      tag_353\n        /* \"#utility.yul\":21072:21075   */\n      0x80\n        /* \"#utility.yul\":21061:21070   */\n      dup4\n        /* \"#utility.yul\":21057:21076   */\n      add\n        /* \"#utility.yul\":21048:21054   */\n      dup6\n        /* \"#utility.yul\":21004:21077   */\n      tag_118\n      jump\t// in\n    tag_353:\n        /* \"#utility.yul\":21087:21160   */\n      tag_354\n        /* \"#utility.yul\":21155:21158   */\n      0xa0\n        /* \"#utility.yul\":21144:21153   */\n      dup4\n        /* \"#utility.yul\":21140:21159   */\n      add\n        /* \"#utility.yul\":21131:21137   */\n      dup5\n        /* \"#utility.yul\":21087:21160   */\n      tag_113\n      jump\t// in\n    tag_354:\n        /* \"#utility.yul\":19998:21167   */\n      swap6\n      swap5\n      pop\n      pop\n      pop\n      pop\n      pop\n      jump\t// out\n        /* \"#utility.yul\":21173:21343   */\n    tag_148:\n        /* \"#utility.yul\":21313:21335   */\n      0x50726f6475637420616c726561647920736f6c64000000000000000000000000\n        /* \"#utility.yul\":21309:21310   */\n      0x00\n        /* \"#utility.yul\":21301:21307   */\n      dup3\n        /* \"#utility.yul\":21297:21311   */\n      add\n        /* \"#utility.yul\":21290:21336   */\n      mstore\n        /* \"#utility.yul\":21173:21343   */\n      pop\n      jump\t// out\n        /* \"#utility.yul\":21349:21715   */\n    tag_149:\n        /* \"#utility.yul\":21491:21494   */\n      0x00\n        /* \"#utility.yul\":21512:21579   */\n      tag_357\n        /* \"#utility.yul\":21576:21578   */\n      0x14\n        /* \"#utility.yul\":21571:21574   */\n      dup4\n        /* \"#utility.yul\":21512:21579   */\n      tag_115\n      jump\t// in\n    tag_357:\n        /* \"#utility.yul\":21505:21579   */\n      swap2\n      pop\n        /* \"#utility.yul\":21588:21681   */\n      tag_358\n        /* \"#utility.yul\":21677:21680   */\n      dup3\n        /* \"#utility.yul\":21588:21681   */\n      tag_148\n      jump\t// in\n    tag_358:\n        /* \"#utility.yul\":21706:21708   */\n      0x20\n        /* \"#utility.yul\":21701:21704   */\n      dup3\n        /* \"#utility.yul\":21697:21709   */\n      add\n        /* \"#utility.yul\":21690:21709   */\n      swap1\n      pop\n        /* \"#utility.yul\":21349:21715   */\n      swap2\n      swap1\n      pop\n      jump\t// out\n        /* \"#utility.yul\":21721:22140   */\n    tag_90:\n        /* \"#utility.yul\":21887:21891   */\n      0x00\n        /* \"#utility.yul\":21925:21927   */\n      0x20\n        /* \"#utility.yul\":21914:21923   */\n      dup3\n        /* \"#utility.yul\":21910:21928   */\n      add\n        /* \"#utility.yul\":21902:21928   */\n      swap1\n      pop\n        /* \"#utility.yul\":21974:21983   */\n      dup2\n        /* \"#utility.yul\":21968:21972   */\n      dup2\n        /* \"#utility.yul\":21964:21984   */\n      sub\n        /* \"#utility.yul\":21960:21961   */\n      0x00\n        /* \"#utility.yul\":21949:21958   */\n      dup4\n        /* \"#utility.yul\":21945:21962   */\n      add\n        /* \"#utility.yul\":21938:21985   */\n      mstore\n        /* \"#utility.yul\":22002:22133   */\n      tag_360\n        /* \"#utility.yul\":22128:22132   */\n      dup2\n        /* \"#utility.yul\":22002:22133   */\n      tag_149\n      jump\t// in\n    tag_360:\n        /* \"#utility.yul\":21994:22133   */\n      swap1\n      pop\n        /* \"#utility.yul\":21721:22140   */\n      swap2\n      swap1\n      pop\n      jump\t// out\n        /* \"#utility.yul\":22146:22478   */\n    tag_92:\n        /* \"#utility.yul\":22267:22271   */\n      0x00\n        /* \"#utility.yul\":22305:22307   */\n      0x40\n        /* \"#utility.yul\":22294:22303   */\n      dup3\n        /* \"#utility.yul\":22290:22308   */\n      add\n        /* \"#utility.yul\":22282:22308   */\n      swap1\n      pop\n        /* \"#utility.yul\":22318:22389   */\n      tag_362\n        /* \"#utility.yul\":22386:22387   */\n      0x00\n        /* \"#utility.yul\":22375:22384   */\n      dup4\n        /* \"#utility.yul\":22371:22388   */\n      add\n        /* \"#utility.yul\":22362:22368   */\n      dup6\n        /* \"#utility.yul\":22318:22389   */\n      tag_113\n      jump\t// in\n    tag_362:\n        /* \"#utility.yul\":22399:22471   */\n      tag_363\n        /* \"#utility.yul\":22467:22469   */\n      0x20\n        /* \"#utility.yul\":22456:22465   */\n      dup4\n        /* \"#utility.yul\":22452:22470   */\n      add\n        /* \"#utility.yul\":22443:22449   */\n      dup5\n        /* \"#utility.yul\":22399:22471   */\n      tag_118\n      jump\t// in\n    tag_363:\n        /* \"#utility.yul\":22146:22478   */\n      swap4\n      swap3\n      pop\n      pop\n      pop\n      jump\t// out\n\n    auxdata: 0xa264697066735822122076ac27026eda0b75340aa6ed53c83e096aff857e85f0a44bad08e449e3b8a4a264736f6c63430008190033\n}\n",
				"bytecode": {
					"linkReferences": {},
					"object": "6080604052348015600e575f80fd5b506117258061001c5f395ff3fe608060405234801561000f575f80fd5b5060043610610060575f3560e01c80630cd3fb4f1461006457806375476b7d146100805780637acc0b201461009c57806397b00581146100d7578063c21f9b99146100f3578063e0f6ef871461010f575b5f80fd5b61007e60048036038101906100799190610d78565b61012d565b005b61009a60048036038101906100959190610e14565b6103c7565b005b6100b660048036038101906100b19190610e94565b6105b6565b6040516100ce9c9b9a99989796959493929190610f57565b60405180910390f35b6100f160048036038101906100ec9190610e14565b610892565b005b61010d60048036038101906101089190610e94565b610a81565b005b610117610b98565b604051610124919061102b565b60405180910390f35b60015f81548092919061013f90611071565b919050555060405180610180016040528060015481526020018581526020018481526020018373ffffffffffffffffffffffffffffffffffffffff16815260200182815260200160405180602001604052805f81525081526020015f73ffffffffffffffffffffffffffffffffffffffff1681526020015f815260200160405180602001604052805f81525081526020015f73ffffffffffffffffffffffffffffffffffffffff1681526020015f81526020015f15158152505f8060015481526020019081526020015f205f820151815f0155602082015181600101908161022791906112b2565b50604082015181600201908161023d91906112b2565b506060820151816003015f6101000a81548173ffffffffffffffffffffffffffffffffffffffff021916908373ffffffffffffffffffffffffffffffffffffffff1602179055506080820151816004015560a08201518160050190816102a391906112b2565b5060c0820151816006015f6101000a81548173ffffffffffffffffffffffffffffffffffffffff021916908373ffffffffffffffffffffffffffffffffffffffff16021790555060e0820151816007015561010082015181600801908161030a91906112b2565b50610120820151816009015f6101000a81548173ffffffffffffffffffffffffffffffffffffffff021916908373ffffffffffffffffffffffffffffffffffffffff16021790555061014082015181600a015561016082015181600b015f6101000a81548160ff0219169083151502179055509050507f182d7ef818cea22cbaca1d1945f72232645b1fed3cd3a61ff41d970329bd5cb7600154858585856040516103b9959493929190611381565b60405180910390a150505050565b60015484111580156103d857505f84115b610417576040517f08c379a000000000000000000000000000000000000000000000000000000000815260040161040e9061142a565b60405180910390fd5b5f73ffffffffffffffffffffffffffffffffffffffff165f808681526020019081526020015f206006015f9054906101000a900473ffffffffffffffffffffffffffffffffffffffff1673ffffffffffffffffffffffffffffffffffffffff16146104b7576040517f08c379a00000000000000000000000000000000000000000000000000000000081526004016104ae90611492565b60405180910390fd5b825f808681526020019081526020015f2060050190816104d791906112b2565b50815f808681526020019081526020015f206006015f6101000a81548173ffffffffffffffffffffffffffffffffffffffff021916908373ffffffffffffffffffffffffffffffffffffffff160217905550805f808681526020019081526020015f20600701819055507fa34850b3494add08388e7c4ea0842b9fdfa48c1b7e7bcb0288c7678e8b27ce37845f808781526020019081526020015f206003015f9054906101000a900473ffffffffffffffffffffffffffffffffffffffff1684846040516105a89493929190611544565b60405180910390a150505050565b5f602052805f5260405f205f91509050805f0154908060010180546105da906110e5565b80601f0160208091040260200160405190810160405280929190818152602001828054610606906110e5565b80156106515780601f1061062857610100808354040283529160200191610651565b820191905f5260205f20905b81548152906001019060200180831161063457829003601f168201915b505050505090806002018054610666906110e5565b80601f0160208091040260200160405190810160405280929190818152602001828054610692906110e5565b80156106dd5780601f106106b4576101008083540402835291602001916106dd565b820191905f5260205f20905b8154815290600101906020018083116106c057829003601f168201915b505050505090806003015f9054906101000a900473ffffffffffffffffffffffffffffffffffffffff169080600401549080600501805461071d906110e5565b80601f0160208091040260200160405190810160405280929190818152602001828054610749906110e5565b80156107945780601f1061076b57610100808354040283529160200191610794565b820191905f5260205f20905b81548152906001019060200180831161077757829003601f168201915b505050505090806006015f9054906101000a900473ffffffffffffffffffffffffffffffffffffffff16908060070154908060080180546107d4906110e5565b80601f0160208091040260200160405190810160405280929190818152602001828054610800906110e5565b801561084b5780601f106108225761010080835404028352916020019161084b565b820191905f5260205f20905b81548152906001019060200180831161082e57829003601f168201915b505050505090806009015f9054906101000a900473ffffffffffffffffffffffffffffffffffffffff169080600a01549080600b015f9054906101000a900460ff1690508c565b60015484111580156108a357505f84115b6108e2576040517f08c379a00000000000000000000000000000000000000000000000000000000081526004016108d99061142a565b60405180910390fd5b5f73ffffffffffffffffffffffffffffffffffffffff165f808681526020019081526020015f206009015f9054906101000a900473ffffffffffffffffffffffffffffffffffffffff1673ffffffffffffffffffffffffffffffffffffffff1614610982576040517f08c379a000000000000000000000000000000000000000000000000000000000815260040161097990611492565b60405180910390fd5b825f808681526020019081526020015f2060080190816109a291906112b2565b50815f808681526020019081526020015f206009015f6101000a81548173ffffffffffffffffffffffffffffffffffffffff021916908373ffffffffffffffffffffffffffffffffffffffff160217905550805f808681526020019081526020015f20600a01819055507fa34850b3494add08388e7c4ea0842b9fdfa48c1b7e7bcb0288c7678e8b27ce37845f808781526020019081526020015f206006015f9054906101000a900473ffffffffffffffffffffffffffffffffffffffff168484604051610a7394939291906115f7565b60405180910390a150505050565b6001548111158015610a9257505f81115b610ad1576040517f08c379a0000000000000000000000000000000000000000000000000000000008152600401610ac89061142a565b60405180910390fd5b5f808281526020019081526020015f20600b015f9054906101000a900460ff1615610b31576040517f08c379a0000000000000000000000000000000000000000000000000000000008152600401610b28906116aa565b60405180910390fd5b60015f808381526020019081526020015f20600b015f6101000a81548160ff0219169083151502179055507fbdb79f0b777669cf4d01754a6d6b461bdd8d0f18b57c036e7d4bf3a567f337848133604051610b8d9291906116c8565b60405180910390a150565b60015481565b5f604051905090565b5f80fd5b5f80fd5b5f80fd5b5f80fd5b5f601f19601f8301169050919050565b7f4e487b71000000000000000000000000000000000000000000000000000000005f52604160045260245ffd5b610bfd82610bb7565b810181811067ffffffffffffffff82111715610c1c57610c1b610bc7565b5b80604052505050565b5f610c2e610b9e565b9050610c3a8282610bf4565b919050565b5f67ffffffffffffffff821115610c5957610c58610bc7565b5b610c6282610bb7565b9050602081019050919050565b828183375f83830152505050565b5f610c8f610c8a84610c3f565b610c25565b905082815260208101848484011115610cab57610caa610bb3565b5b610cb6848285610c6f565b509392505050565b5f82601f830112610cd257610cd1610baf565b5b8135610ce2848260208601610c7d565b91505092915050565b5f73ffffffffffffffffffffffffffffffffffffffff82169050919050565b5f610d1482610ceb565b9050919050565b610d2481610d0a565b8114610d2e575f80fd5b50565b5f81359050610d3f81610d1b565b92915050565b5f819050919050565b610d5781610d45565b8114610d61575f80fd5b50565b5f81359050610d7281610d4e565b92915050565b5f805f8060808587031215610d9057610d8f610ba7565b5b5f85013567ffffffffffffffff811115610dad57610dac610bab565b5b610db987828801610cbe565b945050602085013567ffffffffffffffff811115610dda57610dd9610bab565b5b610de687828801610cbe565b9350506040610df787828801610d31565b9250506060610e0887828801610d64565b91505092959194509250565b5f805f8060808587031215610e2c57610e2b610ba7565b5b5f610e3987828801610d64565b945050602085013567ffffffffffffffff811115610e5a57610e59610bab565b5b610e6687828801610cbe565b9350506040610e7787828801610d31565b9250506060610e8887828801610d64565b91505092959194509250565b5f60208284031215610ea957610ea8610ba7565b5b5f610eb684828501610d64565b91505092915050565b610ec881610d45565b82525050565b5f81519050919050565b5f82825260208201905092915050565b8281835e5f83830152505050565b5f610f0082610ece565b610f0a8185610ed8565b9350610f1a818560208601610ee8565b610f2381610bb7565b840191505092915050565b610f3781610d0a565b82525050565b5f8115159050919050565b610f5181610f3d565b82525050565b5f61018082019050610f6b5f83018f610ebf565b8181036020830152610f7d818e610ef6565b90508181036040830152610f91818d610ef6565b9050610fa0606083018c610f2e565b610fad608083018b610ebf565b81810360a0830152610fbf818a610ef6565b9050610fce60c0830189610f2e565b610fdb60e0830188610ebf565b818103610100830152610fee8187610ef6565b9050610ffe610120830186610f2e565b61100c610140830185610ebf565b61101a610160830184610f48565b9d9c50505050505050505050505050565b5f60208201905061103e5f830184610ebf565b92915050565b7f4e487b71000000000000000000000000000000000000000000000000000000005f52601160045260245ffd5b5f61107b82610d45565b91507fffffffffffffffffffffffffffffffffffffffffffffffffffffffffffffffff82036110ad576110ac611044565b5b600182019050919050565b7f4e487b71000000000000000000000000000000000000000000000000000000005f52602260045260245ffd5b5f60028204905060018216806110fc57607f821691505b60208210810361110f5761110e6110b8565b5b50919050565b5f819050815f5260205f209050919050565b5f6020601f8301049050919050565b5f82821b905092915050565b5f600883026111717fffffffffffffffffffffffffffffffffffffffffffffffffffffffffffffffff82611136565b61117b8683611136565b95508019841693508086168417925050509392505050565b5f819050919050565b5f6111b66111b16111ac84610d45565b611193565b610d45565b9050919050565b5f819050919050565b6111cf8361119c565b6111e36111db826111bd565b848454611142565b825550505050565b5f90565b6111f76111eb565b6112028184846111c6565b505050565b5b818110156112255761121a5f826111ef565b600181019050611208565b5050565b601f82111561126a5761123b81611115565b61124484611127565b81016020851015611253578190505b61126761125f85611127565b830182611207565b50505b505050565b5f82821c905092915050565b5f61128a5f198460080261126f565b1980831691505092915050565b5f6112a2838361127b565b9150826002028217905092915050565b6112bb82610ece565b67ffffffffffffffff8111156112d4576112d3610bc7565b5b6112de82546110e5565b6112e9828285611229565b5f60209050601f83116001811461131a575f8415611308578287015190505b6113128582611297565b865550611379565b601f19841661132886611115565b5f5b8281101561134f5784890151825560018201915060208501945060208101905061132a565b8683101561136c5784890151611368601f89168261127b565b8355505b6001600288020188555050505b505050505050565b5f60a0820190506113945f830188610ebf565b81810360208301526113a68187610ef6565b905081810360408301526113ba8186610ef6565b90506113c96060830185610f2e565b6113d66080830184610ebf565b9695505050505050565b7f496e76616c69642070726f6475637420494400000000000000000000000000005f82015250565b5f611414601283610ed8565b915061141f826113e0565b602082019050919050565b5f6020820190508181035f83015261144181611408565b9050919050565b7f50726f6475637420616c7265616479207472616e7366657272656400000000005f82015250565b5f61147c601b83610ed8565b915061148782611448565b602082019050919050565b5f6020820190508181035f8301526114a981611470565b9050919050565b7f50726f64756365720000000000000000000000000000000000000000000000005f82015250565b5f6114e4600883610ed8565b91506114ef826114b0565b602082019050919050565b7f4469737472696275746f720000000000000000000000000000000000000000005f82015250565b5f61152e600b83610ed8565b9150611539826114fa565b602082019050919050565b5f60c0820190506115575f830187610ebf565b8181036020830152611568816114d8565b9050818103604083015261157b81611522565b905061158a6060830186610f2e565b6115976080830185610f2e565b6115a460a0830184610ebf565b95945050505050565b7f52657461696c65720000000000000000000000000000000000000000000000005f82015250565b5f6115e1600883610ed8565b91506115ec826115ad565b602082019050919050565b5f60c08201905061160a5f830187610ebf565b818103602083015261161b81611522565b9050818103604083015261162e816115d5565b905061163d6060830186610f2e565b61164a6080830185610f2e565b61165760a0830184610ebf565b95945050505050565b7f50726f6475637420616c726561647920736f6c640000000000000000000000005f82015250565b5f611694601483610ed8565b915061169f82611660565b602082019050919050565b5f6020820190508181035f8301526116c181611688565b9050919050565b5f6040820190506116db5f830185610ebf565b6116e86020830184610f2e565b939250505056fea264697066735822122076ac27026eda0b75340aa6ed53c83e096aff857e85f0a44bad08e449e3b8a4a264736f6c63430008190033",
					"opcodes": "PUSH1 0x80 PUSH1 0x40 MSTORE CALLVALUE DUP1 ISZERO PUSH1 0xE JUMPI PUSH0 DUP1 REVERT JUMPDEST POP PUSH2 0x1725 DUP1 PUSH2 0x1C PUSH0 CODECOPY PUSH0 RETURN INVALID PUSH1 0x80 PUSH1 0x40 MSTORE CALLVALUE DUP1 ISZERO PUSH2 0xF JUMPI PUSH0 DUP1 REVERT JUMPDEST POP PUSH1 0x4 CALLDATASIZE LT PUSH2 0x60 JUMPI PUSH0 CALLDATALOAD PUSH1 0xE0 SHR DUP1 PUSH4 0xCD3FB4F EQ PUSH2 0x64 JUMPI DUP1 PUSH4 0x75476B7D EQ PUSH2 0x80 JUMPI DUP1 PUSH4 0x7ACC0B20 EQ PUSH2 0x9C JUMPI DUP1 PUSH4 0x97B00581 EQ PUSH2 0xD7 JUMPI DUP1 PUSH4 0xC21F9B99 EQ PUSH2 0xF3 JUMPI DUP1 PUSH4 0xE0F6EF87 EQ PUSH2 0x10F JUMPI JUMPDEST PUSH0 DUP1 REVERT JUMPDEST PUSH2 0x7E PUSH1 0x4 DUP1 CALLDATASIZE SUB DUP2 ADD SWAP1 PUSH2 0x79 SWAP2 SWAP1 PUSH2 0xD78 JUMP JUMPDEST PUSH2 0x12D JUMP JUMPDEST STOP JUMPDEST PUSH2 0x9A PUSH1 0x4 DUP1 CALLDATASIZE SUB DUP2 ADD SWAP1 PUSH2 0x95 SWAP2 SWAP1 PUSH2 0xE14 JUMP JUMPDEST PUSH2 0x3C7 JUMP JUMPDEST STOP JUMPDEST PUSH2 0xB6 PUSH1 0x4 DUP1 CALLDATASIZE SUB DUP2 ADD SWAP1 PUSH2 0xB1 SWAP2 SWAP1 PUSH2 0xE94 JUMP JUMPDEST PUSH2 0x5B6 JUMP JUMPDEST PUSH1 0x40 MLOAD PUSH2 0xCE SWAP13 SWAP12 SWAP11 SWAP10 SWAP9 SWAP8 SWAP7 SWAP6 SWAP5 SWAP4 SWAP3 SWAP2 SWAP1 PUSH2 0xF57 JUMP JUMPDEST PUSH1 0x40 MLOAD DUP1 SWAP2 SUB SWAP1 RETURN JUMPDEST PUSH2 0xF1 PUSH1 0x4 DUP1 CALLDATASIZE SUB DUP2 ADD SWAP1 PUSH2 0xEC SWAP2 SWAP1 PUSH2 0xE14 JUMP JUMPDEST PUSH2 0x892 JUMP JUMPDEST STOP JUMPDEST PUSH2 0x10D PUSH1 0x4 DUP1 CALLDATASIZE SUB DUP2 ADD SWAP1 PUSH2 0x108 SWAP2 SWAP1 PUSH2 0xE94 JUMP JUMPDEST PUSH2 0xA81 JUMP JUMPDEST STOP JUMPDEST PUSH2 0x117 PUSH2 0xB98 JUMP JUMPDEST PUSH1 0x40 MLOAD PUSH2 0x124 SWAP2 SWAP1 PUSH2 0x102B JUMP JUMPDEST PUSH1 0x40 MLOAD DUP1 SWAP2 SUB SWAP1 RETURN JUMPDEST PUSH1 0x1 PUSH0 DUP2 SLOAD DUP1 SWAP3 SWAP2 SWAP1 PUSH2 0x13F SWAP1 PUSH2 0x1071 JUMP JUMPDEST SWAP2 SWAP1 POP SSTORE POP PUSH1 0x40 MLOAD DUP1 PUSH2 0x180 ADD PUSH1 0x40 MSTORE DUP1 PUSH1 0x1 SLOAD DUP2 MSTORE PUSH1 0x20 ADD DUP6 DUP2 MSTORE PUSH1 0x20 ADD DUP5 DUP2 MSTORE PUSH1 0x20 ADD DUP4 PUSH20 0xFFFFFFFFFFFFFFFFFFFFFFFFFFFFFFFFFFFFFFFF AND DUP2 MSTORE PUSH1 0x20 ADD DUP3 DUP2 MSTORE PUSH1 0x20 ADD PUSH1 0x40 MLOAD DUP1 PUSH1 0x20 ADD PUSH1 0x40 MSTORE DUP1 PUSH0 DUP2 MSTORE POP DUP2 MSTORE PUSH1 0x20 ADD PUSH0 PUSH20 0xFFFFFFFFFFFFFFFFFFFFFFFFFFFFFFFFFFFFFFFF AND DUP2 MSTORE PUSH1 0x20 ADD PUSH0 DUP2 MSTORE PUSH1 0x20 ADD PUSH1 0x40 MLOAD DUP1 PUSH1 0x20 ADD PUSH1 0x40 MSTORE DUP1 PUSH0 DUP2 MSTORE POP DUP2 MSTORE PUSH1 0x20 ADD PUSH0 PUSH20 0xFFFFFFFFFFFFFFFFFFFFFFFFFFFFFFFFFFFFFFFF AND DUP2 MSTORE PUSH1 0x20 ADD PUSH0 DUP2 MSTORE PUSH1 0x20 ADD PUSH0 ISZERO ISZERO DUP2 MSTORE POP PUSH0 DUP1 PUSH1 0x1 SLOAD DUP2 MSTORE PUSH1 0x20 ADD SWAP1 DUP2 MSTORE PUSH1 0x20 ADD PUSH0 KECCAK256 PUSH0 DUP3 ADD MLOAD DUP2 PUSH0 ADD SSTORE PUSH1 0x20 DUP3 ADD MLOAD DUP2 PUSH1 0x1 ADD SWAP1 DUP2 PUSH2 0x227 SWAP2 SWAP1 PUSH2 0x12B2 JUMP JUMPDEST POP PUSH1 0x40 DUP3 ADD MLOAD DUP2 PUSH1 0x2 ADD SWAP1 DUP2 PUSH2 0x23D SWAP2 SWAP1 PUSH2 0x12B2 JUMP JUMPDEST POP PUSH1 0x60 DUP3 ADD MLOAD DUP2 PUSH1 0x3 ADD PUSH0 PUSH2 0x100 EXP DUP2 SLOAD DUP2 PUSH20 0xFFFFFFFFFFFFFFFFFFFFFFFFFFFFFFFFFFFFFFFF MUL NOT AND SWAP1 DUP4 PUSH20 0xFFFFFFFFFFFFFFFFFFFFFFFFFFFFFFFFFFFFFFFF AND MUL OR SWAP1 SSTORE POP PUSH1 0x80 DUP3 ADD MLOAD DUP2 PUSH1 0x4 ADD SSTORE PUSH1 0xA0 DUP3 ADD MLOAD DUP2 PUSH1 0x5 ADD SWAP1 DUP2 PUSH2 0x2A3 SWAP2 SWAP1 PUSH2 0x12B2 JUMP JUMPDEST POP PUSH1 0xC0 DUP3 ADD MLOAD DUP2 PUSH1 0x6 ADD PUSH0 PUSH2 0x100 EXP DUP2 SLOAD DUP2 PUSH20 0xFFFFFFFFFFFFFFFFFFFFFFFFFFFFFFFFFFFFFFFF MUL NOT AND SWAP1 DUP4 PUSH20 0xFFFFFFFFFFFFFFFFFFFFFFFFFFFFFFFFFFFFFFFF AND MUL OR SWAP1 SSTORE POP PUSH1 0xE0 DUP3 ADD MLOAD DUP2 PUSH1 0x7 ADD SSTORE PUSH2 0x100 DUP3 ADD MLOAD DUP2 PUSH1 0x8 ADD SWAP1 DUP2 PUSH2 0x30A SWAP2 SWAP1 PUSH2 0x12B2 JUMP JUMPDEST POP PUSH2 0x120 DUP3 ADD MLOAD DUP2 PUSH1 0x9 ADD PUSH0 PUSH2 0x100 EXP DUP2 SLOAD DUP2 PUSH20 0xFFFFFFFFFFFFFFFFFFFFFFFFFFFFFFFFFFFFFFFF MUL NOT AND SWAP1 DUP4 PUSH20 0xFFFFFFFFFFFFFFFFFFFFFFFFFFFFFFFFFFFFFFFF AND MUL OR SWAP1 SSTORE POP PUSH2 0x140 DUP3 ADD MLOAD DUP2 PUSH1 0xA ADD SSTORE PUSH2 0x160 DUP3 ADD MLOAD DUP2 PUSH1 0xB ADD PUSH0 PUSH2 0x100 EXP DUP2 SLOAD DUP2 PUSH1 0xFF MUL NOT AND SWAP1 DUP4 ISZERO ISZERO MUL OR SWAP1 SSTORE POP SWAP1 POP POP PUSH32 0x182D7EF818CEA22CBACA1D1945F72232645B1FED3CD3A61FF41D970329BD5CB7 PUSH1 0x1 SLOAD DUP6 DUP6 DUP6 DUP6 PUSH1 0x40 MLOAD PUSH2 0x3B9 SWAP6 SWAP5 SWAP4 SWAP3 SWAP2 SWAP1 PUSH2 0x1381 JUMP JUMPDEST PUSH1 0x40 MLOAD DUP1 SWAP2 SUB SWAP1 LOG1 POP POP POP POP JUMP JUMPDEST PUSH1 0x1 SLOAD DUP5 GT ISZERO DUP1 ISZERO PUSH2 0x3D8 JUMPI POP PUSH0 DUP5 GT JUMPDEST PUSH2 0x417 JUMPI PUSH1 0x40 MLOAD PUSH32 0x8C379A000000000000000000000000000000000000000000000000000000000 DUP2 MSTORE PUSH1 0x4 ADD PUSH2 0x40E SWAP1 PUSH2 0x142A JUMP JUMPDEST PUSH1 0x40 MLOAD DUP1 SWAP2 SUB SWAP1 REVERT JUMPDEST PUSH0 PUSH20 0xFFFFFFFFFFFFFFFFFFFFFFFFFFFFFFFFFFFFFFFF AND PUSH0 DUP1 DUP7 DUP2 MSTORE PUSH1 0x20 ADD SWAP1 DUP2 MSTORE PUSH1 0x20 ADD PUSH0 KECCAK256 PUSH1 0x6 ADD PUSH0 SWAP1 SLOAD SWAP1 PUSH2 0x100 EXP SWAP1 DIV PUSH20 0xFFFFFFFFFFFFFFFFFFFFFFFFFFFFFFFFFFFFFFFF AND PUSH20 0xFFFFFFFFFFFFFFFFFFFFFFFFFFFFFFFFFFFFFFFF AND EQ PUSH2 0x4B7 JUMPI PUSH1 0x40 MLOAD PUSH32 0x8C379A000000000000000000000000000000000000000000000000000000000 DUP2 MSTORE PUSH1 0x4 ADD PUSH2 0x4AE SWAP1 PUSH2 0x1492 JUMP JUMPDEST PUSH1 0x40 MLOAD DUP1 SWAP2 SUB SWAP1 REVERT JUMPDEST DUP3 PUSH0 DUP1 DUP7 DUP2 MSTORE PUSH1 0x20 ADD SWAP1 DUP2 MSTORE PUSH1 0x20 ADD PUSH0 KECCAK256 PUSH1 0x5 ADD SWAP1 DUP2 PUSH2 0x4D7 SWAP2 SWAP1 PUSH2 0x12B2 JUMP JUMPDEST POP DUP2 PUSH0 DUP1 DUP7 DUP2 MSTORE PUSH1 0x20 ADD SWAP1 DUP2 MSTORE PUSH1 0x20 ADD PUSH0 KECCAK256 PUSH1 0x6 ADD PUSH0 PUSH2 0x100 EXP DUP2 SLOAD DUP2 PUSH20 0xFFFFFFFFFFFFFFFFFFFFFFFFFFFFFFFFFFFFFFFF MUL NOT AND SWAP1 DUP4 PUSH20 0xFFFFFFFFFFFFFFFFFFFFFFFFFFFFFFFFFFFFFFFF AND MUL OR SWAP1 SSTORE POP DUP1 PUSH0 DUP1 DUP7 DUP2 MSTORE PUSH1 0x20 ADD SWAP1 DUP2 MSTORE PUSH1 0x20 ADD PUSH0 KECCAK256 PUSH1 0x7 ADD DUP2 SWAP1 SSTORE POP PUSH32 0xA34850B3494ADD08388E7C4EA0842B9FDFA48C1B7E7BCB0288C7678E8B27CE37 DUP5 PUSH0 DUP1 DUP8 DUP2 MSTORE PUSH1 0x20 ADD SWAP1 DUP2 MSTORE PUSH1 0x20 ADD PUSH0 KECCAK256 PUSH1 0x3 ADD PUSH0 SWAP1 SLOAD SWAP1 PUSH2 0x100 EXP SWAP1 DIV PUSH20 0xFFFFFFFFFFFFFFFFFFFFFFFFFFFFFFFFFFFFFFFF AND DUP5 DUP5 PUSH1 0x40 MLOAD PUSH2 0x5A8 SWAP5 SWAP4 SWAP3 SWAP2 SWAP1 PUSH2 0x1544 JUMP JUMPDEST PUSH1 0x40 MLOAD DUP1 SWAP2 SUB SWAP1 LOG1 POP POP POP POP JUMP JUMPDEST PUSH0 PUSH1 0x20 MSTORE DUP1 PUSH0 MSTORE PUSH1 0x40 PUSH0 KECCAK256 PUSH0 SWAP2 POP SWAP1 POP DUP1 PUSH0 ADD SLOAD SWAP1 DUP1 PUSH1 0x1 ADD DUP1 SLOAD PUSH2 0x5DA SWAP1 PUSH2 0x10E5 JUMP JUMPDEST DUP1 PUSH1 0x1F ADD PUSH1 0x20 DUP1 SWAP2 DIV MUL PUSH1 0x20 ADD PUSH1 0x40 MLOAD SWAP1 DUP2 ADD PUSH1 0x40 MSTORE DUP1 SWAP3 SWAP2 SWAP1 DUP2 DUP2 MSTORE PUSH1 0x20 ADD DUP3 DUP1 SLOAD PUSH2 0x606 SWAP1 PUSH2 0x10E5 JUMP JUMPDEST DUP1 ISZERO PUSH2 0x651 JUMPI DUP1 PUSH1 0x1F LT PUSH2 0x628 JUMPI PUSH2 0x100 DUP1 DUP4 SLOAD DIV MUL DUP4 MSTORE SWAP2 PUSH1 0x20 ADD SWAP2 PUSH2 0x651 JUMP JUMPDEST DUP3 ADD SWAP2 SWAP1 PUSH0 MSTORE PUSH1 0x20 PUSH0 KECCAK256 SWAP1 JUMPDEST DUP2 SLOAD DUP2 MSTORE SWAP1 PUSH1 0x1 ADD SWAP1 PUSH1 0x20 ADD DUP1 DUP4 GT PUSH2 0x634 JUMPI DUP3 SWAP1 SUB PUSH1 0x1F AND DUP3 ADD SWAP2 JUMPDEST POP POP POP POP POP SWAP1 DUP1 PUSH1 0x2 ADD DUP1 SLOAD PUSH2 0x666 SWAP1 PUSH2 0x10E5 JUMP JUMPDEST DUP1 PUSH1 0x1F ADD PUSH1 0x20 DUP1 SWAP2 DIV MUL PUSH1 0x20 ADD PUSH1 0x40 MLOAD SWAP1 DUP2 ADD PUSH1 0x40 MSTORE DUP1 SWAP3 SWAP2 SWAP1 DUP2 DUP2 MSTORE PUSH1 0x20 ADD DUP3 DUP1 SLOAD PUSH2 0x692 SWAP1 PUSH2 0x10E5 JUMP JUMPDEST DUP1 ISZERO PUSH2 0x6DD JUMPI DUP1 PUSH1 0x1F LT PUSH2 0x6B4 JUMPI PUSH2 0x100 DUP1 DUP4 SLOAD DIV MUL DUP4 MSTORE SWAP2 PUSH1 0x20 ADD SWAP2 PUSH2 0x6DD JUMP JUMPDEST DUP3 ADD SWAP2 SWAP1 PUSH0 MSTORE PUSH1 0x20 PUSH0 KECCAK256 SWAP1 JUMPDEST DUP2 SLOAD DUP2 MSTORE SWAP1 PUSH1 0x1 ADD SWAP1 PUSH1 0x20 ADD DUP1 DUP4 GT PUSH2 0x6C0 JUMPI DUP3 SWAP1 SUB PUSH1 0x1F AND DUP3 ADD SWAP2 JUMPDEST POP POP POP POP POP SWAP1 DUP1 PUSH1 0x3 ADD PUSH0 SWAP1 SLOAD SWAP1 PUSH2 0x100 EXP SWAP1 DIV PUSH20 0xFFFFFFFFFFFFFFFFFFFFFFFFFFFFFFFFFFFFFFFF AND SWAP1 DUP1 PUSH1 0x4 ADD SLOAD SWAP1 DUP1 PUSH1 0x5 ADD DUP1 SLOAD PUSH2 0x71D SWAP1 PUSH2 0x10E5 JUMP JUMPDEST DUP1 PUSH1 0x1F ADD PUSH1 0x20 DUP1 SWAP2 DIV MUL PUSH1 0x20 ADD PUSH1 0x40 MLOAD SWAP1 DUP2 ADD PUSH1 0x40 MSTORE DUP1 SWAP3 SWAP2 SWAP1 DUP2 DUP2 MSTORE PUSH1 0x20 ADD DUP3 DUP1 SLOAD PUSH2 0x749 SWAP1 PUSH2 0x10E5 JUMP JUMPDEST DUP1 ISZERO PUSH2 0x794 JUMPI DUP1 PUSH1 0x1F LT PUSH2 0x76B JUMPI PUSH2 0x100 DUP1 DUP4 SLOAD DIV MUL DUP4 MSTORE SWAP2 PUSH1 0x20 ADD SWAP2 PUSH2 0x794 JUMP JUMPDEST DUP3 ADD SWAP2 SWAP1 PUSH0 MSTORE PUSH1 0x20 PUSH0 KECCAK256 SWAP1 JUMPDEST DUP2 SLOAD DUP2 MSTORE SWAP1 PUSH1 0x1 ADD SWAP1 PUSH1 0x20 ADD DUP1 DUP4 GT PUSH2 0x777 JUMPI DUP3 SWAP1 SUB PUSH1 0x1F AND DUP3 ADD SWAP2 JUMPDEST POP POP POP POP POP SWAP1 DUP1 PUSH1 0x6 ADD PUSH0 SWAP1 SLOAD SWAP1 PUSH2 0x100 EXP SWAP1 DIV PUSH20 0xFFFFFFFFFFFFFFFFFFFFFFFFFFFFFFFFFFFFFFFF AND SWAP1 DUP1 PUSH1 0x7 ADD SLOAD SWAP1 DUP1 PUSH1 0x8 ADD DUP1 SLOAD PUSH2 0x7D4 SWAP1 PUSH2 0x10E5 JUMP JUMPDEST DUP1 PUSH1 0x1F ADD PUSH1 0x20 DUP1 SWAP2 DIV MUL PUSH1 0x20 ADD PUSH1 0x40 MLOAD SWAP1 DUP2 ADD PUSH1 0x40 MSTORE DUP1 SWAP3 SWAP2 SWAP1 DUP2 DUP2 MSTORE PUSH1 0x20 ADD DUP3 DUP1 SLOAD PUSH2 0x800 SWAP1 PUSH2 0x10E5 JUMP JUMPDEST DUP1 ISZERO PUSH2 0x84B JUMPI DUP1 PUSH1 0x1F LT PUSH2 0x822 JUMPI PUSH2 0x100 DUP1 DUP4 SLOAD DIV MUL DUP4 MSTORE SWAP2 PUSH1 0x20 ADD SWAP2 PUSH2 0x84B JUMP JUMPDEST DUP3 ADD SWAP2 SWAP1 PUSH0 MSTORE PUSH1 0x20 PUSH0 KECCAK256 SWAP1 JUMPDEST DUP2 SLOAD DUP2 MSTORE SWAP1 PUSH1 0x1 ADD SWAP1 PUSH1 0x20 ADD DUP1 DUP4 GT PUSH2 0x82E JUMPI DUP3 SWAP1 SUB PUSH1 0x1F AND DUP3 ADD SWAP2 JUMPDEST POP POP POP POP POP SWAP1 DUP1 PUSH1 0x9 ADD PUSH0 SWAP1 SLOAD SWAP1 PUSH2 0x100 EXP SWAP1 DIV PUSH20 0xFFFFFFFFFFFFFFFFFFFFFFFFFFFFFFFFFFFFFFFF AND SWAP1 DUP1 PUSH1 0xA ADD SLOAD SWAP1 DUP1 PUSH1 0xB ADD PUSH0 SWAP1 SLOAD SWAP1 PUSH2 0x100 EXP SWAP1 DIV PUSH1 0xFF AND SWAP1 POP DUP13 JUMP JUMPDEST PUSH1 0x1 SLOAD DUP5 GT ISZERO DUP1 ISZERO PUSH2 0x8A3 JUMPI POP PUSH0 DUP5 GT JUMPDEST PUSH2 0x8E2 JUMPI PUSH1 0x40 MLOAD PUSH32 0x8C379A000000000000000000000000000000000000000000000000000000000 DUP2 MSTORE PUSH1 0x4 ADD PUSH2 0x8D9 SWAP1 PUSH2 0x142A JUMP JUMPDEST PUSH1 0x40 MLOAD DUP1 SWAP2 SUB SWAP1 REVERT JUMPDEST PUSH0 PUSH20 0xFFFFFFFFFFFFFFFFFFFFFFFFFFFFFFFFFFFFFFFF AND PUSH0 DUP1 DUP7 DUP2 MSTORE PUSH1 0x20 ADD SWAP1 DUP2 MSTORE PUSH1 0x20 ADD PUSH0 KECCAK256 PUSH1 0x9 ADD PUSH0 SWAP1 SLOAD SWAP1 PUSH2 0x100 EXP SWAP1 DIV PUSH20 0xFFFFFFFFFFFFFFFFFFFFFFFFFFFFFFFFFFFFFFFF AND PUSH20 0xFFFFFFFFFFFFFFFFFFFFFFFFFFFFFFFFFFFFFFFF AND EQ PUSH2 0x982 JUMPI PUSH1 0x40 MLOAD PUSH32 0x8C379A000000000000000000000000000000000000000000000000000000000 DUP2 MSTORE PUSH1 0x4 ADD PUSH2 0x979 SWAP1 PUSH2 0x1492 JUMP JUMPDEST PUSH1 0x40 MLOAD DUP1 SWAP2 SUB SWAP1 REVERT JUMPDEST DUP3 PUSH0 DUP1 DUP7 DUP2 MSTORE PUSH1 0x20 ADD SWAP1 DUP2 MSTORE PUSH1 0x20 ADD PUSH0 KECCAK256 PUSH1 0x8 ADD SWAP1 DUP2 PUSH2 0x9A2 SWAP2 SWAP1 PUSH2 0x12B2 JUMP JUMPDEST POP DUP2 PUSH0 DUP1 DUP7 DUP2 MSTORE PUSH1 0x20 ADD SWAP1 DUP2 MSTORE PUSH1 0x20 ADD PUSH0 KECCAK256 PUSH1 0x9 ADD PUSH0 PUSH2 0x100 EXP DUP2 SLOAD DUP2 PUSH20 0xFFFFFFFFFFFFFFFFFFFFFFFFFFFFFFFFFFFFFFFF MUL NOT AND SWAP1 DUP4 PUSH20 0xFFFFFFFFFFFFFFFFFFFFFFFFFFFFFFFFFFFFFFFF AND MUL OR SWAP1 SSTORE POP DUP1 PUSH0 DUP1 DUP7 DUP2 MSTORE PUSH1 0x20 ADD SWAP1 DUP2 MSTORE PUSH1 0x20 ADD PUSH0 KECCAK256 PUSH1 0xA ADD DUP2 SWAP1 SSTORE POP PUSH32 0xA34850B3494ADD08388E7C4EA0842B9FDFA48C1B7E7BCB0288C7678E8B27CE37 DUP5 PUSH0 DUP1 DUP8 DUP2 MSTORE PUSH1 0x20 ADD SWAP1 DUP2 MSTORE PUSH1 0x20 ADD PUSH0 KECCAK256 PUSH1 0x6 ADD PUSH0 SWAP1 SLOAD SWAP1 PUSH2 0x100 EXP SWAP1 DIV PUSH20 0xFFFFFFFFFFFFFFFFFFFFFFFFFFFFFFFFFFFFFFFF AND DUP5 DUP5 PUSH1 0x40 MLOAD PUSH2 0xA73 SWAP5 SWAP4 SWAP3 SWAP2 SWAP1 PUSH2 0x15F7 JUMP JUMPDEST PUSH1 0x40 MLOAD DUP1 SWAP2 SUB SWAP1 LOG1 POP POP POP POP JUMP JUMPDEST PUSH1 0x1 SLOAD DUP2 GT ISZERO DUP1 ISZERO PUSH2 0xA92 JUMPI POP PUSH0 DUP2 GT JUMPDEST PUSH2 0xAD1 JUMPI PUSH1 0x40 MLOAD PUSH32 0x8C379A000000000000000000000000000000000000000000000000000000000 DUP2 MSTORE PUSH1 0x4 ADD PUSH2 0xAC8 SWAP1 PUSH2 0x142A JUMP JUMPDEST PUSH1 0x40 MLOAD DUP1 SWAP2 SUB SWAP1 REVERT JUMPDEST PUSH0 DUP1 DUP3 DUP2 MSTORE PUSH1 0x20 ADD SWAP1 DUP2 MSTORE PUSH1 0x20 ADD PUSH0 KECCAK256 PUSH1 0xB ADD PUSH0 SWAP1 SLOAD SWAP1 PUSH2 0x100 EXP SWAP1 DIV PUSH1 0xFF AND ISZERO PUSH2 0xB31 JUMPI PUSH1 0x40 MLOAD PUSH32 0x8C379A000000000000000000000000000000000000000000000000000000000 DUP2 MSTORE PUSH1 0x4 ADD PUSH2 0xB28 SWAP1 PUSH2 0x16AA JUMP JUMPDEST PUSH1 0x40 MLOAD DUP1 SWAP2 SUB SWAP1 REVERT JUMPDEST PUSH1 0x1 PUSH0 DUP1 DUP4 DUP2 MSTORE PUSH1 0x20 ADD SWAP1 DUP2 MSTORE PUSH1 0x20 ADD PUSH0 KECCAK256 PUSH1 0xB ADD PUSH0 PUSH2 0x100 EXP DUP2 SLOAD DUP2 PUSH1 0xFF MUL NOT AND SWAP1 DUP4 ISZERO ISZERO MUL OR SWAP1 SSTORE POP PUSH32 0xBDB79F0B777669CF4D01754A6D6B461BDD8D0F18B57C036E7D4BF3A567F33784 DUP2 CALLER PUSH1 0x40 MLOAD PUSH2 0xB8D SWAP3 SWAP2 SWAP1 PUSH2 0x16C8 JUMP JUMPDEST PUSH1 0x40 MLOAD DUP1 SWAP2 SUB SWAP1 LOG1 POP JUMP JUMPDEST PUSH1 0x1 SLOAD DUP2 JUMP JUMPDEST PUSH0 PUSH1 0x40 MLOAD SWAP1 POP SWAP1 JUMP JUMPDEST PUSH0 DUP1 REVERT JUMPDEST PUSH0 DUP1 REVERT JUMPDEST PUSH0 DUP1 REVERT JUMPDEST PUSH0 DUP1 REVERT JUMPDEST PUSH0 PUSH1 0x1F NOT PUSH1 0x1F DUP4 ADD AND SWAP1 POP SWAP2 SWAP1 POP JUMP JUMPDEST PUSH32 0x4E487B7100000000000000000000000000000000000000000000000000000000 PUSH0 MSTORE PUSH1 0x41 PUSH1 0x4 MSTORE PUSH1 0x24 PUSH0 REVERT JUMPDEST PUSH2 0xBFD DUP3 PUSH2 0xBB7 JUMP JUMPDEST DUP2 ADD DUP2 DUP2 LT PUSH8 0xFFFFFFFFFFFFFFFF DUP3 GT OR ISZERO PUSH2 0xC1C JUMPI PUSH2 0xC1B PUSH2 0xBC7 JUMP JUMPDEST JUMPDEST DUP1 PUSH1 0x40 MSTORE POP POP POP JUMP JUMPDEST PUSH0 PUSH2 0xC2E PUSH2 0xB9E JUMP JUMPDEST SWAP1 POP PUSH2 0xC3A DUP3 DUP3 PUSH2 0xBF4 JUMP JUMPDEST SWAP2 SWAP1 POP JUMP JUMPDEST PUSH0 PUSH8 0xFFFFFFFFFFFFFFFF DUP3 GT ISZERO PUSH2 0xC59 JUMPI PUSH2 0xC58 PUSH2 0xBC7 JUMP JUMPDEST JUMPDEST PUSH2 0xC62 DUP3 PUSH2 0xBB7 JUMP JUMPDEST SWAP1 POP PUSH1 0x20 DUP2 ADD SWAP1 POP SWAP2 SWAP1 POP JUMP JUMPDEST DUP3 DUP2 DUP4 CALLDATACOPY PUSH0 DUP4 DUP4 ADD MSTORE POP POP POP JUMP JUMPDEST PUSH0 PUSH2 0xC8F PUSH2 0xC8A DUP5 PUSH2 0xC3F JUMP JUMPDEST PUSH2 0xC25 JUMP JUMPDEST SWAP1 POP DUP3 DUP2 MSTORE PUSH1 0x20 DUP2 ADD DUP5 DUP5 DUP5 ADD GT ISZERO PUSH2 0xCAB JUMPI PUSH2 0xCAA PUSH2 0xBB3 JUMP JUMPDEST JUMPDEST PUSH2 0xCB6 DUP5 DUP3 DUP6 PUSH2 0xC6F JUMP JUMPDEST POP SWAP4 SWAP3 POP POP POP JUMP JUMPDEST PUSH0 DUP3 PUSH1 0x1F DUP4 ADD SLT PUSH2 0xCD2 JUMPI PUSH2 0xCD1 PUSH2 0xBAF JUMP JUMPDEST JUMPDEST DUP2 CALLDATALOAD PUSH2 0xCE2 DUP5 DUP3 PUSH1 0x20 DUP7 ADD PUSH2 0xC7D JUMP JUMPDEST SWAP2 POP POP SWAP3 SWAP2 POP POP JUMP JUMPDEST PUSH0 PUSH20 0xFFFFFFFFFFFFFFFFFFFFFFFFFFFFFFFFFFFFFFFF DUP3 AND SWAP1 POP SWAP2 SWAP1 POP JUMP JUMPDEST PUSH0 PUSH2 0xD14 DUP3 PUSH2 0xCEB JUMP JUMPDEST SWAP1 POP SWAP2 SWAP1 POP JUMP JUMPDEST PUSH2 0xD24 DUP2 PUSH2 0xD0A JUMP JUMPDEST DUP2 EQ PUSH2 0xD2E JUMPI PUSH0 DUP1 REVERT JUMPDEST POP JUMP JUMPDEST PUSH0 DUP2 CALLDATALOAD SWAP1 POP PUSH2 0xD3F DUP2 PUSH2 0xD1B JUMP JUMPDEST SWAP3 SWAP2 POP POP JUMP JUMPDEST PUSH0 DUP2 SWAP1 POP SWAP2 SWAP1 POP JUMP JUMPDEST PUSH2 0xD57 DUP2 PUSH2 0xD45 JUMP JUMPDEST DUP2 EQ PUSH2 0xD61 JUMPI PUSH0 DUP1 REVERT JUMPDEST POP JUMP JUMPDEST PUSH0 DUP2 CALLDATALOAD SWAP1 POP PUSH2 0xD72 DUP2 PUSH2 0xD4E JUMP JUMPDEST SWAP3 SWAP2 POP POP JUMP JUMPDEST PUSH0 DUP1 PUSH0 DUP1 PUSH1 0x80 DUP6 DUP8 SUB SLT ISZERO PUSH2 0xD90 JUMPI PUSH2 0xD8F PUSH2 0xBA7 JUMP JUMPDEST JUMPDEST PUSH0 DUP6 ADD CALLDATALOAD PUSH8 0xFFFFFFFFFFFFFFFF DUP2 GT ISZERO PUSH2 0xDAD JUMPI PUSH2 0xDAC PUSH2 0xBAB JUMP JUMPDEST JUMPDEST PUSH2 0xDB9 DUP8 DUP3 DUP9 ADD PUSH2 0xCBE JUMP JUMPDEST SWAP5 POP POP PUSH1 0x20 DUP6 ADD CALLDATALOAD PUSH8 0xFFFFFFFFFFFFFFFF DUP2 GT ISZERO PUSH2 0xDDA JUMPI PUSH2 0xDD9 PUSH2 0xBAB JUMP JUMPDEST JUMPDEST PUSH2 0xDE6 DUP8 DUP3 DUP9 ADD PUSH2 0xCBE JUMP JUMPDEST SWAP4 POP POP PUSH1 0x40 PUSH2 0xDF7 DUP8 DUP3 DUP9 ADD PUSH2 0xD31 JUMP JUMPDEST SWAP3 POP POP PUSH1 0x60 PUSH2 0xE08 DUP8 DUP3 DUP9 ADD PUSH2 0xD64 JUMP JUMPDEST SWAP2 POP POP SWAP3 SWAP6 SWAP2 SWAP5 POP SWAP3 POP JUMP JUMPDEST PUSH0 DUP1 PUSH0 DUP1 PUSH1 0x80 DUP6 DUP8 SUB SLT ISZERO PUSH2 0xE2C JUMPI PUSH2 0xE2B PUSH2 0xBA7 JUMP JUMPDEST JUMPDEST PUSH0 PUSH2 0xE39 DUP8 DUP3 DUP9 ADD PUSH2 0xD64 JUMP JUMPDEST SWAP5 POP POP PUSH1 0x20 DUP6 ADD CALLDATALOAD PUSH8 0xFFFFFFFFFFFFFFFF DUP2 GT ISZERO PUSH2 0xE5A JUMPI PUSH2 0xE59 PUSH2 0xBAB JUMP JUMPDEST JUMPDEST PUSH2 0xE66 DUP8 DUP3 DUP9 ADD PUSH2 0xCBE JUMP JUMPDEST SWAP4 POP POP PUSH1 0x40 PUSH2 0xE77 DUP8 DUP3 DUP9 ADD PUSH2 0xD31 JUMP JUMPDEST SWAP3 POP POP PUSH1 0x60 PUSH2 0xE88 DUP8 DUP3 DUP9 ADD PUSH2 0xD64 JUMP JUMPDEST SWAP2 POP POP SWAP3 SWAP6 SWAP2 SWAP5 POP SWAP3 POP JUMP JUMPDEST PUSH0 PUSH1 0x20 DUP3 DUP5 SUB SLT ISZERO PUSH2 0xEA9 JUMPI PUSH2 0xEA8 PUSH2 0xBA7 JUMP JUMPDEST JUMPDEST PUSH0 PUSH2 0xEB6 DUP5 DUP3 DUP6 ADD PUSH2 0xD64 JUMP JUMPDEST SWAP2 POP POP SWAP3 SWAP2 POP POP JUMP JUMPDEST PUSH2 0xEC8 DUP2 PUSH2 0xD45 JUMP JUMPDEST DUP3 MSTORE POP POP JUMP JUMPDEST PUSH0 DUP2 MLOAD SWAP1 POP SWAP2 SWAP1 POP JUMP JUMPDEST PUSH0 DUP3 DUP3 MSTORE PUSH1 0x20 DUP3 ADD SWAP1 POP SWAP3 SWAP2 POP POP JUMP JUMPDEST DUP3 DUP2 DUP4 MCOPY PUSH0 DUP4 DUP4 ADD MSTORE POP POP POP JUMP JUMPDEST PUSH0 PUSH2 0xF00 DUP3 PUSH2 0xECE JUMP JUMPDEST PUSH2 0xF0A DUP2 DUP6 PUSH2 0xED8 JUMP JUMPDEST SWAP4 POP PUSH2 0xF1A DUP2 DUP6 PUSH1 0x20 DUP7 ADD PUSH2 0xEE8 JUMP JUMPDEST PUSH2 0xF23 DUP2 PUSH2 0xBB7 JUMP JUMPDEST DUP5 ADD SWAP2 POP POP SWAP3 SWAP2 POP POP JUMP JUMPDEST PUSH2 0xF37 DUP2 PUSH2 0xD0A JUMP JUMPDEST DUP3 MSTORE POP POP JUMP JUMPDEST PUSH0 DUP2 ISZERO ISZERO SWAP1 POP SWAP2 SWAP1 POP JUMP JUMPDEST PUSH2 0xF51 DUP2 PUSH2 0xF3D JUMP JUMPDEST DUP3 MSTORE POP POP JUMP JUMPDEST PUSH0 PUSH2 0x180 DUP3 ADD SWAP1 POP PUSH2 0xF6B PUSH0 DUP4 ADD DUP16 PUSH2 0xEBF JUMP JUMPDEST DUP2 DUP2 SUB PUSH1 0x20 DUP4 ADD MSTORE PUSH2 0xF7D DUP2 DUP15 PUSH2 0xEF6 JUMP JUMPDEST SWAP1 POP DUP2 DUP2 SUB PUSH1 0x40 DUP4 ADD MSTORE PUSH2 0xF91 DUP2 DUP14 PUSH2 0xEF6 JUMP JUMPDEST SWAP1 POP PUSH2 0xFA0 PUSH1 0x60 DUP4 ADD DUP13 PUSH2 0xF2E JUMP JUMPDEST PUSH2 0xFAD PUSH1 0x80 DUP4 ADD DUP12 PUSH2 0xEBF JUMP JUMPDEST DUP2 DUP2 SUB PUSH1 0xA0 DUP4 ADD MSTORE PUSH2 0xFBF DUP2 DUP11 PUSH2 0xEF6 JUMP JUMPDEST SWAP1 POP PUSH2 0xFCE PUSH1 0xC0 DUP4 ADD DUP10 PUSH2 0xF2E JUMP JUMPDEST PUSH2 0xFDB PUSH1 0xE0 DUP4 ADD DUP9 PUSH2 0xEBF JUMP JUMPDEST DUP2 DUP2 SUB PUSH2 0x100 DUP4 ADD MSTORE PUSH2 0xFEE DUP2 DUP8 PUSH2 0xEF6 JUMP JUMPDEST SWAP1 POP PUSH2 0xFFE PUSH2 0x120 DUP4 ADD DUP7 PUSH2 0xF2E JUMP JUMPDEST PUSH2 0x100C PUSH2 0x140 DUP4 ADD DUP6 PUSH2 0xEBF JUMP JUMPDEST PUSH2 0x101A PUSH2 0x160 DUP4 ADD DUP5 PUSH2 0xF48 JUMP JUMPDEST SWAP14 SWAP13 POP POP POP POP POP POP POP POP POP POP POP POP POP JUMP JUMPDEST PUSH0 PUSH1 0x20 DUP3 ADD SWAP1 POP PUSH2 0x103E PUSH0 DUP4 ADD DUP5 PUSH2 0xEBF JUMP JUMPDEST SWAP3 SWAP2 POP POP JUMP JUMPDEST PUSH32 0x4E487B7100000000000000000000000000000000000000000000000000000000 PUSH0 MSTORE PUSH1 0x11 PUSH1 0x4 MSTORE PUSH1 0x24 PUSH0 REVERT JUMPDEST PUSH0 PUSH2 0x107B DUP3 PUSH2 0xD45 JUMP JUMPDEST SWAP2 POP PUSH32 0xFFFFFFFFFFFFFFFFFFFFFFFFFFFFFFFFFFFFFFFFFFFFFFFFFFFFFFFFFFFFFFFF DUP3 SUB PUSH2 0x10AD JUMPI PUSH2 0x10AC PUSH2 0x1044 JUMP JUMPDEST JUMPDEST PUSH1 0x1 DUP3 ADD SWAP1 POP SWAP2 SWAP1 POP JUMP JUMPDEST PUSH32 0x4E487B7100000000000000000000000000000000000000000000000000000000 PUSH0 MSTORE PUSH1 0x22 PUSH1 0x4 MSTORE PUSH1 0x24 PUSH0 REVERT JUMPDEST PUSH0 PUSH1 0x2 DUP3 DIV SWAP1 POP PUSH1 0x1 DUP3 AND DUP1 PUSH2 0x10FC JUMPI PUSH1 0x7F DUP3 AND SWAP2 POP JUMPDEST PUSH1 0x20 DUP3 LT DUP2 SUB PUSH2 0x110F JUMPI PUSH2 0x110E PUSH2 0x10B8 JUMP JUMPDEST JUMPDEST POP SWAP2 SWAP1 POP JUMP JUMPDEST PUSH0 DUP2 SWAP1 POP DUP2 PUSH0 MSTORE PUSH1 0x20 PUSH0 KECCAK256 SWAP1 POP SWAP2 SWAP1 POP JUMP JUMPDEST PUSH0 PUSH1 0x20 PUSH1 0x1F DUP4 ADD DIV SWAP1 POP SWAP2 SWAP1 POP JUMP JUMPDEST PUSH0 DUP3 DUP3 SHL SWAP1 POP SWAP3 SWAP2 POP POP JUMP JUMPDEST PUSH0 PUSH1 0x8 DUP4 MUL PUSH2 0x1171 PUSH32 0xFFFFFFFFFFFFFFFFFFFFFFFFFFFFFFFFFFFFFFFFFFFFFFFFFFFFFFFFFFFFFFFF DUP3 PUSH2 0x1136 JUMP JUMPDEST PUSH2 0x117B DUP7 DUP4 PUSH2 0x1136 JUMP JUMPDEST SWAP6 POP DUP1 NOT DUP5 AND SWAP4 POP DUP1 DUP7 AND DUP5 OR SWAP3 POP POP POP SWAP4 SWAP3 POP POP POP JUMP JUMPDEST PUSH0 DUP2 SWAP1 POP SWAP2 SWAP1 POP JUMP JUMPDEST PUSH0 PUSH2 0x11B6 PUSH2 0x11B1 PUSH2 0x11AC DUP5 PUSH2 0xD45 JUMP JUMPDEST PUSH2 0x1193 JUMP JUMPDEST PUSH2 0xD45 JUMP JUMPDEST SWAP1 POP SWAP2 SWAP1 POP JUMP JUMPDEST PUSH0 DUP2 SWAP1 POP SWAP2 SWAP1 POP JUMP JUMPDEST PUSH2 0x11CF DUP4 PUSH2 0x119C JUMP JUMPDEST PUSH2 0x11E3 PUSH2 0x11DB DUP3 PUSH2 0x11BD JUMP JUMPDEST DUP5 DUP5 SLOAD PUSH2 0x1142 JUMP JUMPDEST DUP3 SSTORE POP POP POP POP JUMP JUMPDEST PUSH0 SWAP1 JUMP JUMPDEST PUSH2 0x11F7 PUSH2 0x11EB JUMP JUMPDEST PUSH2 0x1202 DUP2 DUP5 DUP5 PUSH2 0x11C6 JUMP JUMPDEST POP POP POP JUMP JUMPDEST JUMPDEST DUP2 DUP2 LT ISZERO PUSH2 0x1225 JUMPI PUSH2 0x121A PUSH0 DUP3 PUSH2 0x11EF JUMP JUMPDEST PUSH1 0x1 DUP2 ADD SWAP1 POP PUSH2 0x1208 JUMP JUMPDEST POP POP JUMP JUMPDEST PUSH1 0x1F DUP3 GT ISZERO PUSH2 0x126A JUMPI PUSH2 0x123B DUP2 PUSH2 0x1115 JUMP JUMPDEST PUSH2 0x1244 DUP5 PUSH2 0x1127 JUMP JUMPDEST DUP2 ADD PUSH1 0x20 DUP6 LT ISZERO PUSH2 0x1253 JUMPI DUP2 SWAP1 POP JUMPDEST PUSH2 0x1267 PUSH2 0x125F DUP6 PUSH2 0x1127 JUMP JUMPDEST DUP4 ADD DUP3 PUSH2 0x1207 JUMP JUMPDEST POP POP JUMPDEST POP POP POP JUMP JUMPDEST PUSH0 DUP3 DUP3 SHR SWAP1 POP SWAP3 SWAP2 POP POP JUMP JUMPDEST PUSH0 PUSH2 0x128A PUSH0 NOT DUP5 PUSH1 0x8 MUL PUSH2 0x126F JUMP JUMPDEST NOT DUP1 DUP4 AND SWAP2 POP POP SWAP3 SWAP2 POP POP JUMP JUMPDEST PUSH0 PUSH2 0x12A2 DUP4 DUP4 PUSH2 0x127B JUMP JUMPDEST SWAP2 POP DUP3 PUSH1 0x2 MUL DUP3 OR SWAP1 POP SWAP3 SWAP2 POP POP JUMP JUMPDEST PUSH2 0x12BB DUP3 PUSH2 0xECE JUMP JUMPDEST PUSH8 0xFFFFFFFFFFFFFFFF DUP2 GT ISZERO PUSH2 0x12D4 JUMPI PUSH2 0x12D3 PUSH2 0xBC7 JUMP JUMPDEST JUMPDEST PUSH2 0x12DE DUP3 SLOAD PUSH2 0x10E5 JUMP JUMPDEST PUSH2 0x12E9 DUP3 DUP3 DUP6 PUSH2 0x1229 JUMP JUMPDEST PUSH0 PUSH1 0x20 SWAP1 POP PUSH1 0x1F DUP4 GT PUSH1 0x1 DUP2 EQ PUSH2 0x131A JUMPI PUSH0 DUP5 ISZERO PUSH2 0x1308 JUMPI DUP3 DUP8 ADD MLOAD SWAP1 POP JUMPDEST PUSH2 0x1312 DUP6 DUP3 PUSH2 0x1297 JUMP JUMPDEST DUP7 SSTORE POP PUSH2 0x1379 JUMP JUMPDEST PUSH1 0x1F NOT DUP5 AND PUSH2 0x1328 DUP7 PUSH2 0x1115 JUMP JUMPDEST PUSH0 JUMPDEST DUP3 DUP2 LT ISZERO PUSH2 0x134F JUMPI DUP5 DUP10 ADD MLOAD DUP3 SSTORE PUSH1 0x1 DUP3 ADD SWAP2 POP PUSH1 0x20 DUP6 ADD SWAP5 POP PUSH1 0x20 DUP2 ADD SWAP1 POP PUSH2 0x132A JUMP JUMPDEST DUP7 DUP4 LT ISZERO PUSH2 0x136C JUMPI DUP5 DUP10 ADD MLOAD PUSH2 0x1368 PUSH1 0x1F DUP10 AND DUP3 PUSH2 0x127B JUMP JUMPDEST DUP4 SSTORE POP JUMPDEST PUSH1 0x1 PUSH1 0x2 DUP9 MUL ADD DUP9 SSTORE POP POP POP JUMPDEST POP POP POP POP POP POP JUMP JUMPDEST PUSH0 PUSH1 0xA0 DUP3 ADD SWAP1 POP PUSH2 0x1394 PUSH0 DUP4 ADD DUP9 PUSH2 0xEBF JUMP JUMPDEST DUP2 DUP2 SUB PUSH1 0x20 DUP4 ADD MSTORE PUSH2 0x13A6 DUP2 DUP8 PUSH2 0xEF6 JUMP JUMPDEST SWAP1 POP DUP2 DUP2 SUB PUSH1 0x40 DUP4 ADD MSTORE PUSH2 0x13BA DUP2 DUP7 PUSH2 0xEF6 JUMP JUMPDEST SWAP1 POP PUSH2 0x13C9 PUSH1 0x60 DUP4 ADD DUP6 PUSH2 0xF2E JUMP JUMPDEST PUSH2 0x13D6 PUSH1 0x80 DUP4 ADD DUP5 PUSH2 0xEBF JUMP JUMPDEST SWAP7 SWAP6 POP POP POP POP POP POP JUMP JUMPDEST PUSH32 0x496E76616C69642070726F647563742049440000000000000000000000000000 PUSH0 DUP3 ADD MSTORE POP JUMP JUMPDEST PUSH0 PUSH2 0x1414 PUSH1 0x12 DUP4 PUSH2 0xED8 JUMP JUMPDEST SWAP2 POP PUSH2 0x141F DUP3 PUSH2 0x13E0 JUMP JUMPDEST PUSH1 0x20 DUP3 ADD SWAP1 POP SWAP2 SWAP1 POP JUMP JUMPDEST PUSH0 PUSH1 0x20 DUP3 ADD SWAP1 POP DUP2 DUP2 SUB PUSH0 DUP4 ADD MSTORE PUSH2 0x1441 DUP2 PUSH2 0x1408 JUMP JUMPDEST SWAP1 POP SWAP2 SWAP1 POP JUMP JUMPDEST PUSH32 0x50726F6475637420616C7265616479207472616E736665727265640000000000 PUSH0 DUP3 ADD MSTORE POP JUMP JUMPDEST PUSH0 PUSH2 0x147C PUSH1 0x1B DUP4 PUSH2 0xED8 JUMP JUMPDEST SWAP2 POP PUSH2 0x1487 DUP3 PUSH2 0x1448 JUMP JUMPDEST PUSH1 0x20 DUP3 ADD SWAP1 POP SWAP2 SWAP1 POP JUMP JUMPDEST PUSH0 PUSH1 0x20 DUP3 ADD SWAP1 POP DUP2 DUP2 SUB PUSH0 DUP4 ADD MSTORE PUSH2 0x14A9 DUP2 PUSH2 0x1470 JUMP JUMPDEST SWAP1 POP SWAP2 SWAP1 POP JUMP JUMPDEST PUSH32 0x50726F6475636572000000000000000000000000000000000000000000000000 PUSH0 DUP3 ADD MSTORE POP JUMP JUMPDEST PUSH0 PUSH2 0x14E4 PUSH1 0x8 DUP4 PUSH2 0xED8 JUMP JUMPDEST SWAP2 POP PUSH2 0x14EF DUP3 PUSH2 0x14B0 JUMP JUMPDEST PUSH1 0x20 DUP3 ADD SWAP1 POP SWAP2 SWAP1 POP JUMP JUMPDEST PUSH32 0x4469737472696275746F72000000000000000000000000000000000000000000 PUSH0 DUP3 ADD MSTORE POP JUMP JUMPDEST PUSH0 PUSH2 0x152E PUSH1 0xB DUP4 PUSH2 0xED8 JUMP JUMPDEST SWAP2 POP PUSH2 0x1539 DUP3 PUSH2 0x14FA JUMP JUMPDEST PUSH1 0x20 DUP3 ADD SWAP1 POP SWAP2 SWAP1 POP JUMP JUMPDEST PUSH0 PUSH1 0xC0 DUP3 ADD SWAP1 POP PUSH2 0x1557 PUSH0 DUP4 ADD DUP8 PUSH2 0xEBF JUMP JUMPDEST DUP2 DUP2 SUB PUSH1 0x20 DUP4 ADD MSTORE PUSH2 0x1568 DUP2 PUSH2 0x14D8 JUMP JUMPDEST SWAP1 POP DUP2 DUP2 SUB PUSH1 0x40 DUP4 ADD MSTORE PUSH2 0x157B DUP2 PUSH2 0x1522 JUMP JUMPDEST SWAP1 POP PUSH2 0x158A PUSH1 0x60 DUP4 ADD DUP7 PUSH2 0xF2E JUMP JUMPDEST PUSH2 0x1597 PUSH1 0x80 DUP4 ADD DUP6 PUSH2 0xF2E JUMP JUMPDEST PUSH2 0x15A4 PUSH1 0xA0 DUP4 ADD DUP5 PUSH2 0xEBF JUMP JUMPDEST SWAP6 SWAP5 POP POP POP POP POP JUMP JUMPDEST PUSH32 0x52657461696C6572000000000000000000000000000000000000000000000000 PUSH0 DUP3 ADD MSTORE POP JUMP JUMPDEST PUSH0 PUSH2 0x15E1 PUSH1 0x8 DUP4 PUSH2 0xED8 JUMP JUMPDEST SWAP2 POP PUSH2 0x15EC DUP3 PUSH2 0x15AD JUMP JUMPDEST PUSH1 0x20 DUP3 ADD SWAP1 POP SWAP2 SWAP1 POP JUMP JUMPDEST PUSH0 PUSH1 0xC0 DUP3 ADD SWAP1 POP PUSH2 0x160A PUSH0 DUP4 ADD DUP8 PUSH2 0xEBF JUMP JUMPDEST DUP2 DUP2 SUB PUSH1 0x20 DUP4 ADD MSTORE PUSH2 0x161B DUP2 PUSH2 0x1522 JUMP JUMPDEST SWAP1 POP DUP2 DUP2 SUB PUSH1 0x40 DUP4 ADD MSTORE PUSH2 0x162E DUP2 PUSH2 0x15D5 JUMP JUMPDEST SWAP1 POP PUSH2 0x163D PUSH1 0x60 DUP4 ADD DUP7 PUSH2 0xF2E JUMP JUMPDEST PUSH2 0x164A PUSH1 0x80 DUP4 ADD DUP6 PUSH2 0xF2E JUMP JUMPDEST PUSH2 0x1657 PUSH1 0xA0 DUP4 ADD DUP5 PUSH2 0xEBF JUMP JUMPDEST SWAP6 SWAP5 POP POP POP POP POP JUMP JUMPDEST PUSH32 0x50726F6475637420616C726561647920736F6C64000000000000000000000000 PUSH0 DUP3 ADD MSTORE POP JUMP JUMPDEST PUSH0 PUSH2 0x1694 PUSH1 0x14 DUP4 PUSH2 0xED8 JUMP JUMPDEST SWAP2 POP PUSH2 0x169F DUP3 PUSH2 0x1660 JUMP JUMPDEST PUSH1 0x20 DUP3 ADD SWAP1 POP SWAP2 SWAP1 POP JUMP JUMPDEST PUSH0 PUSH1 0x20 DUP3 ADD SWAP1 POP DUP2 DUP2 SUB PUSH0 DUP4 ADD MSTORE PUSH2 0x16C1 DUP2 PUSH2 0x1688 JUMP JUMPDEST SWAP1 POP SWAP2 SWAP1 POP JUMP JUMPDEST PUSH0 PUSH1 0x40 DUP3 ADD SWAP1 POP PUSH2 0x16DB PUSH0 DUP4 ADD DUP6 PUSH2 0xEBF JUMP JUMPDEST PUSH2 0x16E8 PUSH1 0x20 DUP4 ADD DUP5 PUSH2 0xF2E JUMP JUMPDEST SWAP4 SWAP3 POP POP POP JUMP INVALID LOG2 PUSH5 0x6970667358 0x22 SLT KECCAK256 PUSH23 0xAC27026EDA0B75340AA6ED53C83E096AFF857E85F0A44B 0xAD ADDMOD 0xE4 BLOBHASH 0xE3 0xB8 LOG4 LOG2 PUSH5 0x736F6C6343 STOP ADDMOD NOT STOP CALLER "
				},
				"gasEstimates": {
					"creation": {
						"codeDepositCost": "1185000",
						"executionCost": "1232",
						"totalCost": "1186232"
					},
					"external": {
						"harvestProduct(string,string,address,uint256)": "infinite",
						"productCount()": "2513",
						"products(uint256)": "infinite",
						"sellToConsumer(uint256)": "infinite",
						"transferToDistributor(uint256,string,address,uint256)": "infinite",
						"transferToRetailer(uint256,string,address,uint256)": "infinite"
					}
				},
				"methodIdentifiers": {
					"harvestProduct(string,string,address,uint256)": "0cd3fb4f",
					"productCount()": "e0f6ef87",
					"products(uint256)": "7acc0b20",
					"sellToConsumer(uint256)": "c21f9b99",
					"transferToDistributor(uint256,string,address,uint256)": "75476b7d",
					"transferToRetailer(uint256,string,address,uint256)": "97b00581"
				}
			},
			"storageLayout": {
				"storage": [
					{
						"astId": 31,
						"contract": "contracts/FreshTrack.sol:FoodSupplyChain",
						"label": "products",
						"offset": 0,
						"slot": "0",
						"type": "t_mapping(t_uint256,t_struct(FarmProduct)26_storage)"
					},
					{
						"astId": 33,
						"contract": "contracts/FreshTrack.sol:FoodSupplyChain",
						"label": "productCount",
						"offset": 0,
						"slot": "1",
						"type": "t_uint256"
					}
				],
				"types": {
					"t_address": {
						"encoding": "inplace",
						"label": "address",
						"numberOfBytes": "20"
					},
					"t_bool": {
						"encoding": "inplace",
						"label": "bool",
						"numberOfBytes": "1"
					},
					"t_mapping(t_uint256,t_struct(FarmProduct)26_storage)": {
						"encoding": "mapping",
						"key": "t_uint256",
						"label": "mapping(uint256 => struct FoodSupplyChain.FarmProduct)",
						"numberOfBytes": "32",
						"value": "t_struct(FarmProduct)26_storage"
					},
					"t_string_storage": {
						"encoding": "bytes",
						"label": "string",
						"numberOfBytes": "32"
					},
					"t_struct(FarmProduct)26_storage": {
						"encoding": "inplace",
						"label": "struct FoodSupplyChain.FarmProduct",
						"members": [
							{
								"astId": 3,
								"contract": "contracts/FreshTrack.sol:FoodSupplyChain",
								"label": "productId",
								"offset": 0,
								"slot": "0",
								"type": "t_uint256"
							},
							{
								"astId": 5,
								"contract": "contracts/FreshTrack.sol:FoodSupplyChain",
								"label": "productDescription",
								"offset": 0,
								"slot": "1",
								"type": "t_string_storage"
							},
							{
								"astId": 7,
								"contract": "contracts/FreshTrack.sol:FoodSupplyChain",
								"label": "producerName",
								"offset": 0,
								"slot": "2",
								"type": "t_string_storage"
							},
							{
								"astId": 9,
								"contract": "contracts/FreshTrack.sol:FoodSupplyChain",
								"label": "producerAddress",
								"offset": 0,
								"slot": "3",
								"type": "t_address"
							},
							{
								"astId": 11,
								"contract": "contracts/FreshTrack.sol:FoodSupplyChain",
								"label": "harvestDate",
								"offset": 0,
								"slot": "4",
								"type": "t_uint256"
							},
							{
								"astId": 13,
								"contract": "contracts/FreshTrack.sol:FoodSupplyChain",
								"label": "distributerName",
								"offset": 0,
								"slot": "5",
								"type": "t_string_storage"
							},
							{
								"astId": 15,
								"contract": "contracts/FreshTrack.sol:FoodSupplyChain",
								"label": "distributerAddress",
								"offset": 0,
								"slot": "6",
								"type": "t_address"
							},
							{
								"astId": 17,
								"contract": "contracts/FreshTrack.sol:FoodSupplyChain",
								"label": "prodToDistDate",
								"offset": 0,
								"slot": "7",
								"type": "t_uint256"
							},
							{
								"astId": 19,
								"contract": "contracts/FreshTrack.sol:FoodSupplyChain",
								"label": "retailerName",
								"offset": 0,
								"slot": "8",
								"type": "t_string_storage"
							},
							{
								"astId": 21,
								"contract": "contracts/FreshTrack.sol:FoodSupplyChain",
								"label": "retailerAddress",
								"offset": 0,
								"slot": "9",
								"type": "t_address"
							},
							{
								"astId": 23,
								"contract": "contracts/FreshTrack.sol:FoodSupplyChain",
								"label": "distToRetaDate",
								"offset": 0,
								"slot": "10",
								"type": "t_uint256"
							},
							{
								"astId": 25,
								"contract": "contracts/FreshTrack.sol:FoodSupplyChain",
								"label": "isSold",
								"offset": 0,
								"slot": "11",
								"type": "t_bool"
							}
						],
						"numberOfBytes": "384"
					},
					"t_uint256": {
						"encoding": "inplace",
						"label": "uint256",
						"numberOfBytes": "32"
					}
				}
			},
			"userdoc": {
				"kind": "user",
				"methods": {},
				"version": 1
			}
		}
	}
}